{
  "contractName": "RBAC",
  "abi": [
    {
      "inputs": [
        {
          "internalType": "address",
          "name": "_root",
          "type": "address"
        }
      ],
      "payable": false,
      "stateMutability": "nonpayable",
      "type": "constructor"
    },
    {
      "anonymous": false,
      "inputs": [
        {
          "indexed": false,
          "internalType": "address",
          "name": "member",
          "type": "address"
        },
        {
          "indexed": false,
          "internalType": "bytes32",
          "name": "roleId",
          "type": "bytes32"
        }
      ],
      "name": "MemberAdded",
      "type": "event"
    },
    {
      "anonymous": false,
      "inputs": [
        {
          "indexed": false,
          "internalType": "address",
          "name": "member",
          "type": "address"
        },
        {
          "indexed": false,
          "internalType": "bytes32",
          "name": "roleId",
          "type": "bytes32"
        }
      ],
      "name": "MemberRemoved",
      "type": "event"
    },
    {
      "anonymous": false,
      "inputs": [
        {
          "indexed": false,
          "internalType": "bytes32",
          "name": "roleId",
          "type": "bytes32"
        }
      ],
      "name": "RoleCreated",
      "type": "event"
    },
    {
      "anonymous": false,
      "inputs": [
        {
          "indexed": false,
          "internalType": "bytes32",
          "name": "roleId",
          "type": "bytes32"
        }
      ],
      "name": "RoleRemoved",
      "type": "event"
    },
    {
      "constant": true,
      "inputs": [],
      "name": "ROOT_ROLE",
      "outputs": [
        {
          "internalType": "bytes32",
          "name": "",
          "type": "bytes32"
        }
      ],
      "payable": false,
      "stateMutability": "view",
      "type": "function"
    },
    {
      "constant": true,
      "inputs": [
        {
          "internalType": "bytes32",
          "name": "_roleId",
          "type": "bytes32"
        }
      ],
      "name": "roleExists",
      "outputs": [
        {
          "internalType": "bool",
          "name": "",
          "type": "bool"
        }
      ],
      "payable": false,
      "stateMutability": "view",
      "type": "function"
    },
    {
      "constant": true,
      "inputs": [
        {
          "internalType": "address",
          "name": "_member",
          "type": "address"
        },
        {
          "internalType": "bytes32",
          "name": "_roleId",
          "type": "bytes32"
        }
      ],
      "name": "hasRole",
      "outputs": [
        {
          "internalType": "bool",
          "name": "",
          "type": "bool"
        }
      ],
      "payable": false,
      "stateMutability": "view",
      "type": "function"
    },
    {
      "constant": false,
      "inputs": [
        {
          "internalType": "bytes32",
          "name": "_roleId",
          "type": "bytes32"
        },
        {
          "internalType": "bytes32",
          "name": "_adminRoleId",
          "type": "bytes32"
        }
      ],
      "name": "addRole",
      "outputs": [],
      "payable": false,
      "stateMutability": "nonpayable",
      "type": "function"
    },
    {
      "constant": false,
      "inputs": [
        {
          "internalType": "address",
          "name": "_member",
          "type": "address"
        },
        {
          "internalType": "bytes32",
          "name": "_roleId",
          "type": "bytes32"
        }
      ],
      "name": "addMember",
      "outputs": [],
      "payable": false,
      "stateMutability": "nonpayable",
      "type": "function"
    },
    {
      "constant": false,
      "inputs": [
        {
          "internalType": "address",
          "name": "_member",
          "type": "address"
        },
        {
          "internalType": "bytes32",
          "name": "_roleId",
          "type": "bytes32"
        }
      ],
      "name": "removeMember",
      "outputs": [],
      "payable": false,
      "stateMutability": "nonpayable",
      "type": "function"
    }
  ],
  "bytecode": "0x608060405234801561001057600080fd5b50604051610c0c380380610c0c8339818101604052602081101561003357600080fd5b810190808051906020019092919050505060405180604001604052806001151581526020017f524f4f54000000000000000000000000000000000000000000000000000000008152506000807f524f4f5400000000000000000000000000000000000000000000000000000000815260200190815260200160002060008201518160000160006101000a81548160ff021916908315150217905550602082015181600101559050507f41ae852bd4986bdb048f0e9fe3e32c8d368d22693a4853f4bb5d6eb35f563f7a7f524f4f54000000000000000000000000000000000000000000000000000000006040518082815260200191505060405180910390a160016000807f524f4f5400000000000000000000000000000000000000000000000000000000815260200190815260200160002060020160008373ffffffffffffffffffffffffffffffffffffffff1673ffffffffffffffffffffffffffffffffffffffff16815260200190815260200160002060006101000a81548160ff0219169083151502179055507fefa218b911bf678a6f21f2b3d02057e2eccecfd8a6310eeb77b66e4cb37e9025817f524f4f5400000000000000000000000000000000000000000000000000000000604051808373ffffffffffffffffffffffffffffffffffffffff1673ffffffffffffffffffffffffffffffffffffffff1681526020018281526020019250505060405180910390a1506109b4806102586000396000f3fe608060405234801561001057600080fd5b50600436106100625760003560e01c806306323f8d1461006757806349df72081461009f5780637e8c7f08146100ed578063ac4ab3fb1461010b578063b41406f914610171578063ca7ca5b4146101b7575b600080fd5b61009d6004803603604081101561007d57600080fd5b810190808035906020019092919080359060200190929190505050610205565b005b6100eb600480360360408110156100b557600080fd5b81019080803573ffffffffffffffffffffffffffffffffffffffff1690602001909291908035906020019092919050505061038e565b005b6100f56105f1565b6040518082815260200191505060405180910390f35b6101576004803603604081101561012157600080fd5b81019080803573ffffffffffffffffffffffffffffffffffffffff16906020019092919080359060200190929190505050610615565b604051808215151515815260200191505060405180910390f35b61019d6004803603602081101561018757600080fd5b81019080803590602001909291905050506106fa565b604051808215151515815260200191505060405180910390f35b610203600480360360408110156101cd57600080fd5b81019080803573ffffffffffffffffffffffffffffffffffffffff16906020019092919080359060200190929190505050610726565b005b61020e826106fa565b15610281576040517f08c379a00000000000000000000000000000000000000000000000000000000081526004018080602001828103825260148152602001807f526f6c6520616c7265616479206578697374732e00000000000000000000000081525060200191505060405180910390fd5b61028a816106fa565b6102fc576040517f08c379a00000000000000000000000000000000000000000000000000000000081526004018080602001828103825260198152602001807f41646d696e20726f6c6520646f65736e27742065786973742e0000000000000081525060200191505060405180910390fd5b60405180604001604052806001151581526020018281525060008084815260200190815260200160002060008201518160000160006101000a81548160ff021916908315150217905550602082015181600101559050507f41ae852bd4986bdb048f0e9fe3e32c8d368d22693a4853f4bb5d6eb35f563f7a826040518082815260200191505060405180910390a15050565b610397816106fa565b610409576040517f08c379a00000000000000000000000000000000000000000000000000000000081526004018080602001828103825260138152602001807f526f6c6520646f65736e27742065786973742e0000000000000000000000000081525060200191505060405180910390fd5b6104283360008084815260200190815260200160002060010154610615565b61049a576040517f08c379a00000000000000000000000000000000000000000000000000000000081526004018080602001828103825260178152602001807f557365722063616e277420616464206d656d626572732e00000000000000000081525060200191505060405180910390fd5b6104a48282610615565b15610517576040517f08c379a000000000000000000000000000000000000000000000000000000000815260040180806020018281038252601a8152602001807f41646472657373206973206d656d626572206f6620726f6c652e00000000000081525060200191505060405180910390fd5b600160008083815260200190815260200160002060020160008473ffffffffffffffffffffffffffffffffffffffff1673ffffffffffffffffffffffffffffffffffffffff16815260200190815260200160002060006101000a81548160ff0219169083151502179055507fefa218b911bf678a6f21f2b3d02057e2eccecfd8a6310eeb77b66e4cb37e90258282604051808373ffffffffffffffffffffffffffffffffffffffff1673ffffffffffffffffffffffffffffffffffffffff1681526020018281526020019250505060405180910390a15050565b7f524f4f540000000000000000000000000000000000000000000000000000000081565b6000610620826106fa565b610692576040517f08c379a00000000000000000000000000000000000000000000000000000000081526004018080602001828103825260138152602001807f526f6c6520646f65736e27742065786973742e0000000000000000000000000081525060200191505060405180910390fd5b60008083815260200190815260200160002060020160008473ffffffffffffffffffffffffffffffffffffffff1673ffffffffffffffffffffffffffffffffffffffff16815260200190815260200160002060009054906101000a900460ff16905092915050565b600080600083815260200190815260200160002060000160009054906101000a900460ff169050919050565b61072f816106fa565b6107a1576040517f08c379a00000000000000000000000000000000000000000000000000000000081526004018080602001828103825260138152602001807f526f6c6520646f65736e27742065786973742e0000000000000000000000000081525060200191505060405180910390fd5b6107c03360008084815260200190815260200160002060010154610615565b610832576040517f08c379a000000000000000000000000000000000000000000000000000000000815260040180806020018281038252601a8152602001807f557365722063616e27742072656d6f7665206d656d626572732e00000000000081525060200191505060405180910390fd5b61083c8282610615565b6108ae576040517f08c379a000000000000000000000000000000000000000000000000000000000815260040180806020018281038252601e8152602001807f41646472657373206973206e6f74206d656d626572206f6620726f6c652e000081525060200191505060405180910390fd5b60008082815260200190815260200160002060020160008373ffffffffffffffffffffffffffffffffffffffff1673ffffffffffffffffffffffffffffffffffffffff16815260200190815260200160002060006101000a81549060ff02191690557fbd1f9a02c9ef3c31bebe4c93654b10bf2693f6db933277e6896355ae68c8aac78282604051808373ffffffffffffffffffffffffffffffffffffffff1673ffffffffffffffffffffffffffffffffffffffff1681526020018281526020019250505060405180910390a1505056fea265627a7a72315820c8dd3627c187b92572d6b34b89523a99747da9f0620207dabf33d22d3d398c9b64736f6c634300050c0032",
  "source": "pragma solidity ^0.5.10;\n\n/**\n * @title RBAC\n * @author Alberto Cuesta Canada\n * @notice Implements runtime configurable Role Based Access Control.\n */\ncontract RBAC {\n  event RoleCreated(bytes32 roleId);\n  event RoleRemoved(bytes32 roleId);\n  event MemberAdded(address member, bytes32 roleId);\n  event MemberRemoved(address member, bytes32 roleId);\n\n  bytes32 public constant ROOT_ROLE = \"ROOT\";\n  mapping (bytes32 => Role) internal roles;\n\n  /**\n    * @notice A role, which will be used to group users.\n    * @dev The role id is its position in the roles array.\n    * @param admin The only role that can add or remove members from this role. To have the role\n    * members to be also the role admins you should pass roles.length as the admin role.\n    * @param members Addresses belonging to this role.\n    */\n  struct Role {\n    bool exists;\n    bytes32 adminRoleId;\n    mapping (address => bool) members;\n  }\n\n  /**\n  * @notice The contract initializer. It adds NO_ROLE as with role id 0x0, and ROOT_ROLE with role id 'ROOT'.\n  */\n  constructor(address _root) public {\n    roles[ROOT_ROLE] = Role({ exists: true, adminRoleId: ROOT_ROLE });\n\n    emit RoleCreated(ROOT_ROLE);\n    roles[ROOT_ROLE].members[_root] = true;\n    emit MemberAdded(_root, ROOT_ROLE);\n  }\n\n  /**\n  * @notice A method to verify if a role exists.\n  * @param _roleId The id of the role being verified.\n  * @return True or false.\n  * @dev roleExists of NO_ROLE returns false.\n  */\n  function roleExists(bytes32 _roleId)\n    public\n    view\n    returns(bool)\n  {\n    return (roles[_roleId].exists);\n  }\n\n  /**\n    * @notice A method to verify whether an member is a member of a role\n    * @param _member The member to verify.\n    * @param _roleId The role to look into.\n    * @return Whether the member is a member of the role.\n    */\n  function hasRole(address _member, bytes32 _roleId)\n    public\n    view\n    returns(bool)\n  {\n    require(roleExists(_roleId), \"Role doesn't exist.\");\n    return roles[_roleId].members[_member];\n  }\n\n  /**\n  * @notice A method to create a new role.\n  * @param _roleId The id for role that is being created\n  * @param _adminRoleId The role that is allowed to add and remove members from\n  * the role being created.\n  */\n  function addRole(bytes32 _roleId, bytes32 _adminRoleId)\n    public\n  {\n    // require(_roleId != NO_ROLE, \"Reserved role id.\");\n    require(!roleExists(_roleId), \"Role already exists.\");\n    require(roleExists(_adminRoleId), \"Admin role doesn't exist.\");\n\n    roles[_roleId] = Role({ exists: true, adminRoleId: _adminRoleId });\n    emit RoleCreated(_roleId);\n  }\n\n  /**\n  * @notice A method to add a member to a role\n  * @param _member The member to add as a member.\n  * @param _roleId The role to add the member to.\n  */\n  function addMember(address _member, bytes32 _roleId)\n    public\n  {\n  require(roleExists(_roleId), \"Role doesn't exist.\");\n  require(\n    hasRole(msg.sender, roles[_roleId].adminRoleId),\n    \"User can't add members.\"\n  );\n\n  require(\n    !hasRole(_member, _roleId),\n    \"Address is member of role.\"\n  );\n\n    roles[_roleId].members[_member] = true;\n    emit MemberAdded(_member, _roleId);\n  }\n\n    /**\n     * @notice A method to remove a member from a role\n     * @param _member The member to remove as a member.\n     * @param _roleId The role to remove the member from.\n     */\n  function removeMember(address _member, bytes32 _roleId)\n    public\n  {\n    require(roleExists(_roleId), \"Role doesn't exist.\");\n    \n    require(\n      hasRole(msg.sender, roles[_roleId].adminRoleId),\n      \"User can't remove members.\"\n    );\n\n    require(\n      hasRole(_member, _roleId),\n      \"Address is not member of role.\"\n    );\n\n    delete roles[_roleId].members[_member];\n    emit MemberRemoved(_member, _roleId);\n  }\n}",
  "sourcePath": "/Users/daniyal/Documents/Development/solidity/anatoken-app/contracts/access-control/RBAC.sol",
  "compiler": {
    "name": "solc",
    "version": "0.5.12+commit.7709ece9.Emscripten.clang"
  },
  "schemaVersion": "3.0.19",
  "updatedAt": "2020-01-29T12:14:56.652Z",
  "devdoc": {
    "author": "Alberto Cuesta Canada",
    "methods": {
      "addMember(address,bytes32)": {
        "params": {
          "_member": "The member to add as a member.",
          "_roleId": "The role to add the member to."
        }
      },
      "addRole(bytes32,bytes32)": {
        "params": {
          "_adminRoleId": "The role that is allowed to add and remove members from the role being created.",
          "_roleId": "The id for role that is being created"
        }
      },
      "hasRole(address,bytes32)": {
        "params": {
          "_member": "The member to verify.",
          "_roleId": "The role to look into."
        },
        "return": "Whether the member is a member of the role."
      },
      "removeMember(address,bytes32)": {
        "params": {
          "_member": "The member to remove as a member.",
          "_roleId": "The role to remove the member from."
        }
      },
      "roleExists(bytes32)": {
        "details": "roleExists of NO_ROLE returns false.",
        "params": {
          "_roleId": "The id of the role being verified."
        },
        "return": "True or false."
      }
    },
    "title": "RBAC"
  },
  "userdoc": {
    "methods": {
      "addMember(address,bytes32)": {
        "notice": "A method to add a member to a role"
      },
      "addRole(bytes32,bytes32)": {
        "notice": "A method to create a new role."
      },
      "constructor": "The contract initializer. It adds NO_ROLE as with role id 0x0, and ROOT_ROLE with role id 'ROOT'.",
      "hasRole(address,bytes32)": {
        "notice": "A method to verify whether an member is a member of a role"
      },
      "removeMember(address,bytes32)": {
        "notice": "A method to remove a member from a role"
      },
      "roleExists(bytes32)": {
        "notice": "A method to verify if a role exists."
      }
    },
    "notice": "Implements runtime configurable Role Based Access Control."
  }
}