{
  "contractName": "RBAC",
  "abi": [
    {
      "inputs": [
        {
          "internalType": "address",
          "name": "_root",
          "type": "address"
        }
      ],
      "payable": false,
      "stateMutability": "nonpayable",
      "type": "constructor"
    },
    {
      "anonymous": false,
      "inputs": [
        {
          "indexed": false,
          "internalType": "address",
          "name": "member",
          "type": "address"
        },
        {
          "indexed": false,
          "internalType": "bytes32",
          "name": "roleId",
          "type": "bytes32"
        }
      ],
      "name": "MemberAdded",
      "type": "event"
    },
    {
      "anonymous": false,
      "inputs": [
        {
          "indexed": false,
          "internalType": "address",
          "name": "member",
          "type": "address"
        },
        {
          "indexed": false,
          "internalType": "bytes32",
          "name": "roleId",
          "type": "bytes32"
        }
      ],
      "name": "MemberRemoved",
      "type": "event"
    },
    {
      "anonymous": false,
      "inputs": [
        {
          "indexed": false,
          "internalType": "bytes32",
          "name": "roleId",
          "type": "bytes32"
        }
      ],
      "name": "RoleCreated",
      "type": "event"
    },
    {
      "anonymous": false,
      "inputs": [
        {
          "indexed": false,
          "internalType": "bytes32",
          "name": "roleId",
          "type": "bytes32"
        }
      ],
      "name": "RoleRemoved",
      "type": "event"
    },
    {
      "constant": true,
      "inputs": [],
      "name": "ROOT_ROLE",
      "outputs": [
        {
          "internalType": "bytes32",
          "name": "",
          "type": "bytes32"
        }
      ],
      "payable": false,
      "stateMutability": "view",
      "type": "function"
    },
    {
      "constant": true,
      "inputs": [
        {
          "internalType": "bytes32",
          "name": "_roleId",
          "type": "bytes32"
        }
      ],
      "name": "roleExists",
      "outputs": [
        {
          "internalType": "bool",
          "name": "",
          "type": "bool"
        }
      ],
      "payable": false,
      "stateMutability": "view",
      "type": "function"
    },
    {
      "constant": true,
      "inputs": [
        {
          "internalType": "address",
          "name": "_member",
          "type": "address"
        },
        {
          "internalType": "bytes32",
          "name": "_roleId",
          "type": "bytes32"
        }
      ],
      "name": "hasRole",
      "outputs": [
        {
          "internalType": "bool",
          "name": "",
          "type": "bool"
        }
      ],
      "payable": false,
      "stateMutability": "view",
      "type": "function"
    },
    {
      "constant": false,
      "inputs": [
        {
          "internalType": "bytes32",
          "name": "_roleId",
          "type": "bytes32"
        },
        {
          "internalType": "bytes32",
          "name": "_adminRoleId",
          "type": "bytes32"
        }
      ],
      "name": "addRole",
      "outputs": [],
      "payable": false,
      "stateMutability": "nonpayable",
      "type": "function"
    },
    {
      "constant": false,
      "inputs": [
        {
          "internalType": "address",
          "name": "_member",
          "type": "address"
        },
        {
          "internalType": "bytes32",
          "name": "_roleId",
          "type": "bytes32"
        }
      ],
      "name": "addMember",
      "outputs": [
        {
          "internalType": "bool",
          "name": "",
          "type": "bool"
        }
      ],
      "payable": false,
      "stateMutability": "nonpayable",
      "type": "function"
    },
    {
      "constant": false,
      "inputs": [
        {
          "internalType": "address",
          "name": "_member",
          "type": "address"
        },
        {
          "internalType": "bytes32",
          "name": "_roleId",
          "type": "bytes32"
        }
      ],
      "name": "removeMember",
      "outputs": [],
      "payable": false,
      "stateMutability": "nonpayable",
      "type": "function"
    }
  ],
  "bytecode": "0x608060405234801561001057600080fd5b50604051610b9b380380610b9b8339818101604052602081101561003357600080fd5b810190808051906020019092919050505060405180604001604052806001151581526020017f524f4f54000000000000000000000000000000000000000000000000000000008152506000807f524f4f5400000000000000000000000000000000000000000000000000000000815260200190815260200160002060008201518160000160006101000a81548160ff021916908315150217905550602082015181600101559050507f41ae852bd4986bdb048f0e9fe3e32c8d368d22693a4853f4bb5d6eb35f563f7a7f524f4f54000000000000000000000000000000000000000000000000000000006040518082815260200191505060405180910390a160016000807f524f4f5400000000000000000000000000000000000000000000000000000000815260200190815260200160002060020160008373ffffffffffffffffffffffffffffffffffffffff1673ffffffffffffffffffffffffffffffffffffffff16815260200190815260200160002060006101000a81548160ff0219169083151502179055507fefa218b911bf678a6f21f2b3d02057e2eccecfd8a6310eeb77b66e4cb37e9025817f524f4f5400000000000000000000000000000000000000000000000000000000604051808373ffffffffffffffffffffffffffffffffffffffff1673ffffffffffffffffffffffffffffffffffffffff1681526020018281526020019250505060405180910390a150610943806102586000396000f3fe608060405234801561001057600080fd5b50600436106100625760003560e01c806306323f8d1461006757806349df72081461009f5780637e8c7f0814610105578063ac4ab3fb14610123578063b41406f914610189578063ca7ca5b4146101cf575b600080fd5b61009d6004803603604081101561007d57600080fd5b81019080803590602001909291908035906020019092919050505061021d565b005b6100eb600480360360408110156100b557600080fd5b81019080803573ffffffffffffffffffffffffffffffffffffffff169060200190929190803590602001909291905050506103a6565b604051808215151515815260200191505060405180910390f35b61010d610580565b6040518082815260200191505060405180910390f35b61016f6004803603604081101561013957600080fd5b81019080803573ffffffffffffffffffffffffffffffffffffffff169060200190929190803590602001909291905050506105a4565b604051808215151515815260200191505060405180910390f35b6101b56004803603602081101561019f57600080fd5b8101908080359060200190929190505050610689565b604051808215151515815260200191505060405180910390f35b61021b600480360360408110156101e557600080fd5b81019080803573ffffffffffffffffffffffffffffffffffffffff169060200190929190803590602001909291905050506106b5565b005b61022682610689565b15610299576040517f08c379a00000000000000000000000000000000000000000000000000000000081526004018080602001828103825260148152602001807f526f6c6520616c7265616479206578697374732e00000000000000000000000081525060200191505060405180910390fd5b6102a281610689565b610314576040517f08c379a00000000000000000000000000000000000000000000000000000000081526004018080602001828103825260198152602001807f41646d696e20726f6c6520646f65736e27742065786973742e0000000000000081525060200191505060405180910390fd5b60405180604001604052806001151581526020018281525060008084815260200190815260200160002060008201518160000160006101000a81548160ff021916908315150217905550602082015181600101559050507f41ae852bd4986bdb048f0e9fe3e32c8d368d22693a4853f4bb5d6eb35f563f7a826040518082815260200191505060405180910390a15050565b60006103b182610689565b610423576040517f08c379a00000000000000000000000000000000000000000000000000000000081526004018080602001828103825260138152602001807f526f6c6520646f65736e27742065786973742e0000000000000000000000000081525060200191505060405180910390fd5b61042d83836105a4565b156104a0576040517f08c379a000000000000000000000000000000000000000000000000000000000815260040180806020018281038252601a8152602001807f41646472657373206973206d656d626572206f6620726f6c652e00000000000081525060200191505060405180910390fd5b600160008084815260200190815260200160002060020160008573ffffffffffffffffffffffffffffffffffffffff1673ffffffffffffffffffffffffffffffffffffffff16815260200190815260200160002060006101000a81548160ff0219169083151502179055507fefa218b911bf678a6f21f2b3d02057e2eccecfd8a6310eeb77b66e4cb37e90258383604051808373ffffffffffffffffffffffffffffffffffffffff1673ffffffffffffffffffffffffffffffffffffffff1681526020018281526020019250505060405180910390a16001905092915050565b7f524f4f540000000000000000000000000000000000000000000000000000000081565b60006105af82610689565b610621576040517f08c379a00000000000000000000000000000000000000000000000000000000081526004018080602001828103825260138152602001807f526f6c6520646f65736e27742065786973742e0000000000000000000000000081525060200191505060405180910390fd5b60008083815260200190815260200160002060020160008473ffffffffffffffffffffffffffffffffffffffff1673ffffffffffffffffffffffffffffffffffffffff16815260200190815260200160002060009054906101000a900460ff16905092915050565b600080600083815260200190815260200160002060000160009054906101000a900460ff169050919050565b6106be81610689565b610730576040517f08c379a00000000000000000000000000000000000000000000000000000000081526004018080602001828103825260138152602001807f526f6c6520646f65736e27742065786973742e0000000000000000000000000081525060200191505060405180910390fd5b61074f33600080848152602001908152602001600020600101546105a4565b6107c1576040517f08c379a000000000000000000000000000000000000000000000000000000000815260040180806020018281038252601a8152602001807f557365722063616e27742072656d6f7665206d656d626572732e00000000000081525060200191505060405180910390fd5b6107cb82826105a4565b61083d576040517f08c379a000000000000000000000000000000000000000000000000000000000815260040180806020018281038252601e8152602001807f41646472657373206973206e6f74206d656d626572206f6620726f6c652e000081525060200191505060405180910390fd5b60008082815260200190815260200160002060020160008373ffffffffffffffffffffffffffffffffffffffff1673ffffffffffffffffffffffffffffffffffffffff16815260200190815260200160002060006101000a81549060ff02191690557fbd1f9a02c9ef3c31bebe4c93654b10bf2693f6db933277e6896355ae68c8aac78282604051808373ffffffffffffffffffffffffffffffffffffffff1673ffffffffffffffffffffffffffffffffffffffff1681526020018281526020019250505060405180910390a1505056fea265627a7a72315820ccb579045d4d516dc4cf634547585712d3e5c4f5d26f44f9b5ddb6e0039d3f1764736f6c63430005100032",
  "source": "pragma solidity ^0.5.10;\r\n\r\n/**\r\n * @title RBAC\r\n * @author Alberto Cuesta Canada\r\n * @notice Implements runtime configurable Role Based Access Control.\r\n */\r\ncontract RBAC {\r\n  event RoleCreated(bytes32 roleId);\r\n  event RoleRemoved(bytes32 roleId);\r\n  event MemberAdded(address member, bytes32 roleId);\r\n  event MemberRemoved(address member, bytes32 roleId);\r\n\r\n  bytes32 public constant ROOT_ROLE = \"ROOT\";\r\n  mapping (bytes32 => Role) internal roles;\r\n\r\n  /**\r\n    * @notice A role, which will be used to group users.\r\n    * @dev The role id is its position in the roles array.\r\n    * @param admin The only role that can add or remove members from this role. To have the role\r\n    * members to be also the role admins you should pass roles.length as the admin role.\r\n    * @param members Addresses belonging to this role.\r\n    */\r\n  struct Role {\r\n    bool exists;\r\n    bytes32 adminRoleId;\r\n    mapping (address => bool) members;\r\n  }\r\n\r\n  /**\r\n  * @notice The contract initializer. It adds NO_ROLE as with role id 0x0, and ROOT_ROLE with role id 'ROOT'.\r\n  */\r\n  constructor(address _root) public {\r\n    roles[ROOT_ROLE] = Role({ exists: true, adminRoleId: ROOT_ROLE });\r\n\r\n    emit RoleCreated(ROOT_ROLE);\r\n    roles[ROOT_ROLE].members[_root] = true;\r\n    emit MemberAdded(_root, ROOT_ROLE);\r\n  }\r\n\r\n  /**\r\n  * @notice A method to verify if a role exists.\r\n  * @param _roleId The id of the role being verified.\r\n  * @return True or false.\r\n  * @dev roleExists of NO_ROLE returns false.\r\n  */\r\n  function roleExists(bytes32 _roleId)\r\n    public\r\n    view\r\n    returns(bool)\r\n  {\r\n    return (roles[_roleId].exists);\r\n  }\r\n\r\n  /**\r\n    * @notice A method to verify whether an member is a member of a role\r\n    * @param _member The member to verify.\r\n    * @param _roleId The role to look into.\r\n    * @return Whether the member is a member of the role.\r\n    */\r\n  function hasRole(address _member, bytes32 _roleId)\r\n    public\r\n    view\r\n    returns(bool)\r\n  {\r\n    require(roleExists(_roleId), \"Role doesn't exist.\");\r\n    return roles[_roleId].members[_member];\r\n  }\r\n\r\n  /**\r\n  * @notice A method to create a new role.\r\n  * @param _roleId The id for role that is being created\r\n  * @param _adminRoleId The role that is allowed to add and remove members from\r\n  * the role being created.\r\n  */\r\n  function addRole(bytes32 _roleId, bytes32 _adminRoleId)\r\n    public\r\n  {\r\n    // require(_roleId != NO_ROLE, \"Reserved role id.\");\r\n    require(!roleExists(_roleId), \"Role already exists.\");\r\n    require(roleExists(_adminRoleId), \"Admin role doesn't exist.\");\r\n\r\n    roles[_roleId] = Role({ exists: true, adminRoleId: _adminRoleId });\r\n    emit RoleCreated(_roleId);\r\n  }\r\n\r\n  /**\r\n  * @notice A method to add a member to a role\r\n  * @param _member The member to add as a member.\r\n  * @param _roleId The role to add the member to.\r\n  */\r\n  function addMember(address _member, bytes32 _roleId)\r\n    public\r\n    returns(bool)\r\n  {\r\n  require(roleExists(_roleId), \"Role doesn't exist.\");\r\n\r\n  require(\r\n    !hasRole(_member, _roleId),\r\n    \"Address is member of role.\"\r\n  );\r\n\r\n    roles[_roleId].members[_member] = true;\r\n    emit MemberAdded(_member, _roleId);\r\n\r\n    return true;\r\n  }\r\n\r\n    /**\r\n     * @notice A method to remove a member from a role\r\n     * @param _member The member to remove as a member.\r\n     * @param _roleId The role to remove the member from.\r\n     */\r\n  function removeMember(address _member, bytes32 _roleId)\r\n    public\r\n  {\r\n    require(roleExists(_roleId), \"Role doesn't exist.\");\r\n    \r\n    require(\r\n      hasRole(msg.sender, roles[_roleId].adminRoleId),\r\n      \"User can't remove members.\"\r\n    );\r\n\r\n    require(\r\n      hasRole(_member, _roleId),\r\n      \"Address is not member of role.\"\r\n    );\r\n\r\n    delete roles[_roleId].members[_member];\r\n    emit MemberRemoved(_member, _roleId);\r\n  }\r\n}",
  "sourcePath": "C:\\Users\\prush\\Documents\\git\\Dapp\\contracts\\access-control\\RBAC.sol",
  "compiler": {
    "name": "solc",
    "version": "0.5.16+commit.9c3226ce.Emscripten.clang"
  },
  "schemaVersion": "3.0.21",
  "updatedAt": "2020-02-05T13:43:25.245Z",
  "devdoc": {
    "author": "Alberto Cuesta Canada",
    "methods": {
      "addMember(address,bytes32)": {
        "params": {
          "_member": "The member to add as a member.",
          "_roleId": "The role to add the member to."
        }
      },
      "addRole(bytes32,bytes32)": {
        "params": {
          "_adminRoleId": "The role that is allowed to add and remove members from the role being created.",
          "_roleId": "The id for role that is being created"
        }
      },
      "hasRole(address,bytes32)": {
        "params": {
          "_member": "The member to verify.",
          "_roleId": "The role to look into."
        },
        "return": "Whether the member is a member of the role."
      },
      "removeMember(address,bytes32)": {
        "params": {
          "_member": "The member to remove as a member.",
          "_roleId": "The role to remove the member from."
        }
      },
      "roleExists(bytes32)": {
        "details": "roleExists of NO_ROLE returns false.",
        "params": {
          "_roleId": "The id of the role being verified."
        },
        "return": "True or false."
      }
    },
    "title": "RBAC"
  },
  "userdoc": {
    "methods": {
      "addMember(address,bytes32)": {
        "notice": "A method to add a member to a role"
      },
      "addRole(bytes32,bytes32)": {
        "notice": "A method to create a new role."
      },
      "constructor": "The contract initializer. It adds NO_ROLE as with role id 0x0, and ROOT_ROLE with role id 'ROOT'.",
      "hasRole(address,bytes32)": {
        "notice": "A method to verify whether an member is a member of a role"
      },
      "removeMember(address,bytes32)": {
        "notice": "A method to remove a member from a role"
      },
      "roleExists(bytes32)": {
        "notice": "A method to verify if a role exists."
      }
    },
    "notice": "Implements runtime configurable Role Based Access Control."
  }
}