{
  "contractName": "RBACExtend",
  "abi": [
    {
      "inputs": [],
      "payable": false,
      "stateMutability": "nonpayable",
      "type": "constructor"
    },
    {
      "anonymous": false,
      "inputs": [
        {
          "indexed": false,
          "internalType": "address",
          "name": "user",
          "type": "address"
        },
        {
          "indexed": false,
          "internalType": "string",
          "name": "role",
          "type": "string"
        },
        {
          "indexed": false,
          "internalType": "bool",
          "name": "succeeded",
          "type": "bool"
        }
      ],
      "name": "userAddedtoRole",
      "type": "event"
    },
    {
      "constant": true,
      "inputs": [
        {
          "internalType": "string",
          "name": "roleId",
          "type": "string"
        }
      ],
      "name": "userHasRole",
      "outputs": [
        {
          "internalType": "bool",
          "name": "",
          "type": "bool"
        }
      ],
      "payable": false,
      "stateMutability": "view",
      "type": "function"
    },
    {
      "constant": false,
      "inputs": [
        {
          "internalType": "address",
          "name": "user",
          "type": "address"
        },
        {
          "internalType": "string",
          "name": "roleId",
          "type": "string"
        }
      ],
      "name": "addUserToRole",
      "outputs": [],
      "payable": false,
      "stateMutability": "nonpayable",
      "type": "function"
    },
    {
      "constant": true,
      "inputs": [
        {
          "internalType": "string",
          "name": "source",
          "type": "string"
        }
      ],
      "name": "stringToBytes32",
      "outputs": [
        {
          "internalType": "bytes32",
          "name": "result",
          "type": "bytes32"
        }
      ],
      "payable": false,
      "stateMutability": "pure",
      "type": "function"
    }
  ],
  "bytecode": "0x608060405234801561001057600080fd5b503360405161001e9061042e565b808273ffffffffffffffffffffffffffffffffffffffff1673ffffffffffffffffffffffffffffffffffffffff168152602001915050604051809103906000f080158015610070573d6000803e3d6000fd5b506000806101000a81548173ffffffffffffffffffffffffffffffffffffffff021916908373ffffffffffffffffffffffffffffffffffffffff1602179055506000809054906101000a900473ffffffffffffffffffffffffffffffffffffffff1673ffffffffffffffffffffffffffffffffffffffff166306323f8d6101316040518060400160405280600981526020017f636f6c6c6563746f72000000000000000000000000000000000000000000000081525061040360201b60201c565b6101756040518060400160405280600481526020017f524f4f540000000000000000000000000000000000000000000000000000000081525061040360201b60201c565b6040518363ffffffff1660e01b81526004018083815260200182815260200192505050600060405180830381600087803b1580156101b257600080fd5b505af11580156101c6573d6000803e3d6000fd5b505050506000809054906101000a900473ffffffffffffffffffffffffffffffffffffffff1673ffffffffffffffffffffffffffffffffffffffff166306323f8d61024b6040518060400160405280600a81526020017f756e69766572736974790000000000000000000000000000000000000000000081525061040360201b60201c565b61028f6040518060400160405280600481526020017f524f4f540000000000000000000000000000000000000000000000000000000081525061040360201b60201c565b6040518363ffffffff1660e01b81526004018083815260200182815260200192505050600060405180830381600087803b1580156102cc57600080fd5b505af11580156102e0573d6000803e3d6000fd5b505050506000809054906101000a900473ffffffffffffffffffffffffffffffffffffffff1673ffffffffffffffffffffffffffffffffffffffff166306323f8d6103656040518060400160405280600c81526020017f72656379636c65506c616e74000000000000000000000000000000000000000081525061040360201b60201c565b6103a96040518060400160405280600481526020017f524f4f540000000000000000000000000000000000000000000000000000000081525061040360201b60201c565b6040518363ffffffff1660e01b81526004018083815260200182815260200192505050600060405180830381600087803b1580156103e657600080fd5b505af11580156103fa573d6000803e3d6000fd5b5050505061043b565b60006060829050600081511415610420576000801b915050610429565b60208301519150505b919050565b610b9b80610a2f83390190565b6105e58061044a6000396000f3fe608060405234801561001057600080fd5b50600436106100415760003560e01c8063a0d08eca14610046578063bf68d88f14610119578063cfb51928146101f4575b600080fd5b6100ff6004803603602081101561005c57600080fd5b810190808035906020019064010000000081111561007957600080fd5b82018360208201111561008b57600080fd5b803590602001918460018302840111640100000000831117156100ad57600080fd5b91908080601f016020809104026020016040519081016040528093929190818152602001838380828437600081840152601f19601f8201169050808301925050505050505091929192905050506102c3565b604051808215151515815260200191505060405180910390f35b6101f26004803603604081101561012f57600080fd5b81019080803573ffffffffffffffffffffffffffffffffffffffff1690602001909291908035906020019064010000000081111561016c57600080fd5b82018360208201111561017e57600080fd5b803590602001918460018302840111640100000000831117156101a057600080fd5b91908080601f016020809104026020016040519081016040528093929190818152602001838380828437600081840152601f19601f8201169050808301925050505050505091929192905050506103b5565b005b6102ad6004803603602081101561020a57600080fd5b810190808035906020019064010000000081111561022757600080fd5b82018360208201111561023957600080fd5b8035906020019184600183028401116401000000008311171561025b57600080fd5b91908080601f016020809104026020016040519081016040528093929190818152602001838380828437600081840152601f19601f820116905080830192505050505050509192919290505050610585565b6040518082815260200191505060405180910390f35b60008060009054906101000a900473ffffffffffffffffffffffffffffffffffffffff1673ffffffffffffffffffffffffffffffffffffffff1663ac4ab3fb3361030c85610585565b6040518363ffffffff1660e01b8152600401808373ffffffffffffffffffffffffffffffffffffffff1673ffffffffffffffffffffffffffffffffffffffff1681526020018281526020019250505060206040518083038186803b15801561037357600080fd5b505afa158015610387573d6000803e3d6000fd5b505050506040513d602081101561039d57600080fd5b81019080805190602001909291905050509050919050565b60008060009054906101000a900473ffffffffffffffffffffffffffffffffffffffff1673ffffffffffffffffffffffffffffffffffffffff166349df7208846103fe85610585565b6040518363ffffffff1660e01b8152600401808373ffffffffffffffffffffffffffffffffffffffff1673ffffffffffffffffffffffffffffffffffffffff16815260200182815260200192505050602060405180830381600087803b15801561046757600080fd5b505af115801561047b573d6000803e3d6000fd5b505050506040513d602081101561049157600080fd5b810190808051906020019092919050505090507f7f11883895c97395ad441bd9afc83615a6c1ce95637e458e7e5b12ec26c9d80f838383604051808473ffffffffffffffffffffffffffffffffffffffff1673ffffffffffffffffffffffffffffffffffffffff1681526020018060200183151515158152602001828103825284818151815260200191508051906020019080838360005b83811015610544578082015181840152602081019050610529565b50505050905090810190601f1680156105715780820380516001836020036101000a031916815260200191505b5094505050505060405180910390a1505050565b600060608290506000815114156105a2576000801b9150506105ab565b60208301519150505b91905056fea265627a7a72315820c0b76bb0048091d3f82296bbd00292bddc9153c37565bc7231137b731a9a8acb64736f6c634300050c0032608060405234801561001057600080fd5b50604051610b9b380380610b9b8339818101604052602081101561003357600080fd5b810190808051906020019092919050505060405180604001604052806001151581526020017f524f4f54000000000000000000000000000000000000000000000000000000008152506000807f524f4f5400000000000000000000000000000000000000000000000000000000815260200190815260200160002060008201518160000160006101000a81548160ff021916908315150217905550602082015181600101559050507f41ae852bd4986bdb048f0e9fe3e32c8d368d22693a4853f4bb5d6eb35f563f7a7f524f4f54000000000000000000000000000000000000000000000000000000006040518082815260200191505060405180910390a160016000807f524f4f5400000000000000000000000000000000000000000000000000000000815260200190815260200160002060020160008373ffffffffffffffffffffffffffffffffffffffff1673ffffffffffffffffffffffffffffffffffffffff16815260200190815260200160002060006101000a81548160ff0219169083151502179055507fefa218b911bf678a6f21f2b3d02057e2eccecfd8a6310eeb77b66e4cb37e9025817f524f4f5400000000000000000000000000000000000000000000000000000000604051808373ffffffffffffffffffffffffffffffffffffffff1673ffffffffffffffffffffffffffffffffffffffff1681526020018281526020019250505060405180910390a150610943806102586000396000f3fe608060405234801561001057600080fd5b50600436106100625760003560e01c806306323f8d1461006757806349df72081461009f5780637e8c7f0814610105578063ac4ab3fb14610123578063b41406f914610189578063ca7ca5b4146101cf575b600080fd5b61009d6004803603604081101561007d57600080fd5b81019080803590602001909291908035906020019092919050505061021d565b005b6100eb600480360360408110156100b557600080fd5b81019080803573ffffffffffffffffffffffffffffffffffffffff169060200190929190803590602001909291905050506103a6565b604051808215151515815260200191505060405180910390f35b61010d610580565b6040518082815260200191505060405180910390f35b61016f6004803603604081101561013957600080fd5b81019080803573ffffffffffffffffffffffffffffffffffffffff169060200190929190803590602001909291905050506105a4565b604051808215151515815260200191505060405180910390f35b6101b56004803603602081101561019f57600080fd5b8101908080359060200190929190505050610689565b604051808215151515815260200191505060405180910390f35b61021b600480360360408110156101e557600080fd5b81019080803573ffffffffffffffffffffffffffffffffffffffff169060200190929190803590602001909291905050506106b5565b005b61022682610689565b15610299576040517f08c379a00000000000000000000000000000000000000000000000000000000081526004018080602001828103825260148152602001807f526f6c6520616c7265616479206578697374732e00000000000000000000000081525060200191505060405180910390fd5b6102a281610689565b610314576040517f08c379a00000000000000000000000000000000000000000000000000000000081526004018080602001828103825260198152602001807f41646d696e20726f6c6520646f65736e27742065786973742e0000000000000081525060200191505060405180910390fd5b60405180604001604052806001151581526020018281525060008084815260200190815260200160002060008201518160000160006101000a81548160ff021916908315150217905550602082015181600101559050507f41ae852bd4986bdb048f0e9fe3e32c8d368d22693a4853f4bb5d6eb35f563f7a826040518082815260200191505060405180910390a15050565b60006103b182610689565b610423576040517f08c379a00000000000000000000000000000000000000000000000000000000081526004018080602001828103825260138152602001807f526f6c6520646f65736e27742065786973742e0000000000000000000000000081525060200191505060405180910390fd5b61042d83836105a4565b156104a0576040517f08c379a000000000000000000000000000000000000000000000000000000000815260040180806020018281038252601a8152602001807f41646472657373206973206d656d626572206f6620726f6c652e00000000000081525060200191505060405180910390fd5b600160008084815260200190815260200160002060020160008573ffffffffffffffffffffffffffffffffffffffff1673ffffffffffffffffffffffffffffffffffffffff16815260200190815260200160002060006101000a81548160ff0219169083151502179055507fefa218b911bf678a6f21f2b3d02057e2eccecfd8a6310eeb77b66e4cb37e90258383604051808373ffffffffffffffffffffffffffffffffffffffff1673ffffffffffffffffffffffffffffffffffffffff1681526020018281526020019250505060405180910390a16001905092915050565b7f524f4f540000000000000000000000000000000000000000000000000000000081565b60006105af82610689565b610621576040517f08c379a00000000000000000000000000000000000000000000000000000000081526004018080602001828103825260138152602001807f526f6c6520646f65736e27742065786973742e0000000000000000000000000081525060200191505060405180910390fd5b60008083815260200190815260200160002060020160008473ffffffffffffffffffffffffffffffffffffffff1673ffffffffffffffffffffffffffffffffffffffff16815260200190815260200160002060009054906101000a900460ff16905092915050565b600080600083815260200190815260200160002060000160009054906101000a900460ff169050919050565b6106be81610689565b610730576040517f08c379a00000000000000000000000000000000000000000000000000000000081526004018080602001828103825260138152602001807f526f6c6520646f65736e27742065786973742e0000000000000000000000000081525060200191505060405180910390fd5b61074f33600080848152602001908152602001600020600101546105a4565b6107c1576040517f08c379a000000000000000000000000000000000000000000000000000000000815260040180806020018281038252601a8152602001807f557365722063616e27742072656d6f7665206d656d626572732e00000000000081525060200191505060405180910390fd5b6107cb82826105a4565b61083d576040517f08c379a000000000000000000000000000000000000000000000000000000000815260040180806020018281038252601e8152602001807f41646472657373206973206e6f74206d656d626572206f6620726f6c652e000081525060200191505060405180910390fd5b60008082815260200190815260200160002060020160008373ffffffffffffffffffffffffffffffffffffffff1673ffffffffffffffffffffffffffffffffffffffff16815260200190815260200160002060006101000a81549060ff02191690557fbd1f9a02c9ef3c31bebe4c93654b10bf2693f6db933277e6896355ae68c8aac78282604051808373ffffffffffffffffffffffffffffffffffffffff1673ffffffffffffffffffffffffffffffffffffffff1681526020018281526020019250505060405180910390a1505056fea265627a7a72315820c29fea8dfb39ba8c259f4fef2029fa33b4eef859cce04c04bad1c0c68130822164736f6c634300050c0032",
  "source": "pragma solidity ^0.5.12;\nimport \"./RBAC.sol\";\n\n/// @title RBACExtend\n/// @author Djamaile Rahamat\n/// @dev functions build upon the RBAC\ncontract RBACExtend {\n  RBAC internal roles;\n  \n  event userAddedtoRole(address user, string role, bool succeeded);\n\n  constructor() public{\n    roles = new RBAC(msg.sender);\n    roles.addRole(stringToBytes32(\"collector\"), stringToBytes32(\"ROOT\"));\n    roles.addRole(stringToBytes32(\"university\"), stringToBytes32(\"ROOT\"));\n    roles.addRole(stringToBytes32(\"recyclePlant\"), stringToBytes32(\"ROOT\"));\n  }\n  \n  /**\n    * @notice A method that checks if the contract has this role. This is mostly for debugging reasons. \n    * @param roleId The role that we want to check if it exists\n    */\n  function userHasRole(string memory roleId) public view returns (bool){\n    return roles.hasRole(msg.sender, stringToBytes32(roleId));\n  }\n  \n  /**\n    * @notice A method that adds users to a specific role. This function is mostly for the front-end to register universities & plastic recycle plants.  \n    * @param user address of the user \n    * @param roleId role to which user going to be added to \n    */\n  function addUserToRole(address user, string memory roleId) public {\n    bool userAdded = roles.addMember(user, stringToBytes32(roleId));\n\n    emit userAddedtoRole(user, roleId, userAdded);\n  }\n  \n  /**\n    * @notice A method that convert strings to bytes32. RBAC only accepts bytes32 inputs\n    * @param source string that is going to be converted to a byte32\n  */\n  function stringToBytes32(string memory source) public pure returns (bytes32 result) {\n    bytes memory tempEmptyStringTest = bytes(source);\n    if (tempEmptyStringTest.length == 0) {\n      return 0x0;\n    }\n      \n    assembly {\n      result := mload(add(source, 32))\n    }\n  }\n}\n",
  "sourcePath": "/Users/djamaile/Desktop/sideprojects/Dapp/contracts/access-control/RBACExtend.sol",
  "compiler": {
    "name": "solc",
    "version": "0.5.12+commit.7709ece9.Emscripten.clang"
  },
  "schemaVersion": "3.0.20",
  "updatedAt": "2020-02-05T19:09:15.163Z",
  "networkType": "ethereum",
  "devdoc": {
    "author": "Djamaile Rahamat",
    "details": "functions build upon the RBAC",
    "methods": {
      "addUserToRole(address,string)": {
        "params": {
          "roleId": "role to which user going to be added to ",
          "user": "address of the user "
        }
      },
      "stringToBytes32(string)": {
        "params": {
          "source": "string that is going to be converted to a byte32"
        }
      },
      "userHasRole(string)": {
        "params": {
          "roleId": "The role that we want to check if it exists"
        }
      }
    },
    "title": "RBACExtend"
  },
  "userdoc": {
    "methods": {
      "addUserToRole(address,string)": {
        "notice": "A method that adds users to a specific role. This function is mostly for the front-end to register universities & plastic recycle plants.  "
      },
      "stringToBytes32(string)": {
        "notice": "A method that convert strings to bytes32. RBAC only accepts bytes32 inputs"
      },
      "userHasRole(string)": {
        "notice": "A method that checks if the contract has this role. This is mostly for debugging reasons. "
      }
    }
  }
}