{
  "contractName": "Recycle",
  "abi": [
    {
      "inputs": [
        {
          "internalType": "address",
          "name": "RBACAddress",
          "type": "address"
        }
      ],
      "payable": false,
      "stateMutability": "nonpayable",
      "type": "constructor"
    },
    {
      "anonymous": false,
      "inputs": [
        {
          "indexed": false,
          "internalType": "uint256",
          "name": "oldAverageTimeToCollectPlastic",
          "type": "uint256"
        },
        {
          "indexed": false,
          "internalType": "uint256",
          "name": "newAverageTimeToCollectPlastic",
          "type": "uint256"
        },
        {
          "indexed": false,
          "internalType": "address",
          "name": "byAddress",
          "type": "address"
        }
      ],
      "name": "AverageTimeToCollectPlasticIsUpdated",
      "type": "event"
    },
    {
      "anonymous": false,
      "inputs": [
        {
          "indexed": false,
          "internalType": "uint256",
          "name": "oldMinWeight",
          "type": "uint256"
        },
        {
          "indexed": false,
          "internalType": "uint256",
          "name": "minWeight",
          "type": "uint256"
        },
        {
          "indexed": false,
          "internalType": "address",
          "name": "byAddress",
          "type": "address"
        }
      ],
      "name": "MinWeightIsUpdated",
      "type": "event"
    },
    {
      "anonymous": false,
      "inputs": [
        {
          "indexed": false,
          "internalType": "address",
          "name": "collector",
          "type": "address"
        },
        {
          "indexed": false,
          "internalType": "uint256",
          "name": "collectedPlasticId",
          "type": "uint256"
        },
        {
          "indexed": false,
          "internalType": "uint256",
          "name": "collectedPlasticKg",
          "type": "uint256"
        },
        {
          "indexed": false,
          "internalType": "uint256",
          "name": "collectedPlasticDate",
          "type": "uint256"
        },
        {
          "indexed": false,
          "internalType": "uint256",
          "name": "currentAvarageTimeToCollectPlastic",
          "type": "uint256"
        }
      ],
      "name": "PlasticIsAccounted",
      "type": "event"
    },
    {
      "constant": true,
      "inputs": [],
      "name": "averageTimeToCollectPlastic",
      "outputs": [
        {
          "internalType": "uint256",
          "name": "",
          "type": "uint256"
        }
      ],
      "payable": false,
      "stateMutability": "view",
      "type": "function"
    },
    {
      "constant": true,
      "inputs": [],
      "name": "minWeight",
      "outputs": [
        {
          "internalType": "uint256",
          "name": "",
          "type": "uint256"
        }
      ],
      "payable": false,
      "stateMutability": "view",
      "type": "function"
    },
    {
      "constant": true,
      "inputs": [
        {
          "internalType": "uint256",
          "name": "",
          "type": "uint256"
        }
      ],
      "name": "plasticToCollector",
      "outputs": [
        {
          "internalType": "address",
          "name": "",
          "type": "address"
        }
      ],
      "payable": false,
      "stateMutability": "view",
      "type": "function"
    },
    {
      "constant": true,
      "inputs": [
        {
          "internalType": "uint256",
          "name": "",
          "type": "uint256"
        }
      ],
      "name": "plasticToOwner",
      "outputs": [
        {
          "internalType": "address",
          "name": "",
          "type": "address"
        }
      ],
      "payable": false,
      "stateMutability": "view",
      "type": "function"
    },
    {
      "constant": true,
      "inputs": [],
      "name": "rightRole",
      "outputs": [
        {
          "internalType": "bool",
          "name": "",
          "type": "bool"
        }
      ],
      "payable": false,
      "stateMutability": "view",
      "type": "function"
    },
    {
      "constant": true,
      "inputs": [],
      "name": "totalCollectedPlastic",
      "outputs": [
        {
          "internalType": "uint256",
          "name": "",
          "type": "uint256"
        }
      ],
      "payable": false,
      "stateMutability": "view",
      "type": "function"
    },
    {
      "constant": true,
      "inputs": [],
      "name": "roleExampleFunction",
      "outputs": [
        {
          "internalType": "string",
          "name": "",
          "type": "string"
        }
      ],
      "payable": false,
      "stateMutability": "view",
      "type": "function"
    },
    {
      "constant": false,
      "inputs": [],
      "name": "_roleExampleFunction",
      "outputs": [
        {
          "internalType": "string",
          "name": "",
          "type": "string"
        }
      ],
      "payable": true,
      "stateMutability": "payable",
      "type": "function"
    },
    {
      "constant": false,
      "inputs": [
        {
          "internalType": "address",
          "name": "collector",
          "type": "address"
        },
        {
          "internalType": "uint256",
          "name": "kg",
          "type": "uint256"
        }
      ],
      "name": "sendAnaTokenToCollector",
      "outputs": [],
      "payable": true,
      "stateMutability": "payable",
      "type": "function"
    },
    {
      "constant": true,
      "inputs": [
        {
          "internalType": "address",
          "name": "user",
          "type": "address"
        }
      ],
      "name": "getCollectedPlasticFromUser",
      "outputs": [
        {
          "internalType": "uint256",
          "name": "",
          "type": "uint256"
        }
      ],
      "payable": false,
      "stateMutability": "view",
      "type": "function"
    },
    {
      "constant": false,
      "inputs": [
        {
          "internalType": "uint256",
          "name": "newValueAverageTimeToCollectPlastic",
          "type": "uint256"
        }
      ],
      "name": "updateAverageTimeToCollectPlastic",
      "outputs": [],
      "payable": false,
      "stateMutability": "nonpayable",
      "type": "function"
    },
    {
      "constant": false,
      "inputs": [
        {
          "internalType": "uint256",
          "name": "newMinWeight",
          "type": "uint256"
        }
      ],
      "name": "updateMinWeight",
      "outputs": [],
      "payable": false,
      "stateMutability": "nonpayable",
      "type": "function"
    }
  ],
  "bytecode": "0x608060405260026000556000600155600060025534801561001f57600080fd5b50604051610e48380380610e488339818101604052602081101561004257600080fd5b810190808051906020019092919050505080600360016101000a81548173ffffffffffffffffffffffffffffffffffffffff021916908373ffffffffffffffffffffffffffffffffffffffff16021790555050610da4806100a46000396000f3fe6080604052600436106100a75760003560e01c806366ad05d61161006457806366ad05d61461031b5780636dcbdd6414610356578063848d0f9a146103a4578063997fb43214610409578063b6ba4d7f14610434578063e55069b21461045f576100a7565b80630c2ee55e146100ac578063299bf6ae146100d75780633ad69bec1461015a5780633e5d470b146101ea5780636128de1014610225578063648c9914146102a0575b600080fd5b3480156100b857600080fd5b506100c161048e565b6040518082815260200191505060405180910390f35b6100df610494565b6040518080602001828103825283818151815260200191508051906020019080838360005b8381101561011f578082015181840152602081019050610104565b50505050905090810190601f16801561014c5780820380516001836020036101000a031916815260200191505b509250505060405180910390f35b34801561016657600080fd5b5061016f6104a2565b6040518080602001828103825283818151815260200191508051906020019080838360005b838110156101af578082015181840152602081019050610194565b50505050905090810190601f1680156101dc5780820380516001836020036101000a031916815260200191505b509250505060405180910390f35b3480156101f657600080fd5b506102236004803603602081101561020d57600080fd5b8101908080359060200190929190505050610630565b005b34801561023157600080fd5b5061025e6004803603602081101561024857600080fd5b81019080803590602001909291905050506106b7565b604051808273ffffffffffffffffffffffffffffffffffffffff1673ffffffffffffffffffffffffffffffffffffffff16815260200191505060405180910390f35b3480156102ac57600080fd5b506102d9600480360360208110156102c357600080fd5b81019080803590602001909291905050506106ea565b604051808273ffffffffffffffffffffffffffffffffffffffff1673ffffffffffffffffffffffffffffffffffffffff16815260200191505060405180910390f35b34801561032757600080fd5b506103546004803603602081101561033e57600080fd5b810190808035906020019092919050505061071d565b005b6103a26004803603604081101561036c57600080fd5b81019080803573ffffffffffffffffffffffffffffffffffffffff169060200190929190803590602001909291905050506107a3565b005b3480156103b057600080fd5b506103f3600480360360208110156103c757600080fd5b81019080803573ffffffffffffffffffffffffffffffffffffffff1690602001909291905050506107b1565b6040518082815260200191505060405180910390f35b34801561041557600080fd5b5061041e61094b565b6040518082815260200191505060405180910390f35b34801561044057600080fd5b50610449610951565b6040518082815260200191505060405180910390f35b34801561046b57600080fd5b50610474610957565b604051808215151515815260200191505060405180910390f35b60025481565b606061049e6104a2565b5090565b6060600360019054906101000a900473ffffffffffffffffffffffffffffffffffffffff1673ffffffffffffffffffffffffffffffffffffffff1663a0d08eca6040518163ffffffff1660e01b81526004018080602001828103825260048152602001807f524f4f540000000000000000000000000000000000000000000000000000000081525060200191505060206040518083038186803b15801561054857600080fd5b505afa15801561055c573d6000803e3d6000fd5b505050506040513d602081101561057257600080fd5b81019080805190602001909291905050506105f5576040517f08c379a000000000000000000000000000000000000000000000000000000000815260040180806020018281038252601b8152602001807f5573657220646f65736e27742068617665207468697320726f6c65000000000081525060200191505060405180910390fd5b6040518060400160405280600881526020017f48617320726f6c65000000000000000000000000000000000000000000000000815250905090565b60006002549050816002819055507fafeb89b04ab16d6b98709c2ec1039c7a1f5c40124182d080f6b7905437145d958160025433604051808481526020018381526020018273ffffffffffffffffffffffffffffffffffffffff1673ffffffffffffffffffffffffffffffffffffffff168152602001935050505060405180910390a15050565b60076020528060005260406000206000915054906101000a900473ffffffffffffffffffffffffffffffffffffffff1681565b60046020528060005260406000206000915054906101000a900473ffffffffffffffffffffffffffffffffffffffff1681565b600080549050816000819055507fab21f94bfaa888b9883bd25d6101f17f348d0fef4b9bd0ee03e09c4f39f2276b8160005433604051808481526020018381526020018273ffffffffffffffffffffffffffffffffffffffff1673ffffffffffffffffffffffffffffffffffffffff168152602001935050505060405180910390a15050565b6107ad828261096a565b5050565b6000600360019054906101000a900473ffffffffffffffffffffffffffffffffffffffff1673ffffffffffffffffffffffffffffffffffffffff1663a0d08eca6040518163ffffffff1660e01b81526004018080602001828103825260098152602001807f636f6c6c6563746f72000000000000000000000000000000000000000000000081525060200191505060206040518083038186803b15801561085757600080fd5b505afa15801561086b573d6000803e3d6000fd5b505050506040513d602081101561088157600080fd5b8101908080519060200190929190505050610904576040517f08c379a000000000000000000000000000000000000000000000000000000000815260040180806020018281038252601b8152602001807f5573657220646f65736e27742068617665207468697320726f6c65000000000081525060200191505060405180910390fd5b600560008373ffffffffffffffffffffffffffffffffffffffff1673ffffffffffffffffffffffffffffffffffffffff168152602001908152602001600020549050919050565b60005481565b60015481565b600360009054906101000a900460ff1681565b600360019054906101000a900473ffffffffffffffffffffffffffffffffffffffff1673ffffffffffffffffffffffffffffffffffffffff1663a0d08eca6040518163ffffffff1660e01b815260040180806020018281038252600c8152602001807f72656379636c65506c616e74000000000000000000000000000000000000000081525060200191505060206040518083038186803b158015610a0e57600080fd5b505afa158015610a22573d6000803e3d6000fd5b505050506040513d6020811015610a3857600080fd5b8101908080519060200190929190505050610abb576040517f08c379a000000000000000000000000000000000000000000000000000000000815260040180806020018281038252601b8152602001807f5573657220646f65736e27742068617665207468697320726f6c65000000000081525060200191505060405180910390fd5b6000610ac5610cff565b90506000429050600660008573ffffffffffffffffffffffffffffffffffffffff1673ffffffffffffffffffffffffffffffffffffffff16815260200190815260200160002060405180608001604052808673ffffffffffffffffffffffffffffffffffffffff168152602001848152602001858152602001838152509080600181540180825580915050906001820390600052602060002090600402016000909192909190915060008201518160000160006101000a81548173ffffffffffffffffffffffffffffffffffffffff021916908373ffffffffffffffffffffffffffffffffffffffff160217905550602082015181600101556040820151816002015560608201518160030155505050836004600084815260200190815260200160002060006101000a81548173ffffffffffffffffffffffffffffffffffffffff021916908373ffffffffffffffffffffffffffffffffffffffff16021790555082600560008673ffffffffffffffffffffffffffffffffffffffff1673ffffffffffffffffffffffffffffffffffffffff168152602001908152602001600020600082825401925050819055507f8a083a4ea9ff73ed10bd2459602c72691f72558bd61e1578b59e4cbd5ce9f09784838584600054604051808673ffffffffffffffffffffffffffffffffffffffff1673ffffffffffffffffffffffffffffffffffffffff1681526020018581526020018481526020018381526020018281526020019550505050505060405180910390a150505050565b6000444142604051602001808481526020018373ffffffffffffffffffffffffffffffffffffffff1673ffffffffffffffffffffffffffffffffffffffff1660601b815260140182815260200193505050506040516020818303038152906040528051906020012060001c90509056fea265627a7a723158208fe65edefac888c76330d7f87e948b99d3cd115943cd12477037f6ab062ba11d64736f6c63430005100032",
  "source": "pragma solidity >=0.4.21 <0.7.0;\r\n\r\nimport \"./access-control/RBACExtend.sol\";\r\n\r\ncontract Recycle {\r\n  uint public averageTimeToCollectPlastic = 2;\r\n  uint public totalCollectedPlastic = 0;\r\n\r\n  uint public minWeight = 0;\r\n\r\n  bool public rightRole;\r\n  RBACExtend roleHelper;\r\n\r\n  struct CollectedPlastic{\r\n    address collector;\r\n    uint id;\r\n    uint kg;\r\n    uint dateCollected;\r\n  }\r\n    \r\n  constructor(address RBACAddress) public {\r\n    roleHelper = RBACExtend(RBACAddress);\r\n  }\r\n\r\n  event PlasticIsAccounted(\r\n    address collector,\r\n    uint collectedPlasticId,\r\n    uint collectedPlasticKg,\r\n    uint collectedPlasticDate,\r\n    uint currentAvarageTimeToCollectPlastic\r\n  );\r\n\r\n  event MinWeightIsUpdated(\r\n    uint oldMinWeight,\r\n    uint minWeight,\r\n    address byAddress\r\n  );\r\n\r\n  event AverageTimeToCollectPlasticIsUpdated(\r\n    uint oldAverageTimeToCollectPlastic,\r\n    uint newAverageTimeToCollectPlastic,\r\n    address byAddress\r\n  );\r\n\r\n  modifier validPlasticWeight(uint _kg) {\r\n    require(_kg > minWeight, \"More plastic is required for minimum valid transaction.\");\r\n    _;\r\n  }\r\n\r\n  mapping(uint => address) public plasticToCollector;\r\n  mapping(address => uint) collectorPlasticCount;\r\n  mapping(address => CollectedPlastic[]) collectorToCollectedPlastic;\r\n\r\n  function _sendAnaTokenToCollector(address _collector, uint _kg) private hasRecyclePlantRole {\r\n    uint256 id = getRandom();\r\n    uint dateCollected = now;\r\n    collectorToCollectedPlastic[_collector].push( CollectedPlastic(_collector, id, _kg, dateCollected));\r\n    plasticToCollector[id] = _collector;\r\n    collectorPlasticCount[_collector] += _kg;\r\n\r\n    // // TODO\r\n    // // D: Delegate, doing the transaction for A, and paying for the gas.\r\n    // uint tokens = _convertKilogramsToAnatoken(_kg);\r\n    // Token.delegatedTransfer(\r\n    //     Nonce,  // N: Nonce\r\n    //     address(this), // A: Sender of the payment\r\n    //     _collector, // B: Recipient of the payment\r\n    //     tokens, // X: Amount of Token T sent from A to B\r\n    //     Y, // Y: Fee paid in Token T, from A to D for the transaction\r\n    //     V,\r\n    //     R,\r\n    //     S\r\n    // );\r\n    emit PlasticIsAccounted(\r\n      _collector,\r\n      id,\r\n      _kg,\r\n      dateCollected,\r\n      averageTimeToCollectPlastic\r\n    );\r\n  }\r\n\r\n  modifier hasCollectorRole { require(roleHelper.userHasRole(\"collector\"), \"User doesn't have this role\"); _;}\r\n  modifier hasRecyclePlantRole { require(roleHelper.userHasRole(\"recyclePlant\"), \"User doesn't have this role\"); _;}\r\n  modifier hasRootRole {require(roleHelper.userHasRole(\"ROOT\"), \"User doesn't have this role\"); _;} //might not be needed\r\n\r\n  /// mappings\r\n  mapping(uint => address) public plasticToOwner;\r\n  mapping(address => uint) ownerPlasticCount;\r\n    \r\n  /*\r\n    * Example function on how to use the RBACExtend contract\r\n  */\r\n  function roleExampleFunction() public hasRootRole view returns(string memory){\r\n    return \"Has role\";\r\n  }\r\n    \r\n  function _roleExampleFunction() public payable  returns (string memory) {\r\n    roleExampleFunction();\r\n  }\r\n\r\n  function sendAnaTokenToCollector(address collector, uint kg) public payable {\r\n    _sendAnaTokenToCollector(collector, kg);\r\n  }\r\n\r\n  function getCollectedPlasticFromUser(address user) external hasCollectorRole view returns (uint) {\r\n    //get all the collected plastic from a user\r\n    return collectorPlasticCount[user];\r\n  }\r\n\r\n  function _convertKilogramsToAnatoken(uint _kg) private view returns(uint anaTokensAmount) {\r\n    return _kg * averageTimeToCollectPlastic;\r\n  }\r\n\r\n  function updateAverageTimeToCollectPlastic(uint newValueAverageTimeToCollectPlastic) public{\r\n    uint oldAverageTimeToCollectPlastic = averageTimeToCollectPlastic;\r\n    averageTimeToCollectPlastic = newValueAverageTimeToCollectPlastic;\r\n  \r\n    emit AverageTimeToCollectPlasticIsUpdated(oldAverageTimeToCollectPlastic, averageTimeToCollectPlastic, msg.sender);\r\n  }\r\n\r\n  function updateMinWeight(uint newMinWeight) public{\r\n    uint oldMinWeight = minWeight;\r\n    minWeight = newMinWeight;\r\n  \r\n    emit MinWeightIsUpdated(oldMinWeight, minWeight, msg.sender);\r\n  }\r\n\r\n  function getRandom() private view returns(uint256) {\r\n    return uint256(keccak256(abi.encodePacked(block.difficulty, block.coinbase, block.timestamp)));\r\n  }\r\n}\r\n\r\n",
  "sourcePath": "C:/Users/prush/Documents/git/Dapp/contracts/Recycle.sol",
  "compiler": {
    "name": "solc",
    "version": "0.5.16+commit.9c3226ce.Emscripten.clang"
  },
  "schemaVersion": "3.0.21",
  "updatedAt": "2020-02-05T13:43:27.813Z",
  "networkType": "ethereum",
  "devdoc": {
    "methods": {}
  },
  "userdoc": {
    "methods": {}
  }
}