{
  "contractName": "Recycle",
  "abi": [
    {
      "inputs": [],
      "payable": false,
      "stateMutability": "nonpayable",
      "type": "constructor"
    },
    {
      "anonymous": false,
      "inputs": [
        {
          "indexed": false,
          "internalType": "uint256",
          "name": "oldAverageTimeToCollectPlastic",
          "type": "uint256"
        },
        {
          "indexed": false,
          "internalType": "uint256",
          "name": "newAverageTimeToCollectPlastic",
          "type": "uint256"
        },
        {
          "indexed": false,
          "internalType": "address",
          "name": "byAddress",
          "type": "address"
        }
      ],
      "name": "AverageTimeToCollectPlasticIsUpdated",
      "type": "event"
    },
    {
      "anonymous": false,
      "inputs": [
        {
          "indexed": false,
          "internalType": "uint256",
          "name": "oldMinWeight",
          "type": "uint256"
        },
        {
          "indexed": false,
          "internalType": "uint256",
          "name": "minWeight",
          "type": "uint256"
        },
        {
          "indexed": false,
          "internalType": "address",
          "name": "byAddress",
          "type": "address"
        }
      ],
      "name": "MinWeightIsUpdated",
      "type": "event"
    },
    {
      "anonymous": false,
      "inputs": [
        {
          "indexed": false,
          "internalType": "address",
          "name": "collector",
          "type": "address"
        },
        {
          "indexed": false,
          "internalType": "uint256",
          "name": "collectedPlasticId",
          "type": "uint256"
        },
        {
          "indexed": false,
          "internalType": "uint256",
          "name": "collectedPlasticKg",
          "type": "uint256"
        },
        {
          "indexed": false,
          "internalType": "uint256",
          "name": "collectedPlasticDate",
          "type": "uint256"
        },
        {
          "indexed": false,
          "internalType": "uint256",
          "name": "currentAvarageTimeToCollectPlastic",
          "type": "uint256"
        }
      ],
      "name": "PlasticIsAccounted",
      "type": "event"
    },
    {
      "constant": true,
      "inputs": [],
      "name": "averageTimeToCollectPlastic",
      "outputs": [
        {
          "internalType": "uint256",
          "name": "",
          "type": "uint256"
        }
      ],
      "payable": false,
      "stateMutability": "view",
      "type": "function"
    },
    {
      "constant": true,
      "inputs": [],
      "name": "minWeight",
      "outputs": [
        {
          "internalType": "uint256",
          "name": "",
          "type": "uint256"
        }
      ],
      "payable": false,
      "stateMutability": "view",
      "type": "function"
    },
    {
      "constant": true,
      "inputs": [
        {
          "internalType": "uint256",
          "name": "",
          "type": "uint256"
        }
      ],
      "name": "plasticToCollector",
      "outputs": [
        {
          "internalType": "address",
          "name": "",
          "type": "address"
        }
      ],
      "payable": false,
      "stateMutability": "view",
      "type": "function"
    },
    {
      "constant": true,
      "inputs": [
        {
          "internalType": "uint256",
          "name": "",
          "type": "uint256"
        }
      ],
      "name": "plasticToOwner",
      "outputs": [
        {
          "internalType": "address",
          "name": "",
          "type": "address"
        }
      ],
      "payable": false,
      "stateMutability": "view",
      "type": "function"
    },
    {
      "constant": true,
      "inputs": [],
      "name": "rightRole",
      "outputs": [
        {
          "internalType": "bool",
          "name": "",
          "type": "bool"
        }
      ],
      "payable": false,
      "stateMutability": "view",
      "type": "function"
    },
    {
      "constant": true,
      "inputs": [],
      "name": "totalCollectedPlastic",
      "outputs": [
        {
          "internalType": "uint256",
          "name": "",
          "type": "uint256"
        }
      ],
      "payable": false,
      "stateMutability": "view",
      "type": "function"
    },
    {
      "constant": true,
      "inputs": [],
      "name": "roleExampleFunction",
      "outputs": [
        {
          "internalType": "string",
          "name": "",
          "type": "string"
        }
      ],
      "payable": false,
      "stateMutability": "view",
      "type": "function"
    },
    {
      "constant": false,
      "inputs": [],
      "name": "_roleExampleFunction",
      "outputs": [
        {
          "internalType": "string",
          "name": "",
          "type": "string"
        }
      ],
      "payable": true,
      "stateMutability": "payable",
      "type": "function"
    },
    {
      "constant": false,
      "inputs": [
        {
          "internalType": "address",
          "name": "collector",
          "type": "address"
        },
        {
          "internalType": "uint256",
          "name": "kg",
          "type": "uint256"
        }
      ],
      "name": "sendAnaTokenToCollector",
      "outputs": [],
      "payable": true,
      "stateMutability": "payable",
      "type": "function"
    },
    {
      "constant": true,
      "inputs": [
        {
          "internalType": "address",
          "name": "user",
          "type": "address"
        }
      ],
      "name": "getCollectedPlasticFromUser",
      "outputs": [
        {
          "internalType": "uint256",
          "name": "",
          "type": "uint256"
        }
      ],
      "payable": false,
      "stateMutability": "view",
      "type": "function"
    },
    {
      "constant": false,
      "inputs": [
        {
          "internalType": "uint256",
          "name": "newValueAverageTimeToCollectPlastic",
          "type": "uint256"
        }
      ],
      "name": "updateAverageTimeToCollectPlastic",
      "outputs": [],
      "payable": false,
      "stateMutability": "nonpayable",
      "type": "function"
    },
    {
      "constant": false,
      "inputs": [
        {
          "internalType": "uint256",
          "name": "newMinWeight",
          "type": "uint256"
        }
      ],
      "name": "updateMinWeight",
      "outputs": [],
      "payable": false,
      "stateMutability": "nonpayable",
      "type": "function"
    }
  ],
  "bytecode": "0x608060405260026000556000600155600060025534801561001f57600080fd5b5060405161002c9061008e565b604051809103906000f080158015610048573d6000803e3d6000fd5b50600360016101000a81548173ffffffffffffffffffffffffffffffffffffffff021916908373ffffffffffffffffffffffffffffffffffffffff16021790555061009b565b61138580610e4e83390190565b610da4806100aa6000396000f3fe6080604052600436106100a75760003560e01c806366ad05d61161006457806366ad05d61461031b5780636dcbdd6414610356578063848d0f9a146103a4578063997fb43214610409578063b6ba4d7f14610434578063e55069b21461045f576100a7565b80630c2ee55e146100ac578063299bf6ae146100d75780633ad69bec1461015a5780633e5d470b146101ea5780636128de1014610225578063648c9914146102a0575b600080fd5b3480156100b857600080fd5b506100c161048e565b6040518082815260200191505060405180910390f35b6100df610494565b6040518080602001828103825283818151815260200191508051906020019080838360005b8381101561011f578082015181840152602081019050610104565b50505050905090810190601f16801561014c5780820380516001836020036101000a031916815260200191505b509250505060405180910390f35b34801561016657600080fd5b5061016f6104a2565b6040518080602001828103825283818151815260200191508051906020019080838360005b838110156101af578082015181840152602081019050610194565b50505050905090810190601f1680156101dc5780820380516001836020036101000a031916815260200191505b509250505060405180910390f35b3480156101f657600080fd5b506102236004803603602081101561020d57600080fd5b8101908080359060200190929190505050610630565b005b34801561023157600080fd5b5061025e6004803603602081101561024857600080fd5b81019080803590602001909291905050506106b7565b604051808273ffffffffffffffffffffffffffffffffffffffff1673ffffffffffffffffffffffffffffffffffffffff16815260200191505060405180910390f35b3480156102ac57600080fd5b506102d9600480360360208110156102c357600080fd5b81019080803590602001909291905050506106ea565b604051808273ffffffffffffffffffffffffffffffffffffffff1673ffffffffffffffffffffffffffffffffffffffff16815260200191505060405180910390f35b34801561032757600080fd5b506103546004803603602081101561033e57600080fd5b810190808035906020019092919050505061071d565b005b6103a26004803603604081101561036c57600080fd5b81019080803573ffffffffffffffffffffffffffffffffffffffff169060200190929190803590602001909291905050506107a3565b005b3480156103b057600080fd5b506103f3600480360360208110156103c757600080fd5b81019080803573ffffffffffffffffffffffffffffffffffffffff1690602001909291905050506107b1565b6040518082815260200191505060405180910390f35b34801561041557600080fd5b5061041e61094b565b6040518082815260200191505060405180910390f35b34801561044057600080fd5b50610449610951565b6040518082815260200191505060405180910390f35b34801561046b57600080fd5b50610474610957565b604051808215151515815260200191505060405180910390f35b60025481565b606061049e6104a2565b5090565b6060600360019054906101000a900473ffffffffffffffffffffffffffffffffffffffff1673ffffffffffffffffffffffffffffffffffffffff1663a0d08eca6040518163ffffffff1660e01b81526004018080602001828103825260048152602001807f524f4f540000000000000000000000000000000000000000000000000000000081525060200191505060206040518083038186803b15801561054857600080fd5b505afa15801561055c573d6000803e3d6000fd5b505050506040513d602081101561057257600080fd5b81019080805190602001909291905050506105f5576040517f08c379a000000000000000000000000000000000000000000000000000000000815260040180806020018281038252601b8152602001807f5573657220646f65736e27742068617665207468697320726f6c65000000000081525060200191505060405180910390fd5b6040518060400160405280600881526020017f48617320726f6c65000000000000000000000000000000000000000000000000815250905090565b60006002549050816002819055507fafeb89b04ab16d6b98709c2ec1039c7a1f5c40124182d080f6b7905437145d958160025433604051808481526020018381526020018273ffffffffffffffffffffffffffffffffffffffff1673ffffffffffffffffffffffffffffffffffffffff168152602001935050505060405180910390a15050565b60076020528060005260406000206000915054906101000a900473ffffffffffffffffffffffffffffffffffffffff1681565b60046020528060005260406000206000915054906101000a900473ffffffffffffffffffffffffffffffffffffffff1681565b600080549050816000819055507fab21f94bfaa888b9883bd25d6101f17f348d0fef4b9bd0ee03e09c4f39f2276b8160005433604051808481526020018381526020018273ffffffffffffffffffffffffffffffffffffffff1673ffffffffffffffffffffffffffffffffffffffff168152602001935050505060405180910390a15050565b6107ad828261096a565b5050565b6000600360019054906101000a900473ffffffffffffffffffffffffffffffffffffffff1673ffffffffffffffffffffffffffffffffffffffff1663a0d08eca6040518163ffffffff1660e01b81526004018080602001828103825260098152602001807f636f6c6c6563746f72000000000000000000000000000000000000000000000081525060200191505060206040518083038186803b15801561085757600080fd5b505afa15801561086b573d6000803e3d6000fd5b505050506040513d602081101561088157600080fd5b8101908080519060200190929190505050610904576040517f08c379a000000000000000000000000000000000000000000000000000000000815260040180806020018281038252601b8152602001807f5573657220646f65736e27742068617665207468697320726f6c65000000000081525060200191505060405180910390fd5b600560008373ffffffffffffffffffffffffffffffffffffffff1673ffffffffffffffffffffffffffffffffffffffff168152602001908152602001600020549050919050565b60005481565b60015481565b600360009054906101000a900460ff1681565b600360019054906101000a900473ffffffffffffffffffffffffffffffffffffffff1673ffffffffffffffffffffffffffffffffffffffff1663a0d08eca6040518163ffffffff1660e01b815260040180806020018281038252600c8152602001807f72656379636c65506c616e74000000000000000000000000000000000000000081525060200191505060206040518083038186803b158015610a0e57600080fd5b505afa158015610a22573d6000803e3d6000fd5b505050506040513d6020811015610a3857600080fd5b8101908080519060200190929190505050610abb576040517f08c379a000000000000000000000000000000000000000000000000000000000815260040180806020018281038252601b8152602001807f5573657220646f65736e27742068617665207468697320726f6c65000000000081525060200191505060405180910390fd5b6000610ac5610cff565b90506000429050600660008573ffffffffffffffffffffffffffffffffffffffff1673ffffffffffffffffffffffffffffffffffffffff16815260200190815260200160002060405180608001604052808673ffffffffffffffffffffffffffffffffffffffff168152602001848152602001858152602001838152509080600181540180825580915050906001820390600052602060002090600402016000909192909190915060008201518160000160006101000a81548173ffffffffffffffffffffffffffffffffffffffff021916908373ffffffffffffffffffffffffffffffffffffffff160217905550602082015181600101556040820151816002015560608201518160030155505050836004600084815260200190815260200160002060006101000a81548173ffffffffffffffffffffffffffffffffffffffff021916908373ffffffffffffffffffffffffffffffffffffffff16021790555082600560008673ffffffffffffffffffffffffffffffffffffffff1673ffffffffffffffffffffffffffffffffffffffff168152602001908152602001600020600082825401925050819055507f8a083a4ea9ff73ed10bd2459602c72691f72558bd61e1578b59e4cbd5ce9f09784838584600054604051808673ffffffffffffffffffffffffffffffffffffffff1673ffffffffffffffffffffffffffffffffffffffff1681526020018581526020018481526020018381526020018281526020019550505050505060405180910390a150505050565b6000444142604051602001808481526020018373ffffffffffffffffffffffffffffffffffffffff1673ffffffffffffffffffffffffffffffffffffffff1660601b815260140182815260200193505050506040516020818303038152906040528051906020012060001c90509056fea265627a7a72315820f5fffa7c7b76c7b06a2422caa45b188976c071e15839aca4871bcbe0f9cae51864736f6c634300050c0032608060405234801561001057600080fd5b503360405161001e9061042e565b808273ffffffffffffffffffffffffffffffffffffffff1673ffffffffffffffffffffffffffffffffffffffff168152602001915050604051809103906000f080158015610070573d6000803e3d6000fd5b506000806101000a81548173ffffffffffffffffffffffffffffffffffffffff021916908373ffffffffffffffffffffffffffffffffffffffff1602179055506000809054906101000a900473ffffffffffffffffffffffffffffffffffffffff1673ffffffffffffffffffffffffffffffffffffffff166306323f8d6101316040518060400160405280600981526020017f636f6c6c6563746f72000000000000000000000000000000000000000000000081525061040360201b60201c565b6101756040518060400160405280600481526020017f524f4f540000000000000000000000000000000000000000000000000000000081525061040360201b60201c565b6040518363ffffffff1660e01b81526004018083815260200182815260200192505050600060405180830381600087803b1580156101b257600080fd5b505af11580156101c6573d6000803e3d6000fd5b505050506000809054906101000a900473ffffffffffffffffffffffffffffffffffffffff1673ffffffffffffffffffffffffffffffffffffffff166306323f8d61024b6040518060400160405280600a81526020017f756e69766572736974790000000000000000000000000000000000000000000081525061040360201b60201c565b61028f6040518060400160405280600481526020017f524f4f540000000000000000000000000000000000000000000000000000000081525061040360201b60201c565b6040518363ffffffff1660e01b81526004018083815260200182815260200192505050600060405180830381600087803b1580156102cc57600080fd5b505af11580156102e0573d6000803e3d6000fd5b505050506000809054906101000a900473ffffffffffffffffffffffffffffffffffffffff1673ffffffffffffffffffffffffffffffffffffffff166306323f8d6103656040518060400160405280600c81526020017f72656379636c65506c616e74000000000000000000000000000000000000000081525061040360201b60201c565b6103a96040518060400160405280600481526020017f524f4f540000000000000000000000000000000000000000000000000000000081525061040360201b60201c565b6040518363ffffffff1660e01b81526004018083815260200182815260200192505050600060405180830381600087803b1580156103e657600080fd5b505af11580156103fa573d6000803e3d6000fd5b5050505061043b565b60006060829050600081511415610420576000801b915050610429565b60208301519150505b919050565b610c0c8061077983390190565b61032f8061044a6000396000f3fe608060405234801561001057600080fd5b50600436106100365760003560e01c8063a0d08eca1461003b578063cfb519281461010e575b600080fd5b6100f46004803603602081101561005157600080fd5b810190808035906020019064010000000081111561006e57600080fd5b82018360208201111561008057600080fd5b803590602001918460018302840111640100000000831117156100a257600080fd5b91908080601f016020809104026020016040519081016040528093929190818152602001838380828437600081840152601f19601f8201169050808301925050505050505091929192905050506101dd565b604051808215151515815260200191505060405180910390f35b6101c76004803603602081101561012457600080fd5b810190808035906020019064010000000081111561014157600080fd5b82018360208201111561015357600080fd5b8035906020019184600183028401116401000000008311171561017557600080fd5b91908080601f016020809104026020016040519081016040528093929190818152602001838380828437600081840152601f19601f8201169050808301925050505050505091929192905050506102cf565b6040518082815260200191505060405180910390f35b60008060009054906101000a900473ffffffffffffffffffffffffffffffffffffffff1673ffffffffffffffffffffffffffffffffffffffff1663ac4ab3fb33610226856102cf565b6040518363ffffffff1660e01b8152600401808373ffffffffffffffffffffffffffffffffffffffff1673ffffffffffffffffffffffffffffffffffffffff1681526020018281526020019250505060206040518083038186803b15801561028d57600080fd5b505afa1580156102a1573d6000803e3d6000fd5b505050506040513d60208110156102b757600080fd5b81019080805190602001909291905050509050919050565b600060608290506000815114156102ec576000801b9150506102f5565b60208301519150505b91905056fea265627a7a72315820f8cc6ea06d1e0a7406fcd158f12d91c32b13644fd49ad89dea7532a81612dc5064736f6c634300050c0032608060405234801561001057600080fd5b50604051610c0c380380610c0c8339818101604052602081101561003357600080fd5b810190808051906020019092919050505060405180604001604052806001151581526020017f524f4f54000000000000000000000000000000000000000000000000000000008152506000807f524f4f5400000000000000000000000000000000000000000000000000000000815260200190815260200160002060008201518160000160006101000a81548160ff021916908315150217905550602082015181600101559050507f41ae852bd4986bdb048f0e9fe3e32c8d368d22693a4853f4bb5d6eb35f563f7a7f524f4f54000000000000000000000000000000000000000000000000000000006040518082815260200191505060405180910390a160016000807f524f4f5400000000000000000000000000000000000000000000000000000000815260200190815260200160002060020160008373ffffffffffffffffffffffffffffffffffffffff1673ffffffffffffffffffffffffffffffffffffffff16815260200190815260200160002060006101000a81548160ff0219169083151502179055507fefa218b911bf678a6f21f2b3d02057e2eccecfd8a6310eeb77b66e4cb37e9025817f524f4f5400000000000000000000000000000000000000000000000000000000604051808373ffffffffffffffffffffffffffffffffffffffff1673ffffffffffffffffffffffffffffffffffffffff1681526020018281526020019250505060405180910390a1506109b4806102586000396000f3fe608060405234801561001057600080fd5b50600436106100625760003560e01c806306323f8d1461006757806349df72081461009f5780637e8c7f08146100ed578063ac4ab3fb1461010b578063b41406f914610171578063ca7ca5b4146101b7575b600080fd5b61009d6004803603604081101561007d57600080fd5b810190808035906020019092919080359060200190929190505050610205565b005b6100eb600480360360408110156100b557600080fd5b81019080803573ffffffffffffffffffffffffffffffffffffffff1690602001909291908035906020019092919050505061038e565b005b6100f56105f1565b6040518082815260200191505060405180910390f35b6101576004803603604081101561012157600080fd5b81019080803573ffffffffffffffffffffffffffffffffffffffff16906020019092919080359060200190929190505050610615565b604051808215151515815260200191505060405180910390f35b61019d6004803603602081101561018757600080fd5b81019080803590602001909291905050506106fa565b604051808215151515815260200191505060405180910390f35b610203600480360360408110156101cd57600080fd5b81019080803573ffffffffffffffffffffffffffffffffffffffff16906020019092919080359060200190929190505050610726565b005b61020e826106fa565b15610281576040517f08c379a00000000000000000000000000000000000000000000000000000000081526004018080602001828103825260148152602001807f526f6c6520616c7265616479206578697374732e00000000000000000000000081525060200191505060405180910390fd5b61028a816106fa565b6102fc576040517f08c379a00000000000000000000000000000000000000000000000000000000081526004018080602001828103825260198152602001807f41646d696e20726f6c6520646f65736e27742065786973742e0000000000000081525060200191505060405180910390fd5b60405180604001604052806001151581526020018281525060008084815260200190815260200160002060008201518160000160006101000a81548160ff021916908315150217905550602082015181600101559050507f41ae852bd4986bdb048f0e9fe3e32c8d368d22693a4853f4bb5d6eb35f563f7a826040518082815260200191505060405180910390a15050565b610397816106fa565b610409576040517f08c379a00000000000000000000000000000000000000000000000000000000081526004018080602001828103825260138152602001807f526f6c6520646f65736e27742065786973742e0000000000000000000000000081525060200191505060405180910390fd5b6104283360008084815260200190815260200160002060010154610615565b61049a576040517f08c379a00000000000000000000000000000000000000000000000000000000081526004018080602001828103825260178152602001807f557365722063616e277420616464206d656d626572732e00000000000000000081525060200191505060405180910390fd5b6104a48282610615565b15610517576040517f08c379a000000000000000000000000000000000000000000000000000000000815260040180806020018281038252601a8152602001807f41646472657373206973206d656d626572206f6620726f6c652e00000000000081525060200191505060405180910390fd5b600160008083815260200190815260200160002060020160008473ffffffffffffffffffffffffffffffffffffffff1673ffffffffffffffffffffffffffffffffffffffff16815260200190815260200160002060006101000a81548160ff0219169083151502179055507fefa218b911bf678a6f21f2b3d02057e2eccecfd8a6310eeb77b66e4cb37e90258282604051808373ffffffffffffffffffffffffffffffffffffffff1673ffffffffffffffffffffffffffffffffffffffff1681526020018281526020019250505060405180910390a15050565b7f524f4f540000000000000000000000000000000000000000000000000000000081565b6000610620826106fa565b610692576040517f08c379a00000000000000000000000000000000000000000000000000000000081526004018080602001828103825260138152602001807f526f6c6520646f65736e27742065786973742e0000000000000000000000000081525060200191505060405180910390fd5b60008083815260200190815260200160002060020160008473ffffffffffffffffffffffffffffffffffffffff1673ffffffffffffffffffffffffffffffffffffffff16815260200190815260200160002060009054906101000a900460ff16905092915050565b600080600083815260200190815260200160002060000160009054906101000a900460ff169050919050565b61072f816106fa565b6107a1576040517f08c379a00000000000000000000000000000000000000000000000000000000081526004018080602001828103825260138152602001807f526f6c6520646f65736e27742065786973742e0000000000000000000000000081525060200191505060405180910390fd5b6107c03360008084815260200190815260200160002060010154610615565b610832576040517f08c379a000000000000000000000000000000000000000000000000000000000815260040180806020018281038252601a8152602001807f557365722063616e27742072656d6f7665206d656d626572732e00000000000081525060200191505060405180910390fd5b61083c8282610615565b6108ae576040517f08c379a000000000000000000000000000000000000000000000000000000000815260040180806020018281038252601e8152602001807f41646472657373206973206e6f74206d656d626572206f6620726f6c652e000081525060200191505060405180910390fd5b60008082815260200190815260200160002060020160008373ffffffffffffffffffffffffffffffffffffffff1673ffffffffffffffffffffffffffffffffffffffff16815260200190815260200160002060006101000a81549060ff02191690557fbd1f9a02c9ef3c31bebe4c93654b10bf2693f6db933277e6896355ae68c8aac78282604051808373ffffffffffffffffffffffffffffffffffffffff1673ffffffffffffffffffffffffffffffffffffffff1681526020018281526020019250505060405180910390a1505056fea265627a7a72315820c8dd3627c187b92572d6b34b89523a99747da9f0620207dabf33d22d3d398c9b64736f6c634300050c0032",
  "source": "pragma solidity >=0.4.21 <0.7.0;\n\nimport \"./access-control/RBACExtend.sol\";\n\ncontract Recycle {\n  uint public averageTimeToCollectPlastic = 2;\n  uint public totalCollectedPlastic = 0;\n\n  uint public minWeight = 0;\n\n  bool public rightRole;\n  RBACExtend roleHelper;\n\n  struct CollectedPlastic{\n    address collector;\n    uint id;\n    uint kg;\n    uint dateCollected;\n  }\n    \n  constructor() public {\n    roleHelper = new RBACExtend();\n  }\n\n  event PlasticIsAccounted(\n    address collector,\n    uint collectedPlasticId,\n    uint collectedPlasticKg,\n    uint collectedPlasticDate,\n    uint currentAvarageTimeToCollectPlastic\n  );\n\n  event MinWeightIsUpdated(\n    uint oldMinWeight,\n    uint minWeight,\n    address byAddress\n  );\n\n  event AverageTimeToCollectPlasticIsUpdated(\n    uint oldAverageTimeToCollectPlastic,\n    uint newAverageTimeToCollectPlastic,\n    address byAddress\n  );\n\n  modifier validPlasticWeight(uint _kg) {\n    require(_kg > minWeight, \"More plastic is required for minimum valid transaction.\");\n    _;\n  }\n\n  mapping(uint => address) public plasticToCollector;\n  mapping(address => uint) collectorPlasticCount;\n  mapping(address => CollectedPlastic[]) collectorToCollectedPlastic;\n\n  function _sendAnaTokenToCollector(address _collector, uint _kg) private hasRecyclePlantRole {\n    uint256 id = getRandom();\n    uint dateCollected = now;\n    collectorToCollectedPlastic[_collector].push( CollectedPlastic(_collector, id, _kg, dateCollected));\n    plasticToCollector[id] = _collector;\n    collectorPlasticCount[_collector] += _kg;\n\n    // // TODO\n    // // D: Delegate, doing the transaction for A, and paying for the gas.\n    // uint tokens = _convertKilogramsToAnatoken(_kg);\n    // Token.delegatedTransfer(\n    //     Nonce,  // N: Nonce\n    //     address(this), // A: Sender of the payment\n    //     _collector, // B: Recipient of the payment\n    //     tokens, // X: Amount of Token T sent from A to B\n    //     Y, // Y: Fee paid in Token T, from A to D for the transaction\n    //     V,\n    //     R,\n    //     S\n    // );\n    emit PlasticIsAccounted(\n      _collector,\n      id,\n      _kg,\n      dateCollected,\n      averageTimeToCollectPlastic\n    );\n  }\n\n  modifier hasCollectorRole { require(roleHelper.userHasRole(\"collector\"), \"User doesn't have this role\"); _;}\n  modifier hasRecyclePlantRole { require(roleHelper.userHasRole(\"recyclePlant\"), \"User doesn't have this role\"); _;}\n  modifier hasRootRole {require(roleHelper.userHasRole(\"ROOT\"), \"User doesn't have this role\"); _;} //might not be needed\n\n  /// mappings\n  mapping(uint => address) public plasticToOwner;\n  mapping(address => uint) ownerPlasticCount;\n    \n  /*\n    * Example function on how to use the RBACExtend contract\n  */\n  function roleExampleFunction() public hasRootRole view returns(string memory){\n    return \"Has role\";\n  }\n    \n  function _roleExampleFunction() public payable  returns (string memory) {\n    roleExampleFunction();\n  }\n\n  function sendAnaTokenToCollector(address collector, uint kg) public payable {\n    _sendAnaTokenToCollector(collector, kg);\n  }\n\n  function getCollectedPlasticFromUser(address user) external hasCollectorRole view returns (uint) {\n    //get all the collected plastic from a user\n    return collectorPlasticCount[user];\n  }\n\n  function _convertKilogramsToAnatoken(uint _kg) private view returns(uint anaTokensAmount) {\n    return _kg * averageTimeToCollectPlastic;\n  }\n\n  function updateAverageTimeToCollectPlastic(uint newValueAverageTimeToCollectPlastic) public{\n    uint oldAverageTimeToCollectPlastic = averageTimeToCollectPlastic;\n    averageTimeToCollectPlastic = newValueAverageTimeToCollectPlastic;\n  \n    emit AverageTimeToCollectPlasticIsUpdated(oldAverageTimeToCollectPlastic, averageTimeToCollectPlastic, msg.sender);\n  }\n\n  function updateMinWeight(uint newMinWeight) public{\n    uint oldMinWeight = minWeight;\n    minWeight = newMinWeight;\n  \n    emit MinWeightIsUpdated(oldMinWeight, minWeight, msg.sender);\n  }\n\n  function getRandom() private view returns(uint256) {\n    return uint256(keccak256(abi.encodePacked(block.difficulty, block.coinbase, block.timestamp)));\n  }\n}\n\n",
  "sourcePath": "/Users/daniyal/Documents/Development/solidity/anatoken-app/contracts/Recycle.sol",
  "compiler": {
    "name": "solc",
    "version": "0.5.12+commit.7709ece9.Emscripten.clang"
  },
  "schemaVersion": "3.0.19",
  "updatedAt": "2020-01-29T12:15:01.400Z",
  "networkType": "ethereum",
  "devdoc": {
    "methods": {}
  },
  "userdoc": {
    "methods": {}
  }
}