{
  "contractName": "ServiceProvider",
  "abi": [
    {
      "anonymous": false,
      "inputs": [
        {
          "indexed": false,
          "internalType": "address",
          "name": "owner",
          "type": "address"
        },
        {
          "indexed": false,
          "internalType": "uint256[]",
          "name": "",
          "type": "uint256[]"
        }
      ],
      "name": "EmitServices",
      "type": "event"
    },
    {
      "anonymous": false,
      "inputs": [
        {
          "indexed": false,
          "internalType": "uint256",
          "name": "code",
          "type": "uint256"
        },
        {
          "indexed": false,
          "internalType": "string",
          "name": "serviceName",
          "type": "string"
        }
      ],
      "name": "ServiceIsCreated",
      "type": "event"
    },
    {
      "anonymous": false,
      "inputs": [
        {
          "indexed": false,
          "internalType": "uint256",
          "name": "code",
          "type": "uint256"
        }
      ],
      "name": "ServiceIsDeleted",
      "type": "event"
    },
    {
      "anonymous": false,
      "inputs": [
        {
          "indexed": false,
          "internalType": "uint256",
          "name": "code_",
          "type": "uint256"
        },
        {
          "indexed": false,
          "internalType": "address",
          "name": "owner",
          "type": "address"
        },
        {
          "indexed": false,
          "internalType": "string",
          "name": "serviceType",
          "type": "string"
        },
        {
          "indexed": false,
          "internalType": "string",
          "name": "serviceName",
          "type": "string"
        },
        {
          "indexed": false,
          "internalType": "string",
          "name": "location",
          "type": "string"
        },
        {
          "indexed": false,
          "internalType": "uint256",
          "name": "startdate",
          "type": "uint256"
        },
        {
          "indexed": false,
          "internalType": "uint256",
          "name": "enddate",
          "type": "uint256"
        },
        {
          "indexed": false,
          "internalType": "string",
          "name": "instructor",
          "type": "string"
        },
        {
          "indexed": false,
          "internalType": "uint256",
          "name": "costs",
          "type": "uint256"
        }
      ],
      "name": "ServiceIsRead",
      "type": "event"
    },
    {
      "anonymous": false,
      "inputs": [
        {
          "indexed": false,
          "internalType": "uint256",
          "name": "code",
          "type": "uint256"
        },
        {
          "indexed": false,
          "internalType": "string",
          "name": "serviceName",
          "type": "string"
        }
      ],
      "name": "ServiceIsUpdated",
      "type": "event"
    },
    {
      "constant": true,
      "inputs": [
        {
          "internalType": "uint256",
          "name": "",
          "type": "uint256"
        }
      ],
      "name": "allServices",
      "outputs": [
        {
          "internalType": "uint256",
          "name": "",
          "type": "uint256"
        }
      ],
      "payable": false,
      "stateMutability": "view",
      "type": "function"
    },
    {
      "constant": true,
      "inputs": [
        {
          "internalType": "uint256",
          "name": "",
          "type": "uint256"
        }
      ],
      "name": "codeIndexAllServices",
      "outputs": [
        {
          "internalType": "uint256",
          "name": "",
          "type": "uint256"
        }
      ],
      "payable": false,
      "stateMutability": "view",
      "type": "function"
    },
    {
      "constant": true,
      "inputs": [
        {
          "internalType": "uint256",
          "name": "",
          "type": "uint256"
        }
      ],
      "name": "serviceCode",
      "outputs": [
        {
          "internalType": "uint256",
          "name": "code",
          "type": "uint256"
        },
        {
          "internalType": "address",
          "name": "owner",
          "type": "address"
        },
        {
          "internalType": "string",
          "name": "serviceType",
          "type": "string"
        },
        {
          "internalType": "string",
          "name": "serviceName",
          "type": "string"
        },
        {
          "internalType": "string",
          "name": "location",
          "type": "string"
        },
        {
          "internalType": "uint256",
          "name": "startdate",
          "type": "uint256"
        },
        {
          "internalType": "uint256",
          "name": "enddate",
          "type": "uint256"
        },
        {
          "internalType": "string",
          "name": "instructor",
          "type": "string"
        },
        {
          "internalType": "uint256",
          "name": "costs",
          "type": "uint256"
        }
      ],
      "payable": false,
      "stateMutability": "view",
      "type": "function"
    },
    {
      "constant": true,
      "inputs": [
        {
          "internalType": "address",
          "name": "",
          "type": "address"
        },
        {
          "internalType": "uint256",
          "name": "",
          "type": "uint256"
        }
      ],
      "name": "serviseCreator",
      "outputs": [
        {
          "internalType": "uint256",
          "name": "code",
          "type": "uint256"
        },
        {
          "internalType": "address",
          "name": "owner",
          "type": "address"
        },
        {
          "internalType": "string",
          "name": "serviceType",
          "type": "string"
        },
        {
          "internalType": "string",
          "name": "serviceName",
          "type": "string"
        },
        {
          "internalType": "string",
          "name": "location",
          "type": "string"
        },
        {
          "internalType": "uint256",
          "name": "startdate",
          "type": "uint256"
        },
        {
          "internalType": "uint256",
          "name": "enddate",
          "type": "uint256"
        },
        {
          "internalType": "string",
          "name": "instructor",
          "type": "string"
        },
        {
          "internalType": "uint256",
          "name": "costs",
          "type": "uint256"
        }
      ],
      "payable": false,
      "stateMutability": "view",
      "type": "function"
    },
    {
      "constant": false,
      "inputs": [
        {
          "internalType": "uint256",
          "name": "code",
          "type": "uint256"
        },
        {
          "internalType": "string",
          "name": "serviceType",
          "type": "string"
        },
        {
          "internalType": "string",
          "name": "serviceName",
          "type": "string"
        },
        {
          "internalType": "string",
          "name": "location",
          "type": "string"
        },
        {
          "internalType": "uint256",
          "name": "startdate",
          "type": "uint256"
        },
        {
          "internalType": "uint256",
          "name": "enddate",
          "type": "uint256"
        },
        {
          "internalType": "string",
          "name": "instructor",
          "type": "string"
        },
        {
          "internalType": "uint256",
          "name": "costs",
          "type": "uint256"
        }
      ],
      "name": "createService",
      "outputs": [
        {
          "internalType": "bool",
          "name": "",
          "type": "bool"
        }
      ],
      "payable": false,
      "stateMutability": "nonpayable",
      "type": "function"
    },
    {
      "constant": false,
      "inputs": [
        {
          "internalType": "uint256",
          "name": "code",
          "type": "uint256"
        },
        {
          "internalType": "string",
          "name": "serviceType",
          "type": "string"
        },
        {
          "internalType": "string",
          "name": "serviceName",
          "type": "string"
        },
        {
          "internalType": "string",
          "name": "location",
          "type": "string"
        },
        {
          "internalType": "uint256",
          "name": "startdate",
          "type": "uint256"
        },
        {
          "internalType": "uint256",
          "name": "enddate",
          "type": "uint256"
        },
        {
          "internalType": "string",
          "name": "instructor",
          "type": "string"
        },
        {
          "internalType": "uint256",
          "name": "costs",
          "type": "uint256"
        }
      ],
      "name": "updateService",
      "outputs": [],
      "payable": false,
      "stateMutability": "nonpayable",
      "type": "function"
    },
    {
      "constant": false,
      "inputs": [
        {
          "internalType": "uint256",
          "name": "code",
          "type": "uint256"
        }
      ],
      "name": "deleteService",
      "outputs": [],
      "payable": false,
      "stateMutability": "nonpayable",
      "type": "function"
    },
    {
      "constant": false,
      "inputs": [
        {
          "internalType": "uint256",
          "name": "code",
          "type": "uint256"
        }
      ],
      "name": "findServiceByCode",
      "outputs": [
        {
          "internalType": "uint256",
          "name": "code_",
          "type": "uint256"
        },
        {
          "internalType": "address",
          "name": "owner",
          "type": "address"
        },
        {
          "internalType": "string",
          "name": "serviceType",
          "type": "string"
        },
        {
          "internalType": "string",
          "name": "serviceName",
          "type": "string"
        },
        {
          "internalType": "string",
          "name": "location",
          "type": "string"
        },
        {
          "internalType": "uint256",
          "name": "startdate",
          "type": "uint256"
        },
        {
          "internalType": "uint256",
          "name": "enddate",
          "type": "uint256"
        },
        {
          "internalType": "string",
          "name": "instructor",
          "type": "string"
        },
        {
          "internalType": "uint256",
          "name": "costs",
          "type": "uint256"
        }
      ],
      "payable": false,
      "stateMutability": "nonpayable",
      "type": "function"
    },
    {
      "constant": false,
      "inputs": [
        {
          "internalType": "string",
          "name": "serviceName",
          "type": "string"
        }
      ],
      "name": "findServiceByName",
      "outputs": [
        {
          "internalType": "uint256",
          "name": "code",
          "type": "uint256"
        },
        {
          "internalType": "address",
          "name": "owner",
          "type": "address"
        },
        {
          "internalType": "string",
          "name": "serviceType",
          "type": "string"
        },
        {
          "internalType": "string",
          "name": "serviceName_",
          "type": "string"
        },
        {
          "internalType": "string",
          "name": "location",
          "type": "string"
        },
        {
          "internalType": "uint256",
          "name": "startdate",
          "type": "uint256"
        },
        {
          "internalType": "uint256",
          "name": "enddate",
          "type": "uint256"
        },
        {
          "internalType": "string",
          "name": "instructor",
          "type": "string"
        },
        {
          "internalType": "uint256",
          "name": "costs",
          "type": "uint256"
        }
      ],
      "payable": false,
      "stateMutability": "nonpayable",
      "type": "function"
    },
    {
      "constant": true,
      "inputs": [],
      "name": "emitServices",
      "outputs": [
        {
          "internalType": "uint256[]",
          "name": "",
          "type": "uint256[]"
        }
      ],
      "payable": false,
      "stateMutability": "view",
      "type": "function"
    },
    {
      "constant": false,
      "inputs": [],
      "name": "emitAllServices",
      "outputs": [],
      "payable": false,
      "stateMutability": "nonpayable",
      "type": "function"
    }
  ],
  "bytecode": "0x60806040526040518060200160405280600060ff1681525060039060016200002992919062000043565b5060006004553480156200003c57600080fd5b50620000c2565b82805482825590600052602060002090810192821562000087579160200282015b8281111562000086578251829060ff1690559160200191906001019062000064565b5b5090506200009691906200009a565b5090565b620000bf91905b80821115620000bb576000816000905550600101620000a1565b5090565b90565b61388080620000d26000396000f3fe608060405234801561001057600080fd5b50600436106100a95760003560e01c806374e29ee61161007157806374e29ee61461085557806381b08455146108835780638f663c6014610b2c578063b9f9aa2414610ded578063fb3458a614610e2f578063fd72984d14611069576100a9565b806301a1229e146100ae57806317306fb21461030857806317b0a1ef146103125780633699816c146105d95780633f1f5b4714610813575b600080fd5b6100fa600480360360408110156100c457600080fd5b81019080803573ffffffffffffffffffffffffffffffffffffffff169060200190929190803590602001909291905050506110c8565b604051808a81526020018973ffffffffffffffffffffffffffffffffffffffff1673ffffffffffffffffffffffffffffffffffffffff1681526020018060200180602001806020018881526020018781526020018060200186815260200185810385528c818151815260200191508051906020019080838360005b83811015610190578082015181840152602081019050610175565b50505050905090810190601f1680156101bd5780820380516001836020036101000a031916815260200191505b5085810384528b818151815260200191508051906020019080838360005b838110156101f65780820151818401526020810190506101db565b50505050905090810190601f1680156102235780820380516001836020036101000a031916815260200191505b5085810383528a818151815260200191508051906020019080838360005b8381101561025c578082015181840152602081019050610241565b50505050905090810190601f1680156102895780820380516001836020036101000a031916815260200191505b50858103825287818151815260200191508051906020019080838360005b838110156102c25780820151818401526020810190506102a7565b50505050905090810190601f1680156102ef5780820380516001836020036101000a031916815260200191505b509d505050505050505050505050505060405180910390f35b6103106113b0565b005b6103cb6004803603602081101561032857600080fd5b810190808035906020019064010000000081111561034557600080fd5b82018360208201111561035757600080fd5b8035906020019184600183028401116401000000008311171561037957600080fd5b91908080601f016020809104026020016040519081016040528093929190818152602001838380828437600081840152601f19601f82011690508083019250505050505050919291929050505061145c565b604051808a81526020018973ffffffffffffffffffffffffffffffffffffffff1673ffffffffffffffffffffffffffffffffffffffff1681526020018060200180602001806020018881526020018781526020018060200186815260200185810385528c818151815260200191508051906020019080838360005b83811015610461578082015181840152602081019050610446565b50505050905090810190601f16801561048e5780820380516001836020036101000a031916815260200191505b5085810384528b818151815260200191508051906020019080838360005b838110156104c75780820151818401526020810190506104ac565b50505050905090810190601f1680156104f45780820380516001836020036101000a031916815260200191505b5085810383528a818151815260200191508051906020019080838360005b8381101561052d578082015181840152602081019050610512565b50505050905090810190601f16801561055a5780820380516001836020036101000a031916815260200191505b50858103825287818151815260200191508051906020019080838360005b83811015610593578082015181840152602081019050610578565b50505050905090810190601f1680156105c05780820380516001836020036101000a031916815260200191505b509d505050505050505050505050505060405180910390f35b610605600480360360208110156105ef57600080fd5b810190808035906020019092919050505061191d565b604051808a81526020018973ffffffffffffffffffffffffffffffffffffffff1673ffffffffffffffffffffffffffffffffffffffff1681526020018060200180602001806020018881526020018781526020018060200186815260200185810385528c818151815260200191508051906020019080838360005b8381101561069b578082015181840152602081019050610680565b50505050905090810190601f1680156106c85780820380516001836020036101000a031916815260200191505b5085810384528b818151815260200191508051906020019080838360005b838110156107015780820151818401526020810190506106e6565b50505050905090810190601f16801561072e5780820380516001836020036101000a031916815260200191505b5085810383528a818151815260200191508051906020019080838360005b8381101561076757808201518184015260208101905061074c565b50505050905090810190601f1680156107945780820380516001836020036101000a031916815260200191505b50858103825287818151815260200191508051906020019080838360005b838110156107cd5780820151818401526020810190506107b2565b50505050905090810190601f1680156107fa5780820380516001836020036101000a031916815260200191505b509d505050505050505050505050505060405180910390f35b61083f6004803603602081101561082957600080fd5b8101908080359060200190929190505050611beb565b6040518082815260200191505060405180910390f35b6108816004803603602081101561086b57600080fd5b8101908080359060200190929190505050611c0c565b005b610b2a600480360361010081101561089a57600080fd5b8101908080359060200190929190803590602001906401000000008111156108c157600080fd5b8201836020820111156108d357600080fd5b803590602001918460018302840111640100000000831117156108f557600080fd5b91908080601f016020809104026020016040519081016040528093929190818152602001838380828437600081840152601f19601f8201169050808301925050505050505091929192908035906020019064010000000081111561095857600080fd5b82018360208201111561096a57600080fd5b8035906020019184600183028401116401000000008311171561098c57600080fd5b91908080601f016020809104026020016040519081016040528093929190818152602001838380828437600081840152601f19601f820116905080830192505050505050509192919290803590602001906401000000008111156109ef57600080fd5b820183602082011115610a0157600080fd5b80359060200191846001830284011164010000000083111715610a2357600080fd5b91908080601f016020809104026020016040519081016040528093929190818152602001838380828437600081840152601f19601f820116905080830192505050505050509192919290803590602001909291908035906020019092919080359060200190640100000000811115610a9a57600080fd5b820183602082011115610aac57600080fd5b80359060200191846001830284011164010000000083111715610ace57600080fd5b91908080601f016020809104026020016040519081016040528093929190818152602001838380828437600081840152601f19601f82011690508083019250505050505050919291929080359060200190929190505050612265565b005b610dd36004803603610100811015610b4357600080fd5b810190808035906020019092919080359060200190640100000000811115610b6a57600080fd5b820183602082011115610b7c57600080fd5b80359060200191846001830284011164010000000083111715610b9e57600080fd5b91908080601f016020809104026020016040519081016040528093929190818152602001838380828437600081840152601f19601f82011690508083019250505050505050919291929080359060200190640100000000811115610c0157600080fd5b820183602082011115610c1357600080fd5b80359060200191846001830284011164010000000083111715610c3557600080fd5b91908080601f016020809104026020016040519081016040528093929190818152602001838380828437600081840152601f19601f82011690508083019250505050505050919291929080359060200190640100000000811115610c9857600080fd5b820183602082011115610caa57600080fd5b80359060200191846001830284011164010000000083111715610ccc57600080fd5b91908080601f016020809104026020016040519081016040528093929190818152602001838380828437600081840152601f19601f820116905080830192505050505050509192919290803590602001909291908035906020019092919080359060200190640100000000811115610d4357600080fd5b820183602082011115610d5557600080fd5b80359060200191846001830284011164010000000083111715610d7757600080fd5b91908080601f016020809104026020016040519081016040528093929190818152602001838380828437600081840152601f19601f82011690508083019250505050505050919291929080359060200190929190505050612c22565b604051808215151515815260200191505060405180910390f35b610e1960048036036020811015610e0357600080fd5b81019080803590602001909291905050506130ef565b6040518082815260200191505060405180910390f35b610e5b60048036036020811015610e4557600080fd5b8101908080359060200190929190505050613107565b604051808a81526020018973ffffffffffffffffffffffffffffffffffffffff1673ffffffffffffffffffffffffffffffffffffffff1681526020018060200180602001806020018881526020018781526020018060200186815260200185810385528c818151815260200191508051906020019080838360005b83811015610ef1578082015181840152602081019050610ed6565b50505050905090810190601f168015610f1e5780820380516001836020036101000a031916815260200191505b5085810384528b818151815260200191508051906020019080838360005b83811015610f57578082015181840152602081019050610f3c565b50505050905090810190601f168015610f845780820380516001836020036101000a031916815260200191505b5085810383528a818151815260200191508051906020019080838360005b83811015610fbd578082015181840152602081019050610fa2565b50505050905090810190601f168015610fea5780820380516001836020036101000a031916815260200191505b50858103825287818151815260200191508051906020019080838360005b83811015611023578082015181840152602081019050611008565b50505050905090810190601f1680156110505780820380516001836020036101000a031916815260200191505b509d505050505050505050505050505060405180910390f35b61107161349f565b6040518080602001828103825283818151815260200191508051906020019060200280838360005b838110156110b4578082015181840152602081019050611099565b505050509050019250505060405180910390f35b600060205281600052604060002081815481106110e157fe5b9060005260206000209060090201600091509150508060000154908060010160009054906101000a900473ffffffffffffffffffffffffffffffffffffffff1690806002018054600181600116156101000203166002900480601f0160208091040260200160405190810160405280929190818152602001828054600181600116156101000203166002900480156111ba5780601f1061118f576101008083540402835291602001916111ba565b820191906000526020600020905b81548152906001019060200180831161119d57829003601f168201915b505050505090806003018054600181600116156101000203166002900480601f0160208091040260200160405190810160405280929190818152602001828054600181600116156101000203166002900480156112585780601f1061122d57610100808354040283529160200191611258565b820191906000526020600020905b81548152906001019060200180831161123b57829003601f168201915b505050505090806004018054600181600116156101000203166002900480601f0160208091040260200160405190810160405280929190818152602001828054600181600116156101000203166002900480156112f65780601f106112cb576101008083540402835291602001916112f6565b820191906000526020600020905b8154815290600101906020018083116112d957829003601f168201915b505050505090806005015490806006015490806007018054600181600116156101000203166002900480601f0160208091040260200160405190810160405280929190818152602001828054600181600116156101000203166002900480156113a05780601f10611375576101008083540402835291602001916113a0565b820191906000526020600020905b81548152906001019060200180831161138357829003601f168201915b5050505050908060080154905089565b7fd15067271429de6a8d1602bcfa74c45905b8ec9ec6c560763c09f9c194ead225336003604051808373ffffffffffffffffffffffffffffffffffffffff1673ffffffffffffffffffffffffffffffffffffffff16815260200180602001828103825283818154815260200191508054801561144b57602002820191906000526020600020905b815481526020019060010190808311611437575b5050935050505060405180910390a1565b60008060608060606000806060600080600090505b6000803373ffffffffffffffffffffffffffffffffffffffff1673ffffffffffffffffffffffffffffffffffffffff168152602001908152602001600020805490508110156118a1576114c2613675565b6000803373ffffffffffffffffffffffffffffffffffffffff1673ffffffffffffffffffffffffffffffffffffffff168152602001908152602001600020828154811061150b57fe5b906000526020600020906009020160405180610120016040529081600082015481526020016001820160009054906101000a900473ffffffffffffffffffffffffffffffffffffffff1673ffffffffffffffffffffffffffffffffffffffff1673ffffffffffffffffffffffffffffffffffffffff168152602001600282018054600181600116156101000203166002900480601f01602080910402602001604051908101604052809291908181526020018280546001816001161561010002031660029004801561161e5780601f106115f35761010080835404028352916020019161161e565b820191906000526020600020905b81548152906001019060200180831161160157829003601f168201915b50505050508152602001600382018054600181600116156101000203166002900480601f0160208091040260200160405190810160405280929190818152602001828054600181600116156101000203166002900480156116c05780601f10611695576101008083540402835291602001916116c0565b820191906000526020600020905b8154815290600101906020018083116116a357829003601f168201915b50505050508152602001600482018054600181600116156101000203166002900480601f0160208091040260200160405190810160405280929190818152602001828054600181600116156101000203166002900480156117625780601f1061173757610100808354040283529160200191611762565b820191906000526020600020905b81548152906001019060200180831161174557829003601f168201915b505050505081526020016005820154815260200160068201548152602001600782018054600181600116156101000203166002900480601f0160208091040260200160405190810160405280929190818152602001828054600181600116156101000203166002900480156118185780601f106117ed57610100808354040283529160200191611818565b820191906000526020600020905b8154815290600101906020018083116117fb57829003601f168201915b50505050508152602001600882015481525050905061183b8c8260600151613579565b1561189357806000015181602001518260400151836060015184608001518560a001518660c001518760e001518861010001518696508595508494508191509a509a509a509a509a509a509a509a509a505050611910565b508080600101915050611471565b506040517f08c379a00000000000000000000000000000000000000000000000000000000081526004018080602001828103825260148152602001807f53657276696365206973206e6f7420666f756e6400000000000000000000000081525060200191505060405180910390fd5b9193959799909294969850565b60016020528060005260406000206000915090508060000154908060010160009054906101000a900473ffffffffffffffffffffffffffffffffffffffff1690806002018054600181600116156101000203166002900480601f0160208091040260200160405190810160405280929190818152602001828054600181600116156101000203166002900480156119f55780601f106119ca576101008083540402835291602001916119f5565b820191906000526020600020905b8154815290600101906020018083116119d857829003601f168201915b505050505090806003018054600181600116156101000203166002900480601f016020809104026020016040519081016040528092919081815260200182805460018160011615610100020316600290048015611a935780601f10611a6857610100808354040283529160200191611a93565b820191906000526020600020905b815481529060010190602001808311611a7657829003601f168201915b505050505090806004018054600181600116156101000203166002900480601f016020809104026020016040519081016040528092919081815260200182805460018160011615610100020316600290048015611b315780601f10611b0657610100808354040283529160200191611b31565b820191906000526020600020905b815481529060010190602001808311611b1457829003601f168201915b505050505090806005015490806006015490806007018054600181600116156101000203166002900480601f016020809104026020016040519081016040528092919081815260200182805460018160011615610100020316600290048015611bdb5780601f10611bb057610100808354040283529160200191611bdb565b820191906000526020600020905b815481529060010190602001808311611bbe57829003601f168201915b5050505050908060080154905089565b60038181548110611bf857fe5b906000526020600020016000915090505481565b600060045411611c84576040517f08c379a00000000000000000000000000000000000000000000000000000000081526004018080602001828103825260158152602001807f4e6f2073657276696365732061726520666f756e64000000000000000000000081525060200191505060405180910390fd5b60008090505b6000803373ffffffffffffffffffffffffffffffffffffffff1673ffffffffffffffffffffffffffffffffffffffff1681526020019081526020016000208054905081101561226157611d37826000803373ffffffffffffffffffffffffffffffffffffffff1673ffffffffffffffffffffffffffffffffffffffff1681526020019081526020016000208381548110611d2057fe5b906000526020600020906009020160000154613668565b15612254576000803373ffffffffffffffffffffffffffffffffffffffff1673ffffffffffffffffffffffffffffffffffffffff16815260200190815260200160002060016000803373ffffffffffffffffffffffffffffffffffffffff1673ffffffffffffffffffffffffffffffffffffffff168152602001908152602001600020805490500381548110611dc957fe5b90600052602060002090600902016000803373ffffffffffffffffffffffffffffffffffffffff1673ffffffffffffffffffffffffffffffffffffffff1681526020019081526020016000208281548110611e2057fe5b9060005260206000209060090201600082015481600001556001820160009054906101000a900473ffffffffffffffffffffffffffffffffffffffff168160010160006101000a81548173ffffffffffffffffffffffffffffffffffffffff021916908373ffffffffffffffffffffffffffffffffffffffff16021790555060028201816002019080546001816001161561010002031660029004611ec69291906136d7565b5060038201816003019080546001816001161561010002031660029004611eee9291906136d7565b5060048201816004019080546001816001161561010002031660029004611f169291906136d7565b50600582015481600501556006820154816006015560078201816007019080546001816001161561010002031660029004611f529291906136d7565b50600882015481600801559050506000803373ffffffffffffffffffffffffffffffffffffffff1673ffffffffffffffffffffffffffffffffffffffff16815260200190815260200160002060016000803373ffffffffffffffffffffffffffffffffffffffff1673ffffffffffffffffffffffffffffffffffffffff168152602001908152602001600020805490500381548110611fed57fe5b90600052602060002090600902016000808201600090556001820160006101000a81549073ffffffffffffffffffffffffffffffffffffffff021916905560028201600061203b919061375e565b60038201600061204b919061375e565b60048201600061205b919061375e565b6005820160009055600682016000905560078201600061207b919061375e565b600882016000905550503373ffffffffffffffffffffffffffffffffffffffff166001600084815260200190815260200160002060010160009054906101000a900473ffffffffffffffffffffffffffffffffffffffff1673ffffffffffffffffffffffffffffffffffffffff16141561225357600160008381526020019081526020016000206000808201600090556001820160006101000a81549073ffffffffffffffffffffffffffffffffffffffff0219169055600282016000612142919061375e565b600382016000612152919061375e565b600482016000612162919061375e565b60058201600090556006820160009055600782016000612182919061375e565b6008820160009055505060036004548154811061219b57fe5b906000526020600020015460036002600085815260200190815260200160002054815481106121c657fe5b90600052602060002001819055506003600454815481106121e357fe5b90600052602060002001600090556002600083815260200190815260200160002060009055600460008154809291906001900391905055507facbfc76caa52832682d88ce0f5e7e0f9be2c59153e170b9ae1c87f6682038203826040518082815260200191505060405180910390a15b5b8080600101915050611c8a565b5050565b61226d613675565b6040518061012001604052808a81526020013373ffffffffffffffffffffffffffffffffffffffff1681526020018981526020018881526020018781526020018681526020018581526020018481526020018381525090506000803373ffffffffffffffffffffffffffffffffffffffff1673ffffffffffffffffffffffffffffffffffffffff16815260200190815260200160002081908060018154018082558091505090600182039060005260206000209060090201600090919290919091506000820151816000015560208201518160010160006101000a81548173ffffffffffffffffffffffffffffffffffffffff021916908373ffffffffffffffffffffffffffffffffffffffff160217905550604082015181600201908051906020019061239c9291906137a6565b5060608201518160030190805190602001906123b99291906137a6565b5060808201518160040190805190602001906123d69291906137a6565b5060a0820151816005015560c0820151816006015560e08201518160070190805190602001906124079291906137a6565b50610100820151816008015550505080600160008b81526020019081526020016000206000820151816000015560208201518160010160006101000a81548173ffffffffffffffffffffffffffffffffffffffff021916908373ffffffffffffffffffffffffffffffffffffffff16021790555060408201518160020190805190602001906124979291906137a6565b5060608201518160030190805190602001906124b49291906137a6565b5060808201518160040190805190602001906124d19291906137a6565b5060a0820151816005015560c0820151816006015560e08201518160070190805190602001906125029291906137a6565b50610100820151816008015590505060008090505b6000803373ffffffffffffffffffffffffffffffffffffffff1673ffffffffffffffffffffffffffffffffffffffff16815260200190815260200160002080549050811015612c1657612568613675565b6000803373ffffffffffffffffffffffffffffffffffffffff1673ffffffffffffffffffffffffffffffffffffffff16815260200190815260200160002082815481106125b157fe5b906000526020600020906009020160405180610120016040529081600082015481526020016001820160009054906101000a900473ffffffffffffffffffffffffffffffffffffffff1673ffffffffffffffffffffffffffffffffffffffff1673ffffffffffffffffffffffffffffffffffffffff168152602001600282018054600181600116156101000203166002900480601f0160208091040260200160405190810160405280929190818152602001828054600181600116156101000203166002900480156126c45780601f10612699576101008083540402835291602001916126c4565b820191906000526020600020905b8154815290600101906020018083116126a757829003601f168201915b50505050508152602001600382018054600181600116156101000203166002900480601f0160208091040260200160405190810160405280929190818152602001828054600181600116156101000203166002900480156127665780601f1061273b57610100808354040283529160200191612766565b820191906000526020600020905b81548152906001019060200180831161274957829003601f168201915b50505050508152602001600482018054600181600116156101000203166002900480601f0160208091040260200160405190810160405280929190818152602001828054600181600116156101000203166002900480156128085780601f106127dd57610100808354040283529160200191612808565b820191906000526020600020905b8154815290600101906020018083116127eb57829003601f168201915b505050505081526020016005820154815260200160068201548152602001600782018054600181600116156101000203166002900480601f0160208091040260200160405190810160405280929190818152602001828054600181600116156101000203166002900480156128be5780601f10612893576101008083540402835291602001916128be565b820191906000526020600020905b8154815290600101906020018083116128a157829003601f168201915b5050505050815260200160088201548152505090506128e18b8260000151613668565b15612c0857898160400181905250888160600181905250878160800181905250868160a0018181525050858160c0018181525050848160e001819052508381610100018181525050806000803373ffffffffffffffffffffffffffffffffffffffff1673ffffffffffffffffffffffffffffffffffffffff168152602001908152602001600020838154811061297357fe5b90600052602060002090600902016000820151816000015560208201518160010160006101000a81548173ffffffffffffffffffffffffffffffffffffffff021916908373ffffffffffffffffffffffffffffffffffffffff16021790555060408201518160020190805190602001906129ee9291906137a6565b506060820151816003019080519060200190612a0b9291906137a6565b506080820151816004019080519060200190612a289291906137a6565b5060a0820151816005015560c0820151816006015560e0820151816007019080519060200190612a599291906137a6565b50610100820151816008015590505080600160008d81526020019081526020016000206000820151816000015560208201518160010160006101000a81548173ffffffffffffffffffffffffffffffffffffffff021916908373ffffffffffffffffffffffffffffffffffffffff1602179055506040820151816002019080519060200190612ae99291906137a6565b506060820151816003019080519060200190612b069291906137a6565b506080820151816004019080519060200190612b239291906137a6565b5060a0820151816005015560c0820151816006015560e0820151816007019080519060200190612b549291906137a6565b5061010082015181600801559050507f60ba80ee6f10baf6ca04ff5d05d2a047eef48758fe0fbe4f3c8ee2671a1196e78b8a6040518083815260200180602001828103825283818151815260200191508051906020019080838360005b83811015612bcc578082015181840152602081019050612bb1565b50505050905090810190601f168015612bf95780820380516001836020036101000a031916815260200191505b50935050505060405180910390a15b508080600101915050612517565b50505050505050505050565b6000886000811415612c9c576040517f08c379a00000000000000000000000000000000000000000000000000000000081526004018080602001828103825260168152602001807f436f64652030206973206e6f7420616c6c6f7765642e0000000000000000000081525060200191505060405180910390fd5b612cbd60016000838152602001908152602001600020600001546000613668565b612d2f576040517f08c379a000000000000000000000000000000000000000000000000000000000815260040180806020018281038252601a8152602001807f5468697320636f646520697320616c726561647920757365642e00000000000081525060200191505060405180910390fd5b612d37613675565b6040518061012001604052808c81526020013373ffffffffffffffffffffffffffffffffffffffff1681526020018b81526020018a81526020018981526020018881526020018781526020018681526020018581525090506000803373ffffffffffffffffffffffffffffffffffffffff1673ffffffffffffffffffffffffffffffffffffffff16815260200190815260200160002081908060018154018082558091505090600182039060005260206000209060090201600090919290919091506000820151816000015560208201518160010160006101000a81548173ffffffffffffffffffffffffffffffffffffffff021916908373ffffffffffffffffffffffffffffffffffffffff1602179055506040820151816002019080519060200190612e669291906137a6565b506060820151816003019080519060200190612e839291906137a6565b506080820151816004019080519060200190612ea09291906137a6565b5060a0820151816005015560c0820151816006015560e0820151816007019080519060200190612ed19291906137a6565b50610100820151816008015550505080600160008d81526020019081526020016000206000820151816000015560208201518160010160006101000a81548173ffffffffffffffffffffffffffffffffffffffff021916908373ffffffffffffffffffffffffffffffffffffffff1602179055506040820151816002019080519060200190612f619291906137a6565b506060820151816003019080519060200190612f7e9291906137a6565b506080820151816004019080519060200190612f9b9291906137a6565b5060a0820151816005015560c0820151816006015560e0820151816007019080519060200190612fcc9291906137a6565b50610100820151816008015590505060038b9080600181540180825580915050906001820390600052602060002001600090919290919091505550600160038054905003600260008d8152602001908152602001600020819055506004600081548092919060010191905055507f5d2c39ba67b12187ad06f569fab089c50a0d251c27ef12e5d5442ad9459b3c388b8a6040518083815260200180602001828103825283818151815260200191508051906020019080838360005b838110156130a2578082015181840152602081019050613087565b50505050905090810190601f1680156130cf5780820380516001836020036101000a031916815260200191505b50935050505060405180910390a160019250505098975050505050505050565b60026020528060005260406000206000915090505481565b60008060608060606000806060600061311e613675565b600160008c815260200190815260200160002060405180610120016040529081600082015481526020016001820160009054906101000a900473ffffffffffffffffffffffffffffffffffffffff1673ffffffffffffffffffffffffffffffffffffffff1673ffffffffffffffffffffffffffffffffffffffff168152602001600282018054600181600116156101000203166002900480601f0160208091040260200160405190810160405280929190818152602001828054600181600116156101000203166002900480156132365780601f1061320b57610100808354040283529160200191613236565b820191906000526020600020905b81548152906001019060200180831161321957829003601f168201915b50505050508152602001600382018054600181600116156101000203166002900480601f0160208091040260200160405190810160405280929190818152602001828054600181600116156101000203166002900480156132d85780601f106132ad576101008083540402835291602001916132d8565b820191906000526020600020905b8154815290600101906020018083116132bb57829003601f168201915b50505050508152602001600482018054600181600116156101000203166002900480601f01602080910402602001604051908101604052809291908181526020018280546001816001161561010002031660029004801561337a5780601f1061334f5761010080835404028352916020019161337a565b820191906000526020600020905b81548152906001019060200180831161335d57829003601f168201915b505050505081526020016005820154815260200160068201548152602001600782018054600181600116156101000203166002900480601f0160208091040260200160405190810160405280929190818152602001828054600181600116156101000203166002900480156134305780601f1061340557610100808354040283529160200191613430565b820191906000526020600020905b81548152906001019060200180831161341357829003601f168201915b505050505081526020016008820154815250509050806000015181602001518260400151836060015184608001518560a001518660c001518760e00151886101000151869650859550849450819150995099509950995099509950995099509950509193959799909294969850565b60608060008090505b6000803373ffffffffffffffffffffffffffffffffffffffff1673ffffffffffffffffffffffffffffffffffffffff16815260200190815260200160002080549050811015613571576000803373ffffffffffffffffffffffffffffffffffffffff1673ffffffffffffffffffffffffffffffffffffffff168152602001908152602001600020818154811061353a57fe5b90600052602060002090600902016000015482828151811061355857fe5b60200260200101818152505080806001019150506134a8565b508091505090565b6000816040516020018082805190602001908083835b602083106135b2578051825260208201915060208101905060208303925061358f565b6001836020036101000a03801982511681845116808217855250505050505090500191505060405160208183030381529060405280519060200120836040516020018082805190602001908083835b602083106136245780518252602082019150602081019050602083039250613601565b6001836020036101000a0380198251168184511680821785525050505050509050019150506040516020818303038152906040528051906020012014905092915050565b6000818314905092915050565b60405180610120016040528060008152602001600073ffffffffffffffffffffffffffffffffffffffff168152602001606081526020016060815260200160608152602001600081526020016000815260200160608152602001600081525090565b828054600181600116156101000203166002900490600052602060002090601f016020900481019282601f10613710578054855561374d565b8280016001018555821561374d57600052602060002091601f016020900482015b8281111561374c578254825591600101919060010190613731565b5b50905061375a9190613826565b5090565b50805460018160011615610100020316600290046000825580601f1061378457506137a3565b601f0160209004906000526020600020908101906137a29190613826565b5b50565b828054600181600116156101000203166002900490600052602060002090601f016020900481019282601f106137e757805160ff1916838001178555613815565b82800160010185558215613815579182015b828111156138145782518255916020019190600101906137f9565b5b5090506138229190613826565b5090565b61384891905b8082111561384457600081600090555060010161382c565b5090565b9056fea265627a7a723158203aec0ccc6fdd212a526adecddeb0d01d88be5f33723e1c0a2b74c138009726dd64736f6c63430005100032",
  "source": "   pragma solidity ^0.5.11;\r\n\r\n   contract ServiceProvider {\r\n\r\n      struct Service {\r\n         uint code;\r\n         address owner;\r\n         string serviceType;\r\n         string serviceName;\r\n         string location;\r\n         uint startdate;\r\n         uint enddate;\r\n         string instructor;\r\n         uint256 costs;\r\n      }\r\n\r\n      mapping(address => Service[]) public serviseCreator;\r\n      mapping(uint => Service) public serviceCode;\r\n      mapping(uint => uint) public codeIndexAllServices;\r\n\r\n      uint[] public allServices = [0];\r\n\r\n      event ServiceIsCreated(uint code, string serviceName);\r\n      event ServiceIsUpdated(uint code, string serviceName);\r\n      event ServiceIsDeleted(uint code);\r\n      event ServiceIsRead(uint code_,\r\n         address owner,\r\n         string serviceType,\r\n         string serviceName,\r\n         string location,\r\n         uint startdate,\r\n         uint enddate,\r\n         string instructor,\r\n         uint256 costs\r\n      );\r\n      event EmitServices(address owner, uint[]);\r\n\r\n      uint totalServices = 0;\r\n\r\n      modifier legalCode(uint code){\r\n         require(code != 0, \"Code 0 is not allowed.\");\r\n         require(codesEqual((serviceCode[code]).code, 0), \"This code is already used.\");\r\n        _;\r\n      }\r\n\r\n      function createService(\r\n         uint code,\r\n         string memory serviceType,\r\n         string memory serviceName,\r\n         string memory location,\r\n         uint startdate,\r\n         uint enddate,\r\n         string memory instructor,\r\n         uint256 costs\r\n      ) public legalCode(code) returns(bool){\r\n         Service memory s = Service(code, msg.sender, serviceType, serviceName, location, startdate, enddate, instructor, costs);\r\n         serviseCreator[msg.sender].push(s);\r\n         serviceCode[code] = s;\r\n         allServices.push(code);\r\n         codeIndexAllServices[code] = (allServices.length - 1);\r\n         totalServices++;\r\n         emit ServiceIsCreated(code, serviceName);\r\n         return true;\r\n      }\r\n\r\n      function updateService(\r\n         uint code,\r\n         string memory serviceType,\r\n         string memory serviceName,\r\n         string memory location,\r\n         uint startdate,\r\n         uint enddate,\r\n         string memory instructor,\r\n         uint256 costs\r\n      ) public {\r\n         Service memory s = Service(code, msg.sender, serviceType, serviceName, location, startdate, enddate, instructor, costs);\r\n         serviseCreator[msg.sender].push(s);\r\n         serviceCode[code] = s;\r\n         for(uint256 i = 0; i < serviseCreator[msg.sender].length; i++){\r\n            Service memory s = serviseCreator[msg.sender][i];\r\n            if(codesEqual(code, s.code)){\r\n               s.serviceType = serviceType;\r\n               s.serviceName = serviceName;\r\n               s.location = location;\r\n               s.startdate = startdate;\r\n               s.enddate = enddate;\r\n               s.instructor = instructor;\r\n               s.costs = costs;\r\n               serviseCreator[msg.sender][i] = s;\r\n               serviceCode[code] = s;\r\n               emit ServiceIsUpdated(code, serviceName);\r\n            }\r\n         }\r\n      }\r\n// codeIndexAllServices\r\n      function deleteService(uint code) public {\r\n         require(totalServices > 0, 'No services are found');\r\n         for(uint256 i = 0; i < serviseCreator[msg.sender].length; i++){\r\n            if(codesEqual(code, serviseCreator[msg.sender][i].code)){\r\n               serviseCreator[msg.sender][i] = serviseCreator[msg.sender][serviseCreator[msg.sender].length-1];\r\n               delete serviseCreator[msg.sender][serviseCreator[msg.sender].length-1];\r\n               if (serviceCode[code].owner == msg.sender){\r\n                  delete serviceCode[code];\r\n                  allServices[codeIndexAllServices[code]] = allServices[totalServices];\r\n                  delete allServices[totalServices];\r\n                  delete codeIndexAllServices[code];// avoid 0 index TODO\r\n                  totalServices--;\r\n                  emit ServiceIsDeleted(code);\r\n               }\r\n            }\r\n         }\r\n      }\r\n\r\n      function findServiceByCode (uint code) public returns (\r\n         uint code_,\r\n         address owner,\r\n         string memory serviceType,\r\n         string memory serviceName,\r\n         string memory location,\r\n         uint startdate,\r\n         uint enddate,\r\n         string memory instructor,\r\n         uint256 costs\r\n      ) {\r\n         Service memory s = serviceCode[code];\r\n         // emit ServiceIsRead(\r\n         //    s.code,\r\n         //    s.owner,\r\n         //    s.serviceType,\r\n         //    s.serviceName,\r\n         //    s.location,\r\n         //    s.startdate,\r\n         //    s.enddate,\r\n         //    s.instructor,\r\n         //    s.costs\r\n         // );\r\n         return (\r\n            s.code,\r\n            s.owner,\r\n            s.serviceType,\r\n            s.serviceName,\r\n            s.location,\r\n            s.startdate,\r\n            s.enddate,\r\n            s.instructor,\r\n            s.costs\r\n         );\r\n      }\r\n\r\n      function findServiceByName (string memory serviceName) public returns (\r\n         uint code,\r\n         address owner,\r\n         string memory serviceType,\r\n         string memory serviceName_,\r\n         string memory location,\r\n         uint startdate,\r\n         uint enddate,\r\n         string memory instructor,\r\n         uint256 costs\r\n      ) {\r\n         for(uint256 i = 0; i < serviseCreator[msg.sender].length; i++){\r\n            Service memory s = serviseCreator[msg.sender][i];\r\n            if(nameEquals(serviceName, s.serviceName)){\r\n               // emit ServiceIsRead(\r\n               //    s.code,\r\n               //    s.owner,\r\n               //    s.serviceType,\r\n               //    s.serviceName,\r\n               //    s.location,\r\n               //    s.startdate,\r\n               //    s.enddate,\r\n               //    s.instructor,\r\n               //    s.costs\r\n               // );\r\n               return (\r\n                  s.code,\r\n                  s.owner,\r\n                  s.serviceType,\r\n                  s.serviceName,\r\n                  s.location,\r\n                  s.startdate,\r\n                  s.enddate,\r\n                  s.instructor,\r\n                  s.costs\r\n               );\r\n            }\r\n         }\r\n         revert('Service is not found');\r\n      }\r\n\r\n      function emitServices() public view returns (uint[] memory){\r\n         uint[] memory codes;\r\n         for(uint256 i = 0; i < serviseCreator[msg.sender].length; i++){\r\n            codes[i] = serviseCreator[msg.sender][i].code;\r\n         }\r\n         // emit EmitServices(msg.sender, codes);\r\n         return codes;\r\n      }\r\n\r\n      function emitAllServices() public {\r\n         emit EmitServices(msg.sender, allServices);\r\n         // return allServices;\r\n      }\r\n\r\n      function codesEqual (uint a, uint b) internal pure returns (bool) {\r\n         return a == b;\r\n      }\r\n\r\n      function nameEquals (string memory a, string memory b)  internal pure returns (bool){\r\n         return (keccak256(abi.encodePacked((a))) == keccak256(abi.encodePacked((b))));\r\n      }\r\n\r\n   }",
  "sourcePath": "C:/Users/prush/Documents/git/Dapp/contracts/ServiceProvider.sol",
  "compiler": {
    "name": "solc",
    "version": "0.5.16+commit.9c3226ce.Emscripten.clang"
  },
  "schemaVersion": "3.0.21",
  "updatedAt": "2020-02-05T21:15:43.480Z",
  "networkType": "ethereum",
  "devdoc": {
    "methods": {}
  },
  "userdoc": {
    "methods": {}
  }
}