{
  "contractName": "ServiceProvider",
  "abi": [
    {
      "anonymous": false,
      "inputs": [
        {
          "indexed": false,
          "internalType": "address",
          "name": "owner",
          "type": "address"
        },
        {
          "indexed": false,
          "internalType": "uint256[]",
          "name": "",
          "type": "uint256[]"
        }
      ],
      "name": "EmitServices",
      "type": "event"
    },
    {
      "anonymous": false,
      "inputs": [
        {
          "indexed": false,
          "internalType": "uint256",
          "name": "code",
          "type": "uint256"
        },
        {
          "indexed": false,
          "internalType": "string",
          "name": "serviceName",
          "type": "string"
        }
      ],
      "name": "ServiceIsCreated",
      "type": "event"
    },
    {
      "anonymous": false,
      "inputs": [
        {
          "indexed": false,
          "internalType": "uint256",
          "name": "code",
          "type": "uint256"
        }
      ],
      "name": "ServiceIsDeleted",
      "type": "event"
    },
    {
      "anonymous": false,
      "inputs": [
        {
          "indexed": false,
          "internalType": "uint256",
          "name": "code_",
          "type": "uint256"
        },
        {
          "indexed": false,
          "internalType": "address",
          "name": "owner",
          "type": "address"
        },
        {
          "indexed": false,
          "internalType": "string",
          "name": "serviceType",
          "type": "string"
        },
        {
          "indexed": false,
          "internalType": "string",
          "name": "serviceName",
          "type": "string"
        },
        {
          "indexed": false,
          "internalType": "string",
          "name": "location",
          "type": "string"
        },
        {
          "indexed": false,
          "internalType": "uint256",
          "name": "startdate",
          "type": "uint256"
        },
        {
          "indexed": false,
          "internalType": "uint256",
          "name": "enddate",
          "type": "uint256"
        },
        {
          "indexed": false,
          "internalType": "string",
          "name": "instructor",
          "type": "string"
        },
        {
          "indexed": false,
          "internalType": "string",
          "name": "costs",
          "type": "string"
        }
      ],
      "name": "ServiceIsRead",
      "type": "event"
    },
    {
      "anonymous": false,
      "inputs": [
        {
          "indexed": false,
          "internalType": "uint256",
          "name": "code",
          "type": "uint256"
        },
        {
          "indexed": false,
          "internalType": "string",
          "name": "serviceName",
          "type": "string"
        }
      ],
      "name": "ServiceIsUpdated",
      "type": "event"
    },
    {
      "constant": true,
      "inputs": [
        {
          "internalType": "uint256",
          "name": "",
          "type": "uint256"
        }
      ],
      "name": "serviceCode",
      "outputs": [
        {
          "internalType": "uint256",
          "name": "code",
          "type": "uint256"
        },
        {
          "internalType": "address",
          "name": "owner",
          "type": "address"
        },
        {
          "internalType": "string",
          "name": "serviceType",
          "type": "string"
        },
        {
          "internalType": "string",
          "name": "serviceName",
          "type": "string"
        },
        {
          "internalType": "string",
          "name": "location",
          "type": "string"
        },
        {
          "internalType": "uint256",
          "name": "startdate",
          "type": "uint256"
        },
        {
          "internalType": "uint256",
          "name": "enddate",
          "type": "uint256"
        },
        {
          "internalType": "string",
          "name": "instructor",
          "type": "string"
        },
        {
          "internalType": "string",
          "name": "costs",
          "type": "string"
        }
      ],
      "payable": false,
      "stateMutability": "view",
      "type": "function"
    },
    {
      "constant": true,
      "inputs": [
        {
          "internalType": "address",
          "name": "",
          "type": "address"
        },
        {
          "internalType": "uint256",
          "name": "",
          "type": "uint256"
        }
      ],
      "name": "serviseCreator",
      "outputs": [
        {
          "internalType": "uint256",
          "name": "code",
          "type": "uint256"
        },
        {
          "internalType": "address",
          "name": "owner",
          "type": "address"
        },
        {
          "internalType": "string",
          "name": "serviceType",
          "type": "string"
        },
        {
          "internalType": "string",
          "name": "serviceName",
          "type": "string"
        },
        {
          "internalType": "string",
          "name": "location",
          "type": "string"
        },
        {
          "internalType": "uint256",
          "name": "startdate",
          "type": "uint256"
        },
        {
          "internalType": "uint256",
          "name": "enddate",
          "type": "uint256"
        },
        {
          "internalType": "string",
          "name": "instructor",
          "type": "string"
        },
        {
          "internalType": "string",
          "name": "costs",
          "type": "string"
        }
      ],
      "payable": false,
      "stateMutability": "view",
      "type": "function"
    },
    {
      "constant": false,
      "inputs": [
        {
          "internalType": "uint256",
          "name": "code",
          "type": "uint256"
        },
        {
          "internalType": "string",
          "name": "serviceType",
          "type": "string"
        },
        {
          "internalType": "string",
          "name": "serviceName",
          "type": "string"
        },
        {
          "internalType": "string",
          "name": "location",
          "type": "string"
        },
        {
          "internalType": "uint256",
          "name": "startdate",
          "type": "uint256"
        },
        {
          "internalType": "uint256",
          "name": "enddate",
          "type": "uint256"
        },
        {
          "internalType": "string",
          "name": "instructor",
          "type": "string"
        },
        {
          "internalType": "string",
          "name": "costs",
          "type": "string"
        }
      ],
      "name": "createService",
      "outputs": [
        {
          "internalType": "uint256",
          "name": "code_",
          "type": "uint256"
        }
      ],
      "payable": false,
      "stateMutability": "nonpayable",
      "type": "function"
    },
    {
      "constant": false,
      "inputs": [
        {
          "internalType": "uint256",
          "name": "code",
          "type": "uint256"
        },
        {
          "internalType": "string",
          "name": "serviceType",
          "type": "string"
        },
        {
          "internalType": "string",
          "name": "serviceName",
          "type": "string"
        },
        {
          "internalType": "string",
          "name": "location",
          "type": "string"
        },
        {
          "internalType": "uint256",
          "name": "startdate",
          "type": "uint256"
        },
        {
          "internalType": "uint256",
          "name": "enddate",
          "type": "uint256"
        },
        {
          "internalType": "string",
          "name": "instructor",
          "type": "string"
        },
        {
          "internalType": "string",
          "name": "costs",
          "type": "string"
        }
      ],
      "name": "updateService",
      "outputs": [
        {
          "internalType": "bool",
          "name": "success",
          "type": "bool"
        }
      ],
      "payable": false,
      "stateMutability": "nonpayable",
      "type": "function"
    },
    {
      "constant": false,
      "inputs": [
        {
          "internalType": "uint256",
          "name": "code",
          "type": "uint256"
        }
      ],
      "name": "deleteService",
      "outputs": [
        {
          "internalType": "bool",
          "name": "success",
          "type": "bool"
        }
      ],
      "payable": false,
      "stateMutability": "nonpayable",
      "type": "function"
    },
    {
      "constant": false,
      "inputs": [
        {
          "internalType": "uint256",
          "name": "code",
          "type": "uint256"
        }
      ],
      "name": "findServiceByCode",
      "outputs": [
        {
          "internalType": "uint256",
          "name": "code_",
          "type": "uint256"
        },
        {
          "internalType": "address",
          "name": "owner",
          "type": "address"
        },
        {
          "internalType": "string",
          "name": "serviceType",
          "type": "string"
        },
        {
          "internalType": "string",
          "name": "serviceName",
          "type": "string"
        },
        {
          "internalType": "string",
          "name": "location",
          "type": "string"
        },
        {
          "internalType": "uint256",
          "name": "startdate",
          "type": "uint256"
        },
        {
          "internalType": "uint256",
          "name": "enddate",
          "type": "uint256"
        },
        {
          "internalType": "string",
          "name": "instructor",
          "type": "string"
        },
        {
          "internalType": "string",
          "name": "costs",
          "type": "string"
        }
      ],
      "payable": true,
      "stateMutability": "payable",
      "type": "function"
    },
    {
      "constant": false,
      "inputs": [
        {
          "internalType": "string",
          "name": "serviceName",
          "type": "string"
        }
      ],
      "name": "findServiceByName",
      "outputs": [
        {
          "internalType": "uint256",
          "name": "code",
          "type": "uint256"
        },
        {
          "internalType": "address",
          "name": "owner",
          "type": "address"
        },
        {
          "internalType": "string",
          "name": "serviceType",
          "type": "string"
        },
        {
          "internalType": "string",
          "name": "serviceName_",
          "type": "string"
        },
        {
          "internalType": "string",
          "name": "location",
          "type": "string"
        },
        {
          "internalType": "uint256",
          "name": "startdate",
          "type": "uint256"
        },
        {
          "internalType": "uint256",
          "name": "enddate",
          "type": "uint256"
        },
        {
          "internalType": "string",
          "name": "instructor",
          "type": "string"
        },
        {
          "internalType": "string",
          "name": "costs",
          "type": "string"
        }
      ],
      "payable": true,
      "stateMutability": "payable",
      "type": "function"
    },
    {
      "constant": true,
      "inputs": [],
      "name": "emitServices",
      "outputs": [
        {
          "internalType": "uint256[]",
          "name": "",
          "type": "uint256[]"
        }
      ],
      "payable": false,
      "stateMutability": "view",
      "type": "function"
    },
    {
      "constant": true,
      "inputs": [],
      "name": "emitAllServices",
      "outputs": [
        {
          "internalType": "uint256[]",
          "name": "",
          "type": "uint256[]"
        }
      ],
      "payable": false,
      "stateMutability": "view",
      "type": "function"
    }
  ],
  "bytecode": "0x6080604052600060035534801561001557600080fd5b5061432a806100256000396000f3fe6080604052600436106100865760003560e01c806374e29ee61161005957806374e29ee61461099b5780638c575de9146109ee578063bf2c1c3314610d45578063fb3458a6146110a0578063fd72984d1461133f57610086565b806301a1229e1461008b57806317306fb21461035757806317b0a1ef146103c35780633699816c146106ef575b600080fd5b34801561009757600080fd5b506100e4600480360360408110156100ae57600080fd5b81019080803573ffffffffffffffffffffffffffffffffffffffff169060200190929190803590602001909291905050506113ab565b604051808a81526020018973ffffffffffffffffffffffffffffffffffffffff1673ffffffffffffffffffffffffffffffffffffffff168152602001806020018060200180602001888152602001878152602001806020018060200186810386528d818151815260200191508051906020019080838360005b8381101561017857808201518184015260208101905061015d565b50505050905090810190601f1680156101a55780820380516001836020036101000a031916815260200191505b5086810385528c818151815260200191508051906020019080838360005b838110156101de5780820151818401526020810190506101c3565b50505050905090810190601f16801561020b5780820380516001836020036101000a031916815260200191505b5086810384528b818151815260200191508051906020019080838360005b83811015610244578082015181840152602081019050610229565b50505050905090810190601f1680156102715780820380516001836020036101000a031916815260200191505b50868103835288818151815260200191508051906020019080838360005b838110156102aa57808201518184015260208101905061028f565b50505050905090810190601f1680156102d75780820380516001836020036101000a031916815260200191505b50868103825287818151815260200191508051906020019080838360005b838110156103105780820151818401526020810190506102f5565b50505050905090810190601f16801561033d5780820380516001836020036101000a031916815260200191505b509e50505050505050505050505050505060405180910390f35b34801561036357600080fd5b5061036c61172b565b6040518080602001828103825283818151815260200191508051906020019060200280838360005b838110156103af578082015181840152602081019050610394565b505050509050019250505060405180910390f35b61047c600480360360208110156103d957600080fd5b81019080803590602001906401000000008111156103f657600080fd5b82018360208201111561040857600080fd5b8035906020019184600183028401116401000000008311171561042a57600080fd5b91908080601f016020809104026020016040519081016040528093929190818152602001838380828437600081840152601f19601f820116905080830192505050505050509192919290505050611783565b604051808a81526020018973ffffffffffffffffffffffffffffffffffffffff1673ffffffffffffffffffffffffffffffffffffffff168152602001806020018060200180602001888152602001878152602001806020018060200186810386528d818151815260200191508051906020019080838360005b838110156105105780820151818401526020810190506104f5565b50505050905090810190601f16801561053d5780820380516001836020036101000a031916815260200191505b5086810385528c818151815260200191508051906020019080838360005b8381101561057657808201518184015260208101905061055b565b50505050905090810190601f1680156105a35780820380516001836020036101000a031916815260200191505b5086810384528b818151815260200191508051906020019080838360005b838110156105dc5780820151818401526020810190506105c1565b50505050905090810190601f1680156106095780820380516001836020036101000a031916815260200191505b50868103835288818151815260200191508051906020019080838360005b83811015610642578082015181840152602081019050610627565b50505050905090810190601f16801561066f5780820380516001836020036101000a031916815260200191505b50868103825287818151815260200191508051906020019080838360005b838110156106a857808201518184015260208101905061068d565b50505050905090810190601f1680156106d55780820380516001836020036101000a031916815260200191505b509e50505050505050505050505050505060405180910390f35b3480156106fb57600080fd5b506107286004803603602081101561071257600080fd5b8101908080359060200190929190505050611f9f565b604051808a81526020018973ffffffffffffffffffffffffffffffffffffffff1673ffffffffffffffffffffffffffffffffffffffff168152602001806020018060200180602001888152602001878152602001806020018060200186810386528d818151815260200191508051906020019080838360005b838110156107bc5780820151818401526020810190506107a1565b50505050905090810190601f1680156107e95780820380516001836020036101000a031916815260200191505b5086810385528c818151815260200191508051906020019080838360005b83811015610822578082015181840152602081019050610807565b50505050905090810190601f16801561084f5780820380516001836020036101000a031916815260200191505b5086810384528b818151815260200191508051906020019080838360005b8381101561088857808201518184015260208101905061086d565b50505050905090810190601f1680156108b55780820380516001836020036101000a031916815260200191505b50868103835288818151815260200191508051906020019080838360005b838110156108ee5780820151818401526020810190506108d3565b50505050905090810190601f16801561091b5780820380516001836020036101000a031916815260200191505b50868103825287818151815260200191508051906020019080838360005b83811015610954578082015181840152602081019050610939565b50505050905090810190601f1680156109815780820380516001836020036101000a031916815260200191505b509e50505050505050505050505050505060405180910390f35b3480156109a757600080fd5b506109d4600480360360208110156109be57600080fd5b8101908080359060200190929190505050612305565b604051808215151515815260200191505060405180910390f35b3480156109fa57600080fd5b50610d2f6004803603610100811015610a1257600080fd5b810190808035906020019092919080359060200190640100000000811115610a3957600080fd5b820183602082011115610a4b57600080fd5b80359060200191846001830284011164010000000083111715610a6d57600080fd5b91908080601f016020809104026020016040519081016040528093929190818152602001838380828437600081840152601f19601f82011690508083019250505050505050919291929080359060200190640100000000811115610ad057600080fd5b820183602082011115610ae257600080fd5b80359060200191846001830284011164010000000083111715610b0457600080fd5b91908080601f016020809104026020016040519081016040528093929190818152602001838380828437600081840152601f19601f82011690508083019250505050505050919291929080359060200190640100000000811115610b6757600080fd5b820183602082011115610b7957600080fd5b80359060200191846001830284011164010000000083111715610b9b57600080fd5b91908080601f016020809104026020016040519081016040528093929190818152602001838380828437600081840152601f19601f820116905080830192505050505050509192919290803590602001909291908035906020019092919080359060200190640100000000811115610c1257600080fd5b820183602082011115610c2457600080fd5b80359060200191846001830284011164010000000083111715610c4657600080fd5b91908080601f016020809104026020016040519081016040528093929190818152602001838380828437600081840152601f19601f82011690508083019250505050505050919291929080359060200190640100000000811115610ca957600080fd5b820183602082011115610cbb57600080fd5b80359060200191846001830284011164010000000083111715610cdd57600080fd5b91908080601f016020809104026020016040519081016040528093929190818152602001838380828437600081840152601f19601f820116905080830192505050505050509192919290505050612959565b6040518082815260200191505060405180910390f35b348015610d5157600080fd5b506110866004803603610100811015610d6957600080fd5b810190808035906020019092919080359060200190640100000000811115610d9057600080fd5b820183602082011115610da257600080fd5b80359060200191846001830284011164010000000083111715610dc457600080fd5b91908080601f016020809104026020016040519081016040528093929190818152602001838380828437600081840152601f19601f82011690508083019250505050505050919291929080359060200190640100000000811115610e2757600080fd5b820183602082011115610e3957600080fd5b80359060200191846001830284011164010000000083111715610e5b57600080fd5b91908080601f016020809104026020016040519081016040528093929190818152602001838380828437600081840152601f19601f82011690508083019250505050505050919291929080359060200190640100000000811115610ebe57600080fd5b820183602082011115610ed057600080fd5b80359060200191846001830284011164010000000083111715610ef257600080fd5b91908080601f016020809104026020016040519081016040528093929190818152602001838380828437600081840152601f19601f820116905080830192505050505050509192919290803590602001909291908035906020019092919080359060200190640100000000811115610f6957600080fd5b820183602082011115610f7b57600080fd5b80359060200191846001830284011164010000000083111715610f9d57600080fd5b91908080601f016020809104026020016040519081016040528093929190818152602001838380828437600081840152601f19601f8201169050808301925050505050505091929192908035906020019064010000000081111561100057600080fd5b82018360208201111561101257600080fd5b8035906020019184600183028401116401000000008311171561103457600080fd5b91908080601f016020809104026020016040519081016040528093929190818152602001838380828437600081840152601f19601f820116905080830192505050505050509192919290505050612d5a565b604051808215151515815260200191505060405180910390f35b6110cc600480360360208110156110b657600080fd5b8101908080359060200190929190505050613856565b604051808a81526020018973ffffffffffffffffffffffffffffffffffffffff1673ffffffffffffffffffffffffffffffffffffffff168152602001806020018060200180602001888152602001878152602001806020018060200186810386528d818151815260200191508051906020019080838360005b83811015611160578082015181840152602081019050611145565b50505050905090810190601f16801561118d5780820380516001836020036101000a031916815260200191505b5086810385528c818151815260200191508051906020019080838360005b838110156111c65780820151818401526020810190506111ab565b50505050905090810190601f1680156111f35780820380516001836020036101000a031916815260200191505b5086810384528b818151815260200191508051906020019080838360005b8381101561122c578082015181840152602081019050611211565b50505050905090810190601f1680156112595780820380516001836020036101000a031916815260200191505b50868103835288818151815260200191508051906020019080838360005b83811015611292578082015181840152602081019050611277565b50505050905090810190601f1680156112bf5780820380516001836020036101000a031916815260200191505b50868103825287818151815260200191508051906020019080838360005b838110156112f85780820151818401526020810190506112dd565b50505050905090810190601f1680156113255780820380516001836020036101000a031916815260200191505b509e50505050505050505050505050505060405180910390f35b34801561134b57600080fd5b50611354613f49565b6040518080602001828103825283818151815260200191508051906020019060200280838360005b8381101561139757808201518184015260208101905061137c565b505050509050019250505060405180910390f35b600060205281600052604060002081815481106113c457fe5b9060005260206000209060090201600091509150508060000154908060010160009054906101000a900473ffffffffffffffffffffffffffffffffffffffff1690806002018054600181600116156101000203166002900480601f01602080910402602001604051908101604052809291908181526020018280546001816001161561010002031660029004801561149d5780601f106114725761010080835404028352916020019161149d565b820191906000526020600020905b81548152906001019060200180831161148057829003601f168201915b505050505090806003018054600181600116156101000203166002900480601f01602080910402602001604051908101604052809291908181526020018280546001816001161561010002031660029004801561153b5780601f106115105761010080835404028352916020019161153b565b820191906000526020600020905b81548152906001019060200180831161151e57829003601f168201915b505050505090806004018054600181600116156101000203166002900480601f0160208091040260200160405190810160405280929190818152602001828054600181600116156101000203166002900480156115d95780601f106115ae576101008083540402835291602001916115d9565b820191906000526020600020905b8154815290600101906020018083116115bc57829003601f168201915b505050505090806005015490806006015490806007018054600181600116156101000203166002900480601f0160208091040260200160405190810160405280929190818152602001828054600181600116156101000203166002900480156116835780601f1061165857610100808354040283529160200191611683565b820191906000526020600020905b81548152906001019060200180831161166657829003601f168201915b505050505090806008018054600181600116156101000203166002900480601f0160208091040260200160405190810160405280929190818152602001828054600181600116156101000203166002900480156117215780601f106116f657610100808354040283529160200191611721565b820191906000526020600020905b81548152906001019060200180831161170457829003601f168201915b5050505050905089565b6060600280548060200260200160405190810160405280929190818152602001828054801561177957602002820191906000526020600020905b815481526020019060010190808311611765575b5050505050905090565b600080606080606060008060608060008090505b6000803373ffffffffffffffffffffffffffffffffffffffff1673ffffffffffffffffffffffffffffffffffffffff16815260200190815260200160002080549050811015611f23576117e861411f565b6000803373ffffffffffffffffffffffffffffffffffffffff1673ffffffffffffffffffffffffffffffffffffffff168152602001908152602001600020828154811061183157fe5b906000526020600020906009020160405180610120016040529081600082015481526020016001820160009054906101000a900473ffffffffffffffffffffffffffffffffffffffff1673ffffffffffffffffffffffffffffffffffffffff1673ffffffffffffffffffffffffffffffffffffffff168152602001600282018054600181600116156101000203166002900480601f0160208091040260200160405190810160405280929190818152602001828054600181600116156101000203166002900480156119445780601f1061191957610100808354040283529160200191611944565b820191906000526020600020905b81548152906001019060200180831161192757829003601f168201915b50505050508152602001600382018054600181600116156101000203166002900480601f0160208091040260200160405190810160405280929190818152602001828054600181600116156101000203166002900480156119e65780601f106119bb576101008083540402835291602001916119e6565b820191906000526020600020905b8154815290600101906020018083116119c957829003601f168201915b50505050508152602001600482018054600181600116156101000203166002900480601f016020809104026020016040519081016040528092919081815260200182805460018160011615610100020316600290048015611a885780601f10611a5d57610100808354040283529160200191611a88565b820191906000526020600020905b815481529060010190602001808311611a6b57829003601f168201915b505050505081526020016005820154815260200160068201548152602001600782018054600181600116156101000203166002900480601f016020809104026020016040519081016040528092919081815260200182805460018160011615610100020316600290048015611b3e5780601f10611b1357610100808354040283529160200191611b3e565b820191906000526020600020905b815481529060010190602001808311611b2157829003601f168201915b50505050508152602001600882018054600181600116156101000203166002900480601f016020809104026020016040519081016040528092919081815260200182805460018160011615610100020316600290048015611be05780601f10611bb557610100808354040283529160200191611be0565b820191906000526020600020905b815481529060010190602001808311611bc357829003601f168201915b5050505050815250509050611bf98c8260600151614023565b15611f15577fb59c34ae3a97ef2cf89833921407e65e3a1fa0884a65a21307124e5466b40044816000015182602001518360400151846060015185608001518660a001518760c001518860e00151896101000151604051808a81526020018973ffffffffffffffffffffffffffffffffffffffff1673ffffffffffffffffffffffffffffffffffffffff168152602001806020018060200180602001888152602001878152602001806020018060200186810386528d818151815260200191508051906020019080838360005b83811015611ce1578082015181840152602081019050611cc6565b50505050905090810190601f168015611d0e5780820380516001836020036101000a031916815260200191505b5086810385528c818151815260200191508051906020019080838360005b83811015611d47578082015181840152602081019050611d2c565b50505050905090810190601f168015611d745780820380516001836020036101000a031916815260200191505b5086810384528b818151815260200191508051906020019080838360005b83811015611dad578082015181840152602081019050611d92565b50505050905090810190601f168015611dda5780820380516001836020036101000a031916815260200191505b50868103835288818151815260200191508051906020019080838360005b83811015611e13578082015181840152602081019050611df8565b50505050905090810190601f168015611e405780820380516001836020036101000a031916815260200191505b50868103825287818151815260200191508051906020019080838360005b83811015611e79578082015181840152602081019050611e5e565b50505050905090810190601f168015611ea65780820380516001836020036101000a031916815260200191505b509e50505050505050505050505050505060405180910390a1806000015181602001518260400151836060015184608001518560a001518660c001518760e001518861010001518696508595508494508191508090509a509a509a509a509a509a509a509a509a505050611f92565b508080600101915050611797565b506040517f08c379a00000000000000000000000000000000000000000000000000000000081526004018080602001828103825260148152602001807f53657276696365206973206e6f7420666f756e6400000000000000000000000081525060200191505060405180910390fd5b9193959799909294969850565b60016020528060005260406000206000915090508060000154908060010160009054906101000a900473ffffffffffffffffffffffffffffffffffffffff1690806002018054600181600116156101000203166002900480601f0160208091040260200160405190810160405280929190818152602001828054600181600116156101000203166002900480156120775780601f1061204c57610100808354040283529160200191612077565b820191906000526020600020905b81548152906001019060200180831161205a57829003601f168201915b505050505090806003018054600181600116156101000203166002900480601f0160208091040260200160405190810160405280929190818152602001828054600181600116156101000203166002900480156121155780601f106120ea57610100808354040283529160200191612115565b820191906000526020600020905b8154815290600101906020018083116120f857829003601f168201915b505050505090806004018054600181600116156101000203166002900480601f0160208091040260200160405190810160405280929190818152602001828054600181600116156101000203166002900480156121b35780601f10612188576101008083540402835291602001916121b3565b820191906000526020600020905b81548152906001019060200180831161219657829003601f168201915b505050505090806005015490806006015490806007018054600181600116156101000203166002900480601f01602080910402602001604051908101604052809291908181526020018280546001816001161561010002031660029004801561225d5780601f106122325761010080835404028352916020019161225d565b820191906000526020600020905b81548152906001019060200180831161224057829003601f168201915b505050505090806008018054600181600116156101000203166002900480601f0160208091040260200160405190810160405280929190818152602001828054600181600116156101000203166002900480156122fb5780601f106122d0576101008083540402835291602001916122fb565b820191906000526020600020905b8154815290600101906020018083116122de57829003601f168201915b5050505050905089565b6000806003541161237e576040517f08c379a00000000000000000000000000000000000000000000000000000000081526004018080602001828103825260158152602001807f4e6f2073657276696365732061726520666f756e64000000000000000000000081525060200191505060405180910390fd5b60008090505b6000803373ffffffffffffffffffffffffffffffffffffffff1673ffffffffffffffffffffffffffffffffffffffff1681526020019081526020016000208054905081101561294e57612431836000803373ffffffffffffffffffffffffffffffffffffffff1673ffffffffffffffffffffffffffffffffffffffff168152602001908152602001600020838154811061241a57fe5b906000526020600020906009020160000154614112565b15612941576000803373ffffffffffffffffffffffffffffffffffffffff1673ffffffffffffffffffffffffffffffffffffffff16815260200190815260200160002060016000803373ffffffffffffffffffffffffffffffffffffffff1673ffffffffffffffffffffffffffffffffffffffff1681526020019081526020016000208054905003815481106124c357fe5b90600052602060002090600902016000803373ffffffffffffffffffffffffffffffffffffffff1673ffffffffffffffffffffffffffffffffffffffff168152602001908152602001600020828154811061251a57fe5b9060005260206000209060090201600082015481600001556001820160009054906101000a900473ffffffffffffffffffffffffffffffffffffffff168160010160006101000a81548173ffffffffffffffffffffffffffffffffffffffff021916908373ffffffffffffffffffffffffffffffffffffffff160217905550600282018160020190805460018160011615610100020316600290046125c0929190614181565b50600382018160030190805460018160011615610100020316600290046125e8929190614181565b5060048201816004019080546001816001161561010002031660029004612610929190614181565b5060058201548160050155600682015481600601556007820181600701908054600181600116156101000203166002900461264c929190614181565b5060088201816008019080546001816001161561010002031660029004612674929190614181565b509050506000803373ffffffffffffffffffffffffffffffffffffffff1673ffffffffffffffffffffffffffffffffffffffff16815260200190815260200160002060016000803373ffffffffffffffffffffffffffffffffffffffff1673ffffffffffffffffffffffffffffffffffffffff16815260200190815260200160002080549050038154811061270557fe5b90600052602060002090600902016000808201600090556001820160006101000a81549073ffffffffffffffffffffffffffffffffffffffff02191690556002820160006127539190614208565b6003820160006127639190614208565b6004820160006127739190614208565b600582016000905560068201600090556007820160006127939190614208565b6008820160006127a39190614208565b50503373ffffffffffffffffffffffffffffffffffffffff166001600085815260200190815260200160002060010160009054906101000a900473ffffffffffffffffffffffffffffffffffffffff1673ffffffffffffffffffffffffffffffffffffffff16141561294057600160008481526020019081526020016000206000808201600090556001820160006101000a81549073ffffffffffffffffffffffffffffffffffffffff02191690556002820160006128629190614208565b6003820160006128729190614208565b6004820160006128829190614208565b600582016000905560068201600090556007820160006128a29190614208565b6008820160006128b29190614208565b50506002600160035403815481106128c657fe5b9060005260206000200154600282815481106128de57fe5b9060005260206000200181905550600360008154809291906001900391905055507facbfc76caa52832682d88ce0f5e7e0f9be2c59153e170b9ae1c87f6682038203836040518082815260200191505060405180910390a16001915050612954565b5b8080600101915050612384565b50600090505b919050565b60008060003373ffffffffffffffffffffffffffffffffffffffff1673ffffffffffffffffffffffffffffffffffffffff1681526020019081526020016000206040518061012001604052808b81526020013373ffffffffffffffffffffffffffffffffffffffff1681526020018a815260200189815260200188815260200187815260200186815260200185815260200184815250908060018154018082558091505090600182039060005260206000209060090201600090919290919091506000820151816000015560208201518160010160006101000a81548173ffffffffffffffffffffffffffffffffffffffff021916908373ffffffffffffffffffffffffffffffffffffffff1602179055506040820151816002019080519060200190612a87929190614250565b506060820151816003019080519060200190612aa4929190614250565b506080820151816004019080519060200190612ac1929190614250565b5060a0820151816005015560c0820151816006015560e0820151816007019080519060200190612af2929190614250565b50610100820151816008019080519060200190612b10929190614250565b505050506040518061012001604052808a81526020013373ffffffffffffffffffffffffffffffffffffffff16815260200189815260200188815260200187815260200186815260200185815260200184815260200183815250600160008b81526020019081526020016000206000820151816000015560208201518160010160006101000a81548173ffffffffffffffffffffffffffffffffffffffff021916908373ffffffffffffffffffffffffffffffffffffffff1602179055506040820151816002019080519060200190612bea929190614250565b506060820151816003019080519060200190612c07929190614250565b506080820151816004019080519060200190612c24929190614250565b5060a0820151816005015560c0820151816006015560e0820151816007019080519060200190612c55929190614250565b50610100820151816008019080519060200190612c73929190614250565b5090505088600260035481548110612c8757fe5b90600052602060002001819055506003600081548092919060010191905055507f5d2c39ba67b12187ad06f569fab089c50a0d251c27ef12e5d5442ad9459b3c3889886040518083815260200180602001828103825283818151815260200191508051906020019080838360005b83811015612d10578082015181840152602081019050612cf5565b50505050905090810190601f168015612d3d5780820380516001836020036101000a031916815260200191505b50935050505060405180910390a188905098975050505050505050565b60008060003373ffffffffffffffffffffffffffffffffffffffff1673ffffffffffffffffffffffffffffffffffffffff1681526020019081526020016000206040518061012001604052808b81526020013373ffffffffffffffffffffffffffffffffffffffff1681526020018a815260200189815260200188815260200187815260200186815260200185815260200184815250908060018154018082558091505090600182039060005260206000209060090201600090919290919091506000820151816000015560208201518160010160006101000a81548173ffffffffffffffffffffffffffffffffffffffff021916908373ffffffffffffffffffffffffffffffffffffffff1602179055506040820151816002019080519060200190612e88929190614250565b506060820151816003019080519060200190612ea5929190614250565b506080820151816004019080519060200190612ec2929190614250565b5060a0820151816005015560c0820151816006015560e0820151816007019080519060200190612ef3929190614250565b50610100820151816008019080519060200190612f11929190614250565b505050506040518061012001604052808a81526020013373ffffffffffffffffffffffffffffffffffffffff16815260200189815260200188815260200187815260200186815260200185815260200184815260200183815250600160008b81526020019081526020016000206000820151816000015560208201518160010160006101000a81548173ffffffffffffffffffffffffffffffffffffffff021916908373ffffffffffffffffffffffffffffffffffffffff1602179055506040820151816002019080519060200190612feb929190614250565b506060820151816003019080519060200190613008929190614250565b506080820151816004019080519060200190613025929190614250565b5060a0820151816005015560c0820151816006015560e0820151816007019080519060200190613056929190614250565b50610100820151816008019080519060200190613074929190614250565b5090505060008090505b6000803373ffffffffffffffffffffffffffffffffffffffff1673ffffffffffffffffffffffffffffffffffffffff16815260200190815260200160002080549050811015613844576130cf61411f565b6000803373ffffffffffffffffffffffffffffffffffffffff1673ffffffffffffffffffffffffffffffffffffffff168152602001908152602001600020828154811061311857fe5b906000526020600020906009020160405180610120016040529081600082015481526020016001820160009054906101000a900473ffffffffffffffffffffffffffffffffffffffff1673ffffffffffffffffffffffffffffffffffffffff1673ffffffffffffffffffffffffffffffffffffffff168152602001600282018054600181600116156101000203166002900480601f01602080910402602001604051908101604052809291908181526020018280546001816001161561010002031660029004801561322b5780601f106132005761010080835404028352916020019161322b565b820191906000526020600020905b81548152906001019060200180831161320e57829003601f168201915b50505050508152602001600382018054600181600116156101000203166002900480601f0160208091040260200160405190810160405280929190818152602001828054600181600116156101000203166002900480156132cd5780601f106132a2576101008083540402835291602001916132cd565b820191906000526020600020905b8154815290600101906020018083116132b057829003601f168201915b50505050508152602001600482018054600181600116156101000203166002900480601f01602080910402602001604051908101604052809291908181526020018280546001816001161561010002031660029004801561336f5780601f106133445761010080835404028352916020019161336f565b820191906000526020600020905b81548152906001019060200180831161335257829003601f168201915b505050505081526020016005820154815260200160068201548152602001600782018054600181600116156101000203166002900480601f0160208091040260200160405190810160405280929190818152602001828054600181600116156101000203166002900480156134255780601f106133fa57610100808354040283529160200191613425565b820191906000526020600020905b81548152906001019060200180831161340857829003601f168201915b50505050508152602001600882018054600181600116156101000203166002900480601f0160208091040260200160405190810160405280929190818152602001828054600181600116156101000203166002900480156134c75780601f1061349c576101008083540402835291602001916134c7565b820191906000526020600020905b8154815290600101906020018083116134aa57829003601f168201915b50505050508152505090506134e08b8260000151614112565b1561383657898160400181905250888160600181905250878160800181905250868160a0018181525050858160c0018181525050848160e0018190525083816101000181905250806000803373ffffffffffffffffffffffffffffffffffffffff1673ffffffffffffffffffffffffffffffffffffffff168152602001908152602001600020838154811061357157fe5b90600052602060002090600902016000820151816000015560208201518160010160006101000a81548173ffffffffffffffffffffffffffffffffffffffff021916908373ffffffffffffffffffffffffffffffffffffffff16021790555060408201518160020190805190602001906135ec929190614250565b506060820151816003019080519060200190613609929190614250565b506080820151816004019080519060200190613626929190614250565b5060a0820151816005015560c0820151816006015560e0820151816007019080519060200190613657929190614250565b50610100820151816008019080519060200190613675929190614250565b5090505080600160008d81526020019081526020016000206000820151816000015560208201518160010160006101000a81548173ffffffffffffffffffffffffffffffffffffffff021916908373ffffffffffffffffffffffffffffffffffffffff16021790555060408201518160020190805190602001906136fa929190614250565b506060820151816003019080519060200190613717929190614250565b506080820151816004019080519060200190613734929190614250565b5060a0820151816005015560c0820151816006015560e0820151816007019080519060200190613765929190614250565b50610100820151816008019080519060200190613783929190614250565b509050507f60ba80ee6f10baf6ca04ff5d05d2a047eef48758fe0fbe4f3c8ee2671a1196e78b8a6040518083815260200180602001828103825283818151815260200191508051906020019080838360005b838110156137f05780820151818401526020810190506137d5565b50505050905090810190601f16801561381d5780820380516001836020036101000a031916815260200191505b50935050505060405180910390a160019250505061384a565b50808060010191505061307e565b50600090505b98975050505050505050565b600080606080606060008060608061386c61411f565b600160008c815260200190815260200160002060405180610120016040529081600082015481526020016001820160009054906101000a900473ffffffffffffffffffffffffffffffffffffffff1673ffffffffffffffffffffffffffffffffffffffff1673ffffffffffffffffffffffffffffffffffffffff168152602001600282018054600181600116156101000203166002900480601f0160208091040260200160405190810160405280929190818152602001828054600181600116156101000203166002900480156139845780601f1061395957610100808354040283529160200191613984565b820191906000526020600020905b81548152906001019060200180831161396757829003601f168201915b50505050508152602001600382018054600181600116156101000203166002900480601f016020809104026020016040519081016040528092919081815260200182805460018160011615610100020316600290048015613a265780601f106139fb57610100808354040283529160200191613a26565b820191906000526020600020905b815481529060010190602001808311613a0957829003601f168201915b50505050508152602001600482018054600181600116156101000203166002900480601f016020809104026020016040519081016040528092919081815260200182805460018160011615610100020316600290048015613ac85780601f10613a9d57610100808354040283529160200191613ac8565b820191906000526020600020905b815481529060010190602001808311613aab57829003601f168201915b505050505081526020016005820154815260200160068201548152602001600782018054600181600116156101000203166002900480601f016020809104026020016040519081016040528092919081815260200182805460018160011615610100020316600290048015613b7e5780601f10613b5357610100808354040283529160200191613b7e565b820191906000526020600020905b815481529060010190602001808311613b6157829003601f168201915b50505050508152602001600882018054600181600116156101000203166002900480601f016020809104026020016040519081016040528092919081815260200182805460018160011615610100020316600290048015613c205780601f10613bf557610100808354040283529160200191613c20565b820191906000526020600020905b815481529060010190602001808311613c0357829003601f168201915b50505050508152505090507fb59c34ae3a97ef2cf89833921407e65e3a1fa0884a65a21307124e5466b40044816000015182602001518360400151846060015185608001518660a001518760c001518860e00151896101000151604051808a81526020018973ffffffffffffffffffffffffffffffffffffffff1673ffffffffffffffffffffffffffffffffffffffff168152602001806020018060200180602001888152602001878152602001806020018060200186810386528d818151815260200191508051906020019080838360005b83811015613d0e578082015181840152602081019050613cf3565b50505050905090810190601f168015613d3b5780820380516001836020036101000a031916815260200191505b5086810385528c818151815260200191508051906020019080838360005b83811015613d74578082015181840152602081019050613d59565b50505050905090810190601f168015613da15780820380516001836020036101000a031916815260200191505b5086810384528b818151815260200191508051906020019080838360005b83811015613dda578082015181840152602081019050613dbf565b50505050905090810190601f168015613e075780820380516001836020036101000a031916815260200191505b50868103835288818151815260200191508051906020019080838360005b83811015613e40578082015181840152602081019050613e25565b50505050905090810190601f168015613e6d5780820380516001836020036101000a031916815260200191505b50868103825287818151815260200191508051906020019080838360005b83811015613ea6578082015181840152602081019050613e8b565b50505050905090810190601f168015613ed35780820380516001836020036101000a031916815260200191505b509e50505050505050505050505050505060405180910390a1806000015181602001518260400151836060015184608001518560a001518660c001518760e00151886101000151869650859550849450819150809050995099509950995099509950995099509950509193959799909294969850565b60608060008090505b6000803373ffffffffffffffffffffffffffffffffffffffff1673ffffffffffffffffffffffffffffffffffffffff1681526020019081526020016000208054905081101561401b576000803373ffffffffffffffffffffffffffffffffffffffff1673ffffffffffffffffffffffffffffffffffffffff1681526020019081526020016000208181548110613fe457fe5b90600052602060002090600902016000015482828151811061400257fe5b6020026020010181815250508080600101915050613f52565b508091505090565b6000816040516020018082805190602001908083835b6020831061405c5780518252602082019150602081019050602083039250614039565b6001836020036101000a03801982511681845116808217855250505050505090500191505060405160208183030381529060405280519060200120836040516020018082805190602001908083835b602083106140ce57805182526020820191506020810190506020830392506140ab565b6001836020036101000a0380198251168184511680821785525050505050509050019150506040516020818303038152906040528051906020012014905092915050565b6000818314905092915050565b60405180610120016040528060008152602001600073ffffffffffffffffffffffffffffffffffffffff168152602001606081526020016060815260200160608152602001600081526020016000815260200160608152602001606081525090565b828054600181600116156101000203166002900490600052602060002090601f016020900481019282601f106141ba57805485556141f7565b828001600101855582156141f757600052602060002091601f016020900482015b828111156141f65782548255916001019190600101906141db565b5b50905061420491906142d0565b5090565b50805460018160011615610100020316600290046000825580601f1061422e575061424d565b601f01602090049060005260206000209081019061424c91906142d0565b5b50565b828054600181600116156101000203166002900490600052602060002090601f016020900481019282601f1061429157805160ff19168380011785556142bf565b828001600101855582156142bf579182015b828111156142be5782518255916020019190600101906142a3565b5b5090506142cc91906142d0565b5090565b6142f291905b808211156142ee5760008160009055506001016142d6565b5090565b9056fea265627a7a72315820ef8377da40d00a596a696b8eb4adcc0cdd95a0afbc0711a9aefff5e96c18debc64736f6c63430005100032",
  "source": "pragma solidity ^0.5.11;\r\n\r\ncontract ServiceProvider {\r\n\r\n   struct Service {\r\n      uint code;\r\n      address owner;\r\n      string serviceType;\r\n      string serviceName;\r\n      string location;\r\n      uint startdate;\r\n      uint enddate;\r\n      string instructor;\r\n      string costs;\r\n    }\r\n\r\n   mapping(address => Service[]) public serviseCreator;\r\n   mapping(uint => Service) public serviceCode;\r\n\r\n   uint[] allServices;\r\n\r\n   event ServiceIsCreated(uint code, string serviceName);\r\n   event ServiceIsUpdated(uint code, string serviceName);\r\n   event ServiceIsDeleted(uint code);\r\n   event ServiceIsRead(uint code_,\r\n      address owner,\r\n      string serviceType,\r\n      string serviceName,\r\n      string location,\r\n      uint startdate,\r\n      uint enddate,\r\n      string instructor,\r\n      string costs\r\n   );\r\n   event EmitServices(address owner, uint[]);\r\n\r\n   uint totalServices = 0;\r\n\r\n   function createService(\r\n      uint code,\r\n      string memory serviceType,\r\n      string memory serviceName,\r\n      string memory location,\r\n      uint startdate,\r\n      uint enddate,\r\n      string memory instructor,\r\n      string memory costs\r\n   ) public returns(\r\n      uint code_\r\n   ){\r\n      serviseCreator[msg.sender].push(Service(code, msg.sender, serviceType, serviceName, location, startdate, enddate, instructor, costs));\r\n      serviceCode[code] = Service(code, msg.sender, serviceType, serviceName, location, startdate, enddate, instructor, costs);\r\n      allServices[totalServices] = code;\r\n      totalServices++;\r\n      emit ServiceIsCreated(code, serviceName);\r\n      return code;\r\n   }\r\n\r\n   function updateService(\r\n      uint code,\r\n      string memory serviceType,\r\n      string memory serviceName,\r\n      string memory location,\r\n      uint startdate,\r\n      uint enddate,\r\n      string memory instructor,\r\n      string memory costs\r\n   ) public returns (bool success) {\r\n      serviseCreator[msg.sender].push(Service(code, msg.sender, serviceType, serviceName, location, startdate, enddate, instructor, costs));\r\n      serviceCode[code] = Service(code, msg.sender, serviceType, serviceName, location, startdate, enddate, instructor, costs);\r\n      for(uint256 i = 0; i < serviseCreator[msg.sender].length; i++){\r\n         Service memory s = serviseCreator[msg.sender][i];\r\n         if(codesEqual(code, s.code)){\r\n            s.serviceType = serviceType;\r\n            s.serviceName = serviceName;\r\n            s.location = location;\r\n            s.startdate = startdate;\r\n            s.enddate = enddate;\r\n            s.instructor = instructor;\r\n            s.costs = costs;\r\n            serviseCreator[msg.sender][i] = s;\r\n            serviceCode[code] = s;\r\n            emit ServiceIsUpdated(code, serviceName);\r\n            return true;\r\n         }\r\n      }\r\n      return false;\r\n   }\r\n\r\n   function deleteService(uint code) public returns (bool success) {\r\n      require(totalServices > 0, 'No services are found');\r\n      for(uint256 i = 0; i < serviseCreator[msg.sender].length; i++){\r\n         if(codesEqual(code, serviseCreator[msg.sender][i].code)){\r\n            serviseCreator[msg.sender][i] = serviseCreator[msg.sender][serviseCreator[msg.sender].length-1];\r\n            delete serviseCreator[msg.sender][serviseCreator[msg.sender].length-1];\r\n            if (serviceCode[code].owner == msg.sender){\r\n               delete serviceCode[code];\r\n               allServices[i] = allServices[totalServices-1];\r\n               totalServices--;\r\n               emit ServiceIsDeleted(code);\r\n               return true;\r\n            }\r\n         }\r\n      }\r\n      return false;\r\n   }\r\n\r\n   function findServiceByCode (uint code) public payable returns (\r\n      uint code_,\r\n      address owner,\r\n      string memory serviceType,\r\n      string memory serviceName,\r\n      string memory location,\r\n      uint startdate,\r\n      uint enddate,\r\n      string memory instructor,\r\n      string memory costs\r\n   ) {\r\n      Service memory s = serviceCode[code];\r\n      emit ServiceIsRead(\r\n         s.code,\r\n         s.owner,\r\n         s.serviceType,\r\n         s.serviceName,\r\n         s.location,\r\n         s.startdate,\r\n         s.enddate,\r\n         s.instructor,\r\n         s.costs\r\n      );\r\n      return (\r\n         s.code,\r\n         s.owner,\r\n         s.serviceType,\r\n         s.serviceName,\r\n         s.location,\r\n         s.startdate,\r\n         s.enddate,\r\n         s.instructor,\r\n         s.costs\r\n      );\r\n   }\r\n\r\n   function findServiceByName (string memory serviceName) public payable returns (\r\n      uint code,\r\n      address owner,\r\n      string memory serviceType,\r\n      string memory serviceName_,\r\n      string memory location,\r\n      uint startdate,\r\n      uint enddate,\r\n      string memory instructor,\r\n      string memory costs\r\n   ) {\r\n      for(uint256 i = 0; i < serviseCreator[msg.sender].length; i++){\r\n         Service memory s = serviseCreator[msg.sender][i];\r\n         if(nameEquals(serviceName, s.serviceName)){\r\n            emit ServiceIsRead(\r\n               s.code,\r\n               s.owner,\r\n               s.serviceType,\r\n               s.serviceName,\r\n               s.location,\r\n               s.startdate,\r\n               s.enddate,\r\n               s.instructor,\r\n               s.costs\r\n            );\r\n            return (\r\n               s.code,\r\n               s.owner,\r\n               s.serviceType,\r\n               s.serviceName,\r\n               s.location,\r\n               s.startdate,\r\n               s.enddate,\r\n               s.instructor,\r\n               s.costs\r\n            );\r\n         }\r\n      }\r\n      revert('Service is not found');\r\n   }\r\n\r\n   function emitServices() public view returns (uint[] memory){\r\n      uint[] memory codes;\r\n      for(uint256 i = 0; i < serviseCreator[msg.sender].length; i++){\r\n         codes[i] = serviseCreator[msg.sender][i].code;\r\n      }\r\n      // emit EmitServices(msg.sender, codes);\r\n      return codes;\r\n   }\r\n\r\n   function emitAllServices() public view returns (uint[] memory){\r\n      // emit EmitServices(msg.sender, allServices);\r\n      return allServices;\r\n   }\r\n\r\n   function codesEqual (uint a, uint b) internal pure returns (bool) {\r\n      return a == b;\r\n   }\r\n\r\n   function nameEquals (string memory a, string memory b)  internal pure returns (bool){\r\n      return (keccak256(abi.encodePacked((a))) == keccak256(abi.encodePacked((b))));\r\n   }\r\n\r\n}",
  "sourcePath": "C:/Users/prush/Documents/git/Dapp/contracts/ServiceProvider.sol",
  "compiler": {
    "name": "solc",
    "version": "0.5.16+commit.9c3226ce.Emscripten.clang"
  },
  "schemaVersion": "3.0.21",
  "updatedAt": "2020-01-31T09:13:25.145Z",
  "networkType": "ethereum",
  "devdoc": {
    "methods": {}
  },
  "userdoc": {
    "methods": {}
  }
}