{
  "contractName": "ServiceProvider",
  "abi": [
    {
      "anonymous": false,
      "inputs": [
        {
          "indexed": false,
          "internalType": "address",
          "name": "owner",
          "type": "address"
        },
        {
          "indexed": false,
          "internalType": "uint256[]",
          "name": "",
          "type": "uint256[]"
        }
      ],
      "name": "EmitServices",
      "type": "event"
    },
    {
      "anonymous": false,
      "inputs": [
        {
          "indexed": false,
          "internalType": "uint256",
          "name": "code",
          "type": "uint256"
        },
        {
          "indexed": false,
          "internalType": "string",
          "name": "serviceName",
          "type": "string"
        }
      ],
      "name": "ServiceIsCreated",
      "type": "event"
    },
    {
      "anonymous": false,
      "inputs": [
        {
          "indexed": false,
          "internalType": "uint256",
          "name": "code",
          "type": "uint256"
        }
      ],
      "name": "ServiceIsDeleted",
      "type": "event"
    },
    {
      "anonymous": false,
      "inputs": [
        {
          "indexed": false,
          "internalType": "uint256",
          "name": "code_",
          "type": "uint256"
        },
        {
          "indexed": false,
          "internalType": "address",
          "name": "owner",
          "type": "address"
        },
        {
          "indexed": false,
          "internalType": "string",
          "name": "serviceType",
          "type": "string"
        },
        {
          "indexed": false,
          "internalType": "string",
          "name": "serviceName",
          "type": "string"
        },
        {
          "indexed": false,
          "internalType": "string",
          "name": "location",
          "type": "string"
        },
        {
          "indexed": false,
          "internalType": "uint256",
          "name": "startdate",
          "type": "uint256"
        },
        {
          "indexed": false,
          "internalType": "uint256",
          "name": "enddate",
          "type": "uint256"
        },
        {
          "indexed": false,
          "internalType": "string",
          "name": "instructor",
          "type": "string"
        },
        {
          "indexed": false,
          "internalType": "uint256",
          "name": "costs",
          "type": "uint256"
        }
      ],
      "name": "ServiceIsRead",
      "type": "event"
    },
    {
      "anonymous": false,
      "inputs": [
        {
          "indexed": false,
          "internalType": "uint256",
          "name": "code",
          "type": "uint256"
        },
        {
          "indexed": false,
          "internalType": "string",
          "name": "serviceName",
          "type": "string"
        }
      ],
      "name": "ServiceIsUpdated",
      "type": "event"
    },
    {
      "constant": true,
      "inputs": [
        {
          "internalType": "uint256",
          "name": "",
          "type": "uint256"
        }
      ],
      "name": "serviceCode",
      "outputs": [
        {
          "internalType": "uint256",
          "name": "code",
          "type": "uint256"
        },
        {
          "internalType": "address",
          "name": "owner",
          "type": "address"
        },
        {
          "internalType": "string",
          "name": "serviceType",
          "type": "string"
        },
        {
          "internalType": "string",
          "name": "serviceName",
          "type": "string"
        },
        {
          "internalType": "string",
          "name": "location",
          "type": "string"
        },
        {
          "internalType": "uint256",
          "name": "startdate",
          "type": "uint256"
        },
        {
          "internalType": "uint256",
          "name": "enddate",
          "type": "uint256"
        },
        {
          "internalType": "string",
          "name": "instructor",
          "type": "string"
        },
        {
          "internalType": "uint256",
          "name": "costs",
          "type": "uint256"
        }
      ],
      "payable": false,
      "stateMutability": "view",
      "type": "function"
    },
    {
      "constant": true,
      "inputs": [
        {
          "internalType": "address",
          "name": "",
          "type": "address"
        },
        {
          "internalType": "uint256",
          "name": "",
          "type": "uint256"
        }
      ],
      "name": "serviseCreator",
      "outputs": [
        {
          "internalType": "uint256",
          "name": "code",
          "type": "uint256"
        },
        {
          "internalType": "address",
          "name": "owner",
          "type": "address"
        },
        {
          "internalType": "string",
          "name": "serviceType",
          "type": "string"
        },
        {
          "internalType": "string",
          "name": "serviceName",
          "type": "string"
        },
        {
          "internalType": "string",
          "name": "location",
          "type": "string"
        },
        {
          "internalType": "uint256",
          "name": "startdate",
          "type": "uint256"
        },
        {
          "internalType": "uint256",
          "name": "enddate",
          "type": "uint256"
        },
        {
          "internalType": "string",
          "name": "instructor",
          "type": "string"
        },
        {
          "internalType": "uint256",
          "name": "costs",
          "type": "uint256"
        }
      ],
      "payable": false,
      "stateMutability": "view",
      "type": "function"
    },
    {
      "constant": false,
      "inputs": [
        {
          "internalType": "uint256",
          "name": "code",
          "type": "uint256"
        },
        {
          "internalType": "string",
          "name": "serviceType",
          "type": "string"
        },
        {
          "internalType": "string",
          "name": "serviceName",
          "type": "string"
        },
        {
          "internalType": "string",
          "name": "location",
          "type": "string"
        },
        {
          "internalType": "uint256",
          "name": "startdate",
          "type": "uint256"
        },
        {
          "internalType": "uint256",
          "name": "enddate",
          "type": "uint256"
        },
        {
          "internalType": "string",
          "name": "instructor",
          "type": "string"
        },
        {
          "internalType": "uint256",
          "name": "costs",
          "type": "uint256"
        }
      ],
      "name": "createService",
      "outputs": [
        {
          "internalType": "uint256",
          "name": "code_",
          "type": "uint256"
        }
      ],
      "payable": false,
      "stateMutability": "nonpayable",
      "type": "function"
    },
    {
      "constant": false,
      "inputs": [
        {
          "internalType": "uint256",
          "name": "code",
          "type": "uint256"
        },
        {
          "internalType": "string",
          "name": "serviceType",
          "type": "string"
        },
        {
          "internalType": "string",
          "name": "serviceName",
          "type": "string"
        },
        {
          "internalType": "string",
          "name": "location",
          "type": "string"
        },
        {
          "internalType": "uint256",
          "name": "startdate",
          "type": "uint256"
        },
        {
          "internalType": "uint256",
          "name": "enddate",
          "type": "uint256"
        },
        {
          "internalType": "string",
          "name": "instructor",
          "type": "string"
        },
        {
          "internalType": "uint256",
          "name": "costs",
          "type": "uint256"
        }
      ],
      "name": "updateService",
      "outputs": [
        {
          "internalType": "bool",
          "name": "success",
          "type": "bool"
        }
      ],
      "payable": false,
      "stateMutability": "nonpayable",
      "type": "function"
    },
    {
      "constant": false,
      "inputs": [
        {
          "internalType": "uint256",
          "name": "code",
          "type": "uint256"
        }
      ],
      "name": "deleteService",
      "outputs": [
        {
          "internalType": "bool",
          "name": "success",
          "type": "bool"
        }
      ],
      "payable": false,
      "stateMutability": "nonpayable",
      "type": "function"
    },
    {
      "constant": false,
      "inputs": [
        {
          "internalType": "uint256",
          "name": "code",
          "type": "uint256"
        }
      ],
      "name": "findServiceByCode",
      "outputs": [
        {
          "internalType": "uint256",
          "name": "code_",
          "type": "uint256"
        },
        {
          "internalType": "address",
          "name": "owner",
          "type": "address"
        },
        {
          "internalType": "string",
          "name": "serviceType",
          "type": "string"
        },
        {
          "internalType": "string",
          "name": "serviceName",
          "type": "string"
        },
        {
          "internalType": "string",
          "name": "location",
          "type": "string"
        },
        {
          "internalType": "uint256",
          "name": "startdate",
          "type": "uint256"
        },
        {
          "internalType": "uint256",
          "name": "enddate",
          "type": "uint256"
        },
        {
          "internalType": "string",
          "name": "instructor",
          "type": "string"
        },
        {
          "internalType": "uint256",
          "name": "costs",
          "type": "uint256"
        }
      ],
      "payable": false,
      "stateMutability": "nonpayable",
      "type": "function"
    },
    {
      "constant": false,
      "inputs": [
        {
          "internalType": "string",
          "name": "serviceName",
          "type": "string"
        }
      ],
      "name": "findServiceByName",
      "outputs": [
        {
          "internalType": "uint256",
          "name": "code",
          "type": "uint256"
        },
        {
          "internalType": "address",
          "name": "owner",
          "type": "address"
        },
        {
          "internalType": "string",
          "name": "serviceType",
          "type": "string"
        },
        {
          "internalType": "string",
          "name": "serviceName_",
          "type": "string"
        },
        {
          "internalType": "string",
          "name": "location",
          "type": "string"
        },
        {
          "internalType": "uint256",
          "name": "startdate",
          "type": "uint256"
        },
        {
          "internalType": "uint256",
          "name": "enddate",
          "type": "uint256"
        },
        {
          "internalType": "string",
          "name": "instructor",
          "type": "string"
        },
        {
          "internalType": "uint256",
          "name": "costs",
          "type": "uint256"
        }
      ],
      "payable": false,
      "stateMutability": "nonpayable",
      "type": "function"
    },
    {
      "constant": true,
      "inputs": [],
      "name": "emitServices",
      "outputs": [
        {
          "internalType": "uint256[]",
          "name": "",
          "type": "uint256[]"
        }
      ],
      "payable": false,
      "stateMutability": "view",
      "type": "function"
    },
    {
      "constant": true,
      "inputs": [],
      "name": "emitAllServices",
      "outputs": [
        {
          "internalType": "uint256[]",
          "name": "",
          "type": "uint256[]"
        }
      ],
      "payable": false,
      "stateMutability": "view",
      "type": "function"
    }
  ],
  "bytecode": "0x6080604052600060035534801561001557600080fd5b50613bc9806100256000396000f3fe608060405234801561001057600080fd5b50600436106100935760003560e01c806374e29ee61161006657806374e29ee61461085257806381b08455146108985780638f663c6014610b59578063fb3458a614610e16578063fd72984d1461105057610093565b806301a1229e1461009857806317306fb2146102f257806317b0a1ef146103515780633699816c14610618575b600080fd5b6100e4600480360360408110156100ae57600080fd5b81019080803573ffffffffffffffffffffffffffffffffffffffff169060200190929190803590602001909291905050506110af565b604051808a81526020018973ffffffffffffffffffffffffffffffffffffffff1673ffffffffffffffffffffffffffffffffffffffff1681526020018060200180602001806020018881526020018781526020018060200186815260200185810385528c818151815260200191508051906020019080838360005b8381101561017a57808201518184015260208101905061015f565b50505050905090810190601f1680156101a75780820380516001836020036101000a031916815260200191505b5085810384528b818151815260200191508051906020019080838360005b838110156101e05780820151818401526020810190506101c5565b50505050905090810190601f16801561020d5780820380516001836020036101000a031916815260200191505b5085810383528a818151815260200191508051906020019080838360005b8381101561024657808201518184015260208101905061022b565b50505050905090810190601f1680156102735780820380516001836020036101000a031916815260200191505b50858103825287818151815260200191508051906020019080838360005b838110156102ac578082015181840152602081019050610291565b50505050905090810190601f1680156102d95780820380516001836020036101000a031916815260200191505b509d505050505050505050505050505060405180910390f35b6102fa611397565b6040518080602001828103825283818151815260200191508051906020019060200280838360005b8381101561033d578082015181840152602081019050610322565b505050509050019250505060405180910390f35b61040a6004803603602081101561036757600080fd5b810190808035906020019064010000000081111561038457600080fd5b82018360208201111561039657600080fd5b803590602001918460018302840111640100000000831117156103b857600080fd5b91908080601f016020809104026020016040519081016040528093929190818152602001838380828437600081840152601f19601f8201169050808301925050505050505091929192905050506113ef565b604051808a81526020018973ffffffffffffffffffffffffffffffffffffffff1673ffffffffffffffffffffffffffffffffffffffff1681526020018060200180602001806020018881526020018781526020018060200186815260200185810385528c818151815260200191508051906020019080838360005b838110156104a0578082015181840152602081019050610485565b50505050905090810190601f1680156104cd5780820380516001836020036101000a031916815260200191505b5085810384528b818151815260200191508051906020019080838360005b838110156105065780820151818401526020810190506104eb565b50505050905090810190601f1680156105335780820380516001836020036101000a031916815260200191505b5085810383528a818151815260200191508051906020019080838360005b8381101561056c578082015181840152602081019050610551565b50505050905090810190601f1680156105995780820380516001836020036101000a031916815260200191505b50858103825287818151815260200191508051906020019080838360005b838110156105d25780820151818401526020810190506105b7565b50505050905090810190601f1680156105ff5780820380516001836020036101000a031916815260200191505b509d505050505050505050505050505060405180910390f35b6106446004803603602081101561062e57600080fd5b8101908080359060200190929190505050611b0c565b604051808a81526020018973ffffffffffffffffffffffffffffffffffffffff1673ffffffffffffffffffffffffffffffffffffffff1681526020018060200180602001806020018881526020018781526020018060200186815260200185810385528c818151815260200191508051906020019080838360005b838110156106da5780820151818401526020810190506106bf565b50505050905090810190601f1680156107075780820380516001836020036101000a031916815260200191505b5085810384528b818151815260200191508051906020019080838360005b83811015610740578082015181840152602081019050610725565b50505050905090810190601f16801561076d5780820380516001836020036101000a031916815260200191505b5085810383528a818151815260200191508051906020019080838360005b838110156107a657808201518184015260208101905061078b565b50505050905090810190601f1680156107d35780820380516001836020036101000a031916815260200191505b50858103825287818151815260200191508051906020019080838360005b8381101561080c5780820151818401526020810190506107f1565b50505050905090810190601f1680156108395780820380516001836020036101000a031916815260200191505b509d505050505050505050505050505060405180910390f35b61087e6004803603602081101561086857600080fd5b8101908080359060200190929190505050611dda565b604051808215151515815260200191505060405180910390f35b610b3f60048036036101008110156108af57600080fd5b8101908080359060200190929190803590602001906401000000008111156108d657600080fd5b8201836020820111156108e857600080fd5b8035906020019184600183028401116401000000008311171561090a57600080fd5b91908080601f016020809104026020016040519081016040528093929190818152602001838380828437600081840152601f19601f8201169050808301925050505050505091929192908035906020019064010000000081111561096d57600080fd5b82018360208201111561097f57600080fd5b803590602001918460018302840111640100000000831117156109a157600080fd5b91908080601f016020809104026020016040519081016040528093929190818152602001838380828437600081840152601f19601f82011690508083019250505050505050919291929080359060200190640100000000811115610a0457600080fd5b820183602082011115610a1657600080fd5b80359060200191846001830284011164010000000083111715610a3857600080fd5b91908080601f016020809104026020016040519081016040528093929190818152602001838380828437600081840152601f19601f820116905080830192505050505050509192919290803590602001909291908035906020019092919080359060200190640100000000811115610aaf57600080fd5b820183602082011115610ac157600080fd5b80359060200191846001830284011164010000000083111715610ae357600080fd5b91908080601f016020809104026020016040519081016040528093929190818152602001838380828437600081840152601f19601f82011690508083019250505050505050919291929080359060200190929190505050612400565b604051808215151515815260200191505060405180910390f35b610e006004803603610100811015610b7057600080fd5b810190808035906020019092919080359060200190640100000000811115610b9757600080fd5b820183602082011115610ba957600080fd5b80359060200191846001830284011164010000000083111715610bcb57600080fd5b91908080601f016020809104026020016040519081016040528093929190818152602001838380828437600081840152601f19601f82011690508083019250505050505050919291929080359060200190640100000000811115610c2e57600080fd5b820183602082011115610c4057600080fd5b80359060200191846001830284011164010000000083111715610c6257600080fd5b91908080601f016020809104026020016040519081016040528093929190818152602001838380828437600081840152601f19601f82011690508083019250505050505050919291929080359060200190640100000000811115610cc557600080fd5b820183602082011115610cd757600080fd5b80359060200191846001830284011164010000000083111715610cf957600080fd5b91908080601f016020809104026020016040519081016040528093929190818152602001838380828437600081840152601f19601f820116905080830192505050505050509192919290803590602001909291908035906020019092919080359060200190640100000000811115610d7057600080fd5b820183602082011115610d8257600080fd5b80359060200191846001830284011164010000000083111715610da457600080fd5b91908080601f016020809104026020016040519081016040528093929190818152602001838380828437600081840152601f19601f82011690508083019250505050505050919291929080359060200190929190505050612e19565b6040518082815260200191505060405180910390f35b610e4260048036036020811015610e2c57600080fd5b81019080803590602001909291905050506131f4565b604051808a81526020018973ffffffffffffffffffffffffffffffffffffffff1673ffffffffffffffffffffffffffffffffffffffff1681526020018060200180602001806020018881526020018781526020018060200186815260200185810385528c818151815260200191508051906020019080838360005b83811015610ed8578082015181840152602081019050610ebd565b50505050905090810190601f168015610f055780820380516001836020036101000a031916815260200191505b5085810384528b818151815260200191508051906020019080838360005b83811015610f3e578082015181840152602081019050610f23565b50505050905090810190601f168015610f6b5780820380516001836020036101000a031916815260200191505b5085810383528a818151815260200191508051906020019080838360005b83811015610fa4578082015181840152602081019050610f89565b50505050905090810190601f168015610fd15780820380516001836020036101000a031916815260200191505b50858103825287818151815260200191508051906020019080838360005b8381101561100a578082015181840152602081019050610fef565b50505050905090810190601f1680156110375780820380516001836020036101000a031916815260200191505b509d505050505050505050505050505060405180910390f35b6110586137e8565b6040518080602001828103825283818151815260200191508051906020019060200280838360005b8381101561109b578082015181840152602081019050611080565b505050509050019250505060405180910390f35b600060205281600052604060002081815481106110c857fe5b9060005260206000209060090201600091509150508060000154908060010160009054906101000a900473ffffffffffffffffffffffffffffffffffffffff1690806002018054600181600116156101000203166002900480601f0160208091040260200160405190810160405280929190818152602001828054600181600116156101000203166002900480156111a15780601f10611176576101008083540402835291602001916111a1565b820191906000526020600020905b81548152906001019060200180831161118457829003601f168201915b505050505090806003018054600181600116156101000203166002900480601f01602080910402602001604051908101604052809291908181526020018280546001816001161561010002031660029004801561123f5780601f106112145761010080835404028352916020019161123f565b820191906000526020600020905b81548152906001019060200180831161122257829003601f168201915b505050505090806004018054600181600116156101000203166002900480601f0160208091040260200160405190810160405280929190818152602001828054600181600116156101000203166002900480156112dd5780601f106112b2576101008083540402835291602001916112dd565b820191906000526020600020905b8154815290600101906020018083116112c057829003601f168201915b505050505090806005015490806006015490806007018054600181600116156101000203166002900480601f0160208091040260200160405190810160405280929190818152602001828054600181600116156101000203166002900480156113875780601f1061135c57610100808354040283529160200191611387565b820191906000526020600020905b81548152906001019060200180831161136a57829003601f168201915b5050505050908060080154905089565b606060028054806020026020016040519081016040528092919081815260200182805480156113e557602002820191906000526020600020905b8154815260200190600101908083116113d1575b5050505050905090565b60008060608060606000806060600080600090505b6000803373ffffffffffffffffffffffffffffffffffffffff1673ffffffffffffffffffffffffffffffffffffffff16815260200190815260200160002080549050811015611a90576114556139be565b6000803373ffffffffffffffffffffffffffffffffffffffff1673ffffffffffffffffffffffffffffffffffffffff168152602001908152602001600020828154811061149e57fe5b906000526020600020906009020160405180610120016040529081600082015481526020016001820160009054906101000a900473ffffffffffffffffffffffffffffffffffffffff1673ffffffffffffffffffffffffffffffffffffffff1673ffffffffffffffffffffffffffffffffffffffff168152602001600282018054600181600116156101000203166002900480601f0160208091040260200160405190810160405280929190818152602001828054600181600116156101000203166002900480156115b15780601f10611586576101008083540402835291602001916115b1565b820191906000526020600020905b81548152906001019060200180831161159457829003601f168201915b50505050508152602001600382018054600181600116156101000203166002900480601f0160208091040260200160405190810160405280929190818152602001828054600181600116156101000203166002900480156116535780601f1061162857610100808354040283529160200191611653565b820191906000526020600020905b81548152906001019060200180831161163657829003601f168201915b50505050508152602001600482018054600181600116156101000203166002900480601f0160208091040260200160405190810160405280929190818152602001828054600181600116156101000203166002900480156116f55780601f106116ca576101008083540402835291602001916116f5565b820191906000526020600020905b8154815290600101906020018083116116d857829003601f168201915b505050505081526020016005820154815260200160068201548152602001600782018054600181600116156101000203166002900480601f0160208091040260200160405190810160405280929190818152602001828054600181600116156101000203166002900480156117ab5780601f10611780576101008083540402835291602001916117ab565b820191906000526020600020905b81548152906001019060200180831161178e57829003601f168201915b5050505050815260200160088201548152505090506117ce8c82606001516138c2565b15611a82577f75da2d64c9f01cd3f1ff2ea77a6dc6d87e0b6c568ae50f5d82a63d90883dc6f4816000015182602001518360400151846060015185608001518660a001518760c001518860e00151896101000151604051808a81526020018973ffffffffffffffffffffffffffffffffffffffff1673ffffffffffffffffffffffffffffffffffffffff1681526020018060200180602001806020018881526020018781526020018060200186815260200185810385528c818151815260200191508051906020019080838360005b838110156118b857808201518184015260208101905061189d565b50505050905090810190601f1680156118e55780820380516001836020036101000a031916815260200191505b5085810384528b818151815260200191508051906020019080838360005b8381101561191e578082015181840152602081019050611903565b50505050905090810190601f16801561194b5780820380516001836020036101000a031916815260200191505b5085810383528a818151815260200191508051906020019080838360005b83811015611984578082015181840152602081019050611969565b50505050905090810190601f1680156119b15780820380516001836020036101000a031916815260200191505b50858103825287818151815260200191508051906020019080838360005b838110156119ea5780820151818401526020810190506119cf565b50505050905090810190601f168015611a175780820380516001836020036101000a031916815260200191505b509d505050505050505050505050505060405180910390a1806000015181602001518260400151836060015184608001518560a001518660c001518760e001518861010001518696508595508494508191509a509a509a509a509a509a509a509a509a505050611aff565b508080600101915050611404565b506040517f08c379a00000000000000000000000000000000000000000000000000000000081526004018080602001828103825260148152602001807f53657276696365206973206e6f7420666f756e6400000000000000000000000081525060200191505060405180910390fd5b9193959799909294969850565b60016020528060005260406000206000915090508060000154908060010160009054906101000a900473ffffffffffffffffffffffffffffffffffffffff1690806002018054600181600116156101000203166002900480601f016020809104026020016040519081016040528092919081815260200182805460018160011615610100020316600290048015611be45780601f10611bb957610100808354040283529160200191611be4565b820191906000526020600020905b815481529060010190602001808311611bc757829003601f168201915b505050505090806003018054600181600116156101000203166002900480601f016020809104026020016040519081016040528092919081815260200182805460018160011615610100020316600290048015611c825780601f10611c5757610100808354040283529160200191611c82565b820191906000526020600020905b815481529060010190602001808311611c6557829003601f168201915b505050505090806004018054600181600116156101000203166002900480601f016020809104026020016040519081016040528092919081815260200182805460018160011615610100020316600290048015611d205780601f10611cf557610100808354040283529160200191611d20565b820191906000526020600020905b815481529060010190602001808311611d0357829003601f168201915b505050505090806005015490806006015490806007018054600181600116156101000203166002900480601f016020809104026020016040519081016040528092919081815260200182805460018160011615610100020316600290048015611dca5780601f10611d9f57610100808354040283529160200191611dca565b820191906000526020600020905b815481529060010190602001808311611dad57829003601f168201915b5050505050908060080154905089565b60008060035411611e53576040517f08c379a00000000000000000000000000000000000000000000000000000000081526004018080602001828103825260158152602001807f4e6f2073657276696365732061726520666f756e64000000000000000000000081525060200191505060405180910390fd5b60008090505b6000803373ffffffffffffffffffffffffffffffffffffffff1673ffffffffffffffffffffffffffffffffffffffff168152602001908152602001600020805490508110156123f557611f06836000803373ffffffffffffffffffffffffffffffffffffffff1673ffffffffffffffffffffffffffffffffffffffff1681526020019081526020016000208381548110611eef57fe5b9060005260206000209060090201600001546139b1565b156123e8576000803373ffffffffffffffffffffffffffffffffffffffff1673ffffffffffffffffffffffffffffffffffffffff16815260200190815260200160002060016000803373ffffffffffffffffffffffffffffffffffffffff1673ffffffffffffffffffffffffffffffffffffffff168152602001908152602001600020805490500381548110611f9857fe5b90600052602060002090600902016000803373ffffffffffffffffffffffffffffffffffffffff1673ffffffffffffffffffffffffffffffffffffffff1681526020019081526020016000208281548110611fef57fe5b9060005260206000209060090201600082015481600001556001820160009054906101000a900473ffffffffffffffffffffffffffffffffffffffff168160010160006101000a81548173ffffffffffffffffffffffffffffffffffffffff021916908373ffffffffffffffffffffffffffffffffffffffff16021790555060028201816002019080546001816001161561010002031660029004612095929190613a20565b50600382018160030190805460018160011615610100020316600290046120bd929190613a20565b50600482018160040190805460018160011615610100020316600290046120e5929190613a20565b50600582015481600501556006820154816006015560078201816007019080546001816001161561010002031660029004612121929190613a20565b50600882015481600801559050506000803373ffffffffffffffffffffffffffffffffffffffff1673ffffffffffffffffffffffffffffffffffffffff16815260200190815260200160002060016000803373ffffffffffffffffffffffffffffffffffffffff1673ffffffffffffffffffffffffffffffffffffffff1681526020019081526020016000208054905003815481106121bc57fe5b90600052602060002090600902016000808201600090556001820160006101000a81549073ffffffffffffffffffffffffffffffffffffffff021916905560028201600061220a9190613aa7565b60038201600061221a9190613aa7565b60048201600061222a9190613aa7565b6005820160009055600682016000905560078201600061224a9190613aa7565b600882016000905550503373ffffffffffffffffffffffffffffffffffffffff166001600085815260200190815260200160002060010160009054906101000a900473ffffffffffffffffffffffffffffffffffffffff1673ffffffffffffffffffffffffffffffffffffffff1614156123e757600160008481526020019081526020016000206000808201600090556001820160006101000a81549073ffffffffffffffffffffffffffffffffffffffff02191690556002820160006123119190613aa7565b6003820160006123219190613aa7565b6004820160006123319190613aa7565b600582016000905560068201600090556007820160006123519190613aa7565b6008820160009055505060026001600354038154811061236d57fe5b90600052602060002001546002828154811061238557fe5b9060005260206000200181905550600360008154809291906001900391905055507facbfc76caa52832682d88ce0f5e7e0f9be2c59153e170b9ae1c87f6682038203836040518082815260200191505060405180910390a160019150506123fb565b5b8080600101915050611e59565b50600090505b919050565b60008060003373ffffffffffffffffffffffffffffffffffffffff1673ffffffffffffffffffffffffffffffffffffffff1681526020019081526020016000206040518061012001604052808b81526020013373ffffffffffffffffffffffffffffffffffffffff1681526020018a815260200189815260200188815260200187815260200186815260200185815260200184815250908060018154018082558091505090600182039060005260206000209060090201600090919290919091506000820151816000015560208201518160010160006101000a81548173ffffffffffffffffffffffffffffffffffffffff021916908373ffffffffffffffffffffffffffffffffffffffff160217905550604082015181600201908051906020019061252e929190613aef565b50606082015181600301908051906020019061254b929190613aef565b506080820151816004019080519060200190612568929190613aef565b5060a0820151816005015560c0820151816006015560e0820151816007019080519060200190612599929190613aef565b5061010082015181600801555050506040518061012001604052808a81526020013373ffffffffffffffffffffffffffffffffffffffff16815260200189815260200188815260200187815260200186815260200185815260200184815260200183815250600160008b81526020019081526020016000206000820151816000015560208201518160010160006101000a81548173ffffffffffffffffffffffffffffffffffffffff021916908373ffffffffffffffffffffffffffffffffffffffff160217905550604082015181600201908051906020019061267e929190613aef565b50606082015181600301908051906020019061269b929190613aef565b5060808201518160040190805190602001906126b8929190613aef565b5060a0820151816005015560c0820151816006015560e08201518160070190805190602001906126e9929190613aef565b50610100820151816008015590505060008090505b6000803373ffffffffffffffffffffffffffffffffffffffff1673ffffffffffffffffffffffffffffffffffffffff16815260200190815260200160002080549050811015612e075761274f6139be565b6000803373ffffffffffffffffffffffffffffffffffffffff1673ffffffffffffffffffffffffffffffffffffffff168152602001908152602001600020828154811061279857fe5b906000526020600020906009020160405180610120016040529081600082015481526020016001820160009054906101000a900473ffffffffffffffffffffffffffffffffffffffff1673ffffffffffffffffffffffffffffffffffffffff1673ffffffffffffffffffffffffffffffffffffffff168152602001600282018054600181600116156101000203166002900480601f0160208091040260200160405190810160405280929190818152602001828054600181600116156101000203166002900480156128ab5780601f10612880576101008083540402835291602001916128ab565b820191906000526020600020905b81548152906001019060200180831161288e57829003601f168201915b50505050508152602001600382018054600181600116156101000203166002900480601f01602080910402602001604051908101604052809291908181526020018280546001816001161561010002031660029004801561294d5780601f106129225761010080835404028352916020019161294d565b820191906000526020600020905b81548152906001019060200180831161293057829003601f168201915b50505050508152602001600482018054600181600116156101000203166002900480601f0160208091040260200160405190810160405280929190818152602001828054600181600116156101000203166002900480156129ef5780601f106129c4576101008083540402835291602001916129ef565b820191906000526020600020905b8154815290600101906020018083116129d257829003601f168201915b505050505081526020016005820154815260200160068201548152602001600782018054600181600116156101000203166002900480601f016020809104026020016040519081016040528092919081815260200182805460018160011615610100020316600290048015612aa55780601f10612a7a57610100808354040283529160200191612aa5565b820191906000526020600020905b815481529060010190602001808311612a8857829003601f168201915b505050505081526020016008820154815250509050612ac88b82600001516139b1565b15612df957898160400181905250888160600181905250878160800181905250868160a0018181525050858160c0018181525050848160e001819052508381610100018181525050806000803373ffffffffffffffffffffffffffffffffffffffff1673ffffffffffffffffffffffffffffffffffffffff1681526020019081526020016000208381548110612b5a57fe5b90600052602060002090600902016000820151816000015560208201518160010160006101000a81548173ffffffffffffffffffffffffffffffffffffffff021916908373ffffffffffffffffffffffffffffffffffffffff1602179055506040820151816002019080519060200190612bd5929190613aef565b506060820151816003019080519060200190612bf2929190613aef565b506080820151816004019080519060200190612c0f929190613aef565b5060a0820151816005015560c0820151816006015560e0820151816007019080519060200190612c40929190613aef565b50610100820151816008015590505080600160008d81526020019081526020016000206000820151816000015560208201518160010160006101000a81548173ffffffffffffffffffffffffffffffffffffffff021916908373ffffffffffffffffffffffffffffffffffffffff1602179055506040820151816002019080519060200190612cd0929190613aef565b506060820151816003019080519060200190612ced929190613aef565b506080820151816004019080519060200190612d0a929190613aef565b5060a0820151816005015560c0820151816006015560e0820151816007019080519060200190612d3b929190613aef565b5061010082015181600801559050507f60ba80ee6f10baf6ca04ff5d05d2a047eef48758fe0fbe4f3c8ee2671a1196e78b8a6040518083815260200180602001828103825283818151815260200191508051906020019080838360005b83811015612db3578082015181840152602081019050612d98565b50505050905090810190601f168015612de05780820380516001836020036101000a031916815260200191505b50935050505060405180910390a1600192505050612e0d565b5080806001019150506126fe565b50600090505b98975050505050505050565b60008060003373ffffffffffffffffffffffffffffffffffffffff1673ffffffffffffffffffffffffffffffffffffffff1681526020019081526020016000206040518061012001604052808b81526020013373ffffffffffffffffffffffffffffffffffffffff1681526020018a815260200189815260200188815260200187815260200186815260200185815260200184815250908060018154018082558091505090600182039060005260206000209060090201600090919290919091506000820151816000015560208201518160010160006101000a81548173ffffffffffffffffffffffffffffffffffffffff021916908373ffffffffffffffffffffffffffffffffffffffff1602179055506040820151816002019080519060200190612f47929190613aef565b506060820151816003019080519060200190612f64929190613aef565b506080820151816004019080519060200190612f81929190613aef565b5060a0820151816005015560c0820151816006015560e0820151816007019080519060200190612fb2929190613aef565b5061010082015181600801555050506040518061012001604052808a81526020013373ffffffffffffffffffffffffffffffffffffffff16815260200189815260200188815260200187815260200186815260200185815260200184815260200183815250600160008b81526020019081526020016000206000820151816000015560208201518160010160006101000a81548173ffffffffffffffffffffffffffffffffffffffff021916908373ffffffffffffffffffffffffffffffffffffffff1602179055506040820151816002019080519060200190613097929190613aef565b5060608201518160030190805190602001906130b4929190613aef565b5060808201518160040190805190602001906130d1929190613aef565b5060a0820151816005015560c0820151816006015560e0820151816007019080519060200190613102929190613aef565b5061010082015181600801559050508860026003548154811061312157fe5b90600052602060002001819055506003600081548092919060010191905055507f5d2c39ba67b12187ad06f569fab089c50a0d251c27ef12e5d5442ad9459b3c3889886040518083815260200180602001828103825283818151815260200191508051906020019080838360005b838110156131aa57808201518184015260208101905061318f565b50505050905090810190601f1680156131d75780820380516001836020036101000a031916815260200191505b50935050505060405180910390a188905098975050505050505050565b60008060608060606000806060600061320b6139be565b600160008c815260200190815260200160002060405180610120016040529081600082015481526020016001820160009054906101000a900473ffffffffffffffffffffffffffffffffffffffff1673ffffffffffffffffffffffffffffffffffffffff1673ffffffffffffffffffffffffffffffffffffffff168152602001600282018054600181600116156101000203166002900480601f0160208091040260200160405190810160405280929190818152602001828054600181600116156101000203166002900480156133235780601f106132f857610100808354040283529160200191613323565b820191906000526020600020905b81548152906001019060200180831161330657829003601f168201915b50505050508152602001600382018054600181600116156101000203166002900480601f0160208091040260200160405190810160405280929190818152602001828054600181600116156101000203166002900480156133c55780601f1061339a576101008083540402835291602001916133c5565b820191906000526020600020905b8154815290600101906020018083116133a857829003601f168201915b50505050508152602001600482018054600181600116156101000203166002900480601f0160208091040260200160405190810160405280929190818152602001828054600181600116156101000203166002900480156134675780601f1061343c57610100808354040283529160200191613467565b820191906000526020600020905b81548152906001019060200180831161344a57829003601f168201915b505050505081526020016005820154815260200160068201548152602001600782018054600181600116156101000203166002900480601f01602080910402602001604051908101604052809291908181526020018280546001816001161561010002031660029004801561351d5780601f106134f25761010080835404028352916020019161351d565b820191906000526020600020905b81548152906001019060200180831161350057829003601f168201915b5050505050815260200160088201548152505090507f75da2d64c9f01cd3f1ff2ea77a6dc6d87e0b6c568ae50f5d82a63d90883dc6f4816000015182602001518360400151846060015185608001518660a001518760c001518860e00151896101000151604051808a81526020018973ffffffffffffffffffffffffffffffffffffffff1673ffffffffffffffffffffffffffffffffffffffff1681526020018060200180602001806020018881526020018781526020018060200186815260200185810385528c818151815260200191508051906020019080838360005b838110156136175780820151818401526020810190506135fc565b50505050905090810190601f1680156136445780820380516001836020036101000a031916815260200191505b5085810384528b818151815260200191508051906020019080838360005b8381101561367d578082015181840152602081019050613662565b50505050905090810190601f1680156136aa5780820380516001836020036101000a031916815260200191505b5085810383528a818151815260200191508051906020019080838360005b838110156136e35780820151818401526020810190506136c8565b50505050905090810190601f1680156137105780820380516001836020036101000a031916815260200191505b50858103825287818151815260200191508051906020019080838360005b8381101561374957808201518184015260208101905061372e565b50505050905090810190601f1680156137765780820380516001836020036101000a031916815260200191505b509d505050505050505050505050505060405180910390a1806000015181602001518260400151836060015184608001518560a001518660c001518760e00151886101000151869650859550849450819150995099509950995099509950995099509950509193959799909294969850565b60608060008090505b6000803373ffffffffffffffffffffffffffffffffffffffff1673ffffffffffffffffffffffffffffffffffffffff168152602001908152602001600020805490508110156138ba576000803373ffffffffffffffffffffffffffffffffffffffff1673ffffffffffffffffffffffffffffffffffffffff168152602001908152602001600020818154811061388357fe5b9060005260206000209060090201600001548282815181106138a157fe5b60200260200101818152505080806001019150506137f1565b508091505090565b6000816040516020018082805190602001908083835b602083106138fb57805182526020820191506020810190506020830392506138d8565b6001836020036101000a03801982511681845116808217855250505050505090500191505060405160208183030381529060405280519060200120836040516020018082805190602001908083835b6020831061396d578051825260208201915060208101905060208303925061394a565b6001836020036101000a0380198251168184511680821785525050505050509050019150506040516020818303038152906040528051906020012014905092915050565b6000818314905092915050565b60405180610120016040528060008152602001600073ffffffffffffffffffffffffffffffffffffffff168152602001606081526020016060815260200160608152602001600081526020016000815260200160608152602001600081525090565b828054600181600116156101000203166002900490600052602060002090601f016020900481019282601f10613a595780548555613a96565b82800160010185558215613a9657600052602060002091601f016020900482015b82811115613a95578254825591600101919060010190613a7a565b5b509050613aa39190613b6f565b5090565b50805460018160011615610100020316600290046000825580601f10613acd5750613aec565b601f016020900490600052602060002090810190613aeb9190613b6f565b5b50565b828054600181600116156101000203166002900490600052602060002090601f016020900481019282601f10613b3057805160ff1916838001178555613b5e565b82800160010185558215613b5e579182015b82811115613b5d578251825591602001919060010190613b42565b5b509050613b6b9190613b6f565b5090565b613b9191905b80821115613b8d576000816000905550600101613b75565b5090565b9056fea265627a7a723158208e4c3ec62ebe69cb98594bba389d5c8fc4b1ef5dae6705be0a85132afe58460864736f6c63430005100032",
  "source": "   pragma solidity ^0.5.11;\r\n\r\n   contract ServiceProvider {\r\n\r\n      struct Service {\r\n         uint code;\r\n         address owner;\r\n         string serviceType;\r\n         string serviceName;\r\n         string location;\r\n         uint startdate;\r\n         uint enddate;\r\n         string instructor;\r\n         uint256 costs;\r\n      }\r\n\r\n      mapping(address => Service[]) public serviseCreator;\r\n      mapping(uint => Service) public serviceCode;\r\n\r\n      uint[] allServices;\r\n\r\n      event ServiceIsCreated(uint code, string serviceName);\r\n      event ServiceIsUpdated(uint code, string serviceName);\r\n      event ServiceIsDeleted(uint code);\r\n      event ServiceIsRead(uint code_,\r\n         address owner,\r\n         string serviceType,\r\n         string serviceName,\r\n         string location,\r\n         uint startdate,\r\n         uint enddate,\r\n         string instructor,\r\n         uint256 costs\r\n      );\r\n      event EmitServices(address owner, uint[]);\r\n\r\n      uint totalServices = 0;\r\n\r\n      function createService(\r\n         uint code,\r\n         string memory serviceType,\r\n         string memory serviceName,\r\n         string memory location,\r\n         uint startdate,\r\n         uint enddate,\r\n         string memory instructor,\r\n         uint256 costs\r\n      ) public returns(\r\n         uint code_\r\n      ){\r\n         serviseCreator[msg.sender].push(Service(code, msg.sender, serviceType, serviceName, location, startdate, enddate, instructor, costs));\r\n         serviceCode[code] = Service(code, msg.sender, serviceType, serviceName, location, startdate, enddate, instructor, costs);\r\n         allServices[totalServices] = code;\r\n         totalServices++;\r\n         emit ServiceIsCreated(code, serviceName);\r\n         return code;\r\n      }\r\n\r\n      function updateService(\r\n         uint code,\r\n         string memory serviceType,\r\n         string memory serviceName,\r\n         string memory location,\r\n         uint startdate,\r\n         uint enddate,\r\n         string memory instructor,\r\n         uint256 costs\r\n      ) public returns (bool success) {\r\n         serviseCreator[msg.sender].push(Service(code, msg.sender, serviceType, serviceName, location, startdate, enddate, instructor, costs));\r\n         serviceCode[code] = Service(code, msg.sender, serviceType, serviceName, location, startdate, enddate, instructor, costs);\r\n         for(uint256 i = 0; i < serviseCreator[msg.sender].length; i++){\r\n            Service memory s = serviseCreator[msg.sender][i];\r\n            if(codesEqual(code, s.code)){\r\n               s.serviceType = serviceType;\r\n               s.serviceName = serviceName;\r\n               s.location = location;\r\n               s.startdate = startdate;\r\n               s.enddate = enddate;\r\n               s.instructor = instructor;\r\n               s.costs = costs;\r\n               serviseCreator[msg.sender][i] = s;\r\n               serviceCode[code] = s;\r\n               emit ServiceIsUpdated(code, serviceName);\r\n               return true;\r\n            }\r\n         }\r\n         return false;\r\n      }\r\n\r\n      function deleteService(uint code) public returns (bool success) {\r\n         require(totalServices > 0, 'No services are found');\r\n         for(uint256 i = 0; i < serviseCreator[msg.sender].length; i++){\r\n            if(codesEqual(code, serviseCreator[msg.sender][i].code)){\r\n               serviseCreator[msg.sender][i] = serviseCreator[msg.sender][serviseCreator[msg.sender].length-1];\r\n               delete serviseCreator[msg.sender][serviseCreator[msg.sender].length-1];\r\n               if (serviceCode[code].owner == msg.sender){\r\n                  delete serviceCode[code];\r\n                  allServices[i] = allServices[totalServices-1];\r\n                  totalServices--;\r\n                  emit ServiceIsDeleted(code);\r\n                  return true;\r\n               }\r\n            }\r\n         }\r\n         return false;\r\n      }\r\n\r\n      function findServiceByCode (uint code) public returns (\r\n         uint code_,\r\n         address owner,\r\n         string memory serviceType,\r\n         string memory serviceName,\r\n         string memory location,\r\n         uint startdate,\r\n         uint enddate,\r\n         string memory instructor,\r\n         uint256 costs\r\n      ) {\r\n         Service memory s = serviceCode[code];\r\n         emit ServiceIsRead(\r\n            s.code,\r\n            s.owner,\r\n            s.serviceType,\r\n            s.serviceName,\r\n            s.location,\r\n            s.startdate,\r\n            s.enddate,\r\n            s.instructor,\r\n            s.costs\r\n         );\r\n         return (\r\n            s.code,\r\n            s.owner,\r\n            s.serviceType,\r\n            s.serviceName,\r\n            s.location,\r\n            s.startdate,\r\n            s.enddate,\r\n            s.instructor,\r\n            s.costs\r\n         );\r\n      }\r\n\r\n      function findServiceByName (string memory serviceName) public returns (\r\n         uint code,\r\n         address owner,\r\n         string memory serviceType,\r\n         string memory serviceName_,\r\n         string memory location,\r\n         uint startdate,\r\n         uint enddate,\r\n         string memory instructor,\r\n         uint256 costs\r\n      ) {\r\n         for(uint256 i = 0; i < serviseCreator[msg.sender].length; i++){\r\n            Service memory s = serviseCreator[msg.sender][i];\r\n            if(nameEquals(serviceName, s.serviceName)){\r\n               emit ServiceIsRead(\r\n                  s.code,\r\n                  s.owner,\r\n                  s.serviceType,\r\n                  s.serviceName,\r\n                  s.location,\r\n                  s.startdate,\r\n                  s.enddate,\r\n                  s.instructor,\r\n                  s.costs\r\n               );\r\n               return (\r\n                  s.code,\r\n                  s.owner,\r\n                  s.serviceType,\r\n                  s.serviceName,\r\n                  s.location,\r\n                  s.startdate,\r\n                  s.enddate,\r\n                  s.instructor,\r\n                  s.costs\r\n               );\r\n            }\r\n         }\r\n         revert('Service is not found');\r\n      }\r\n\r\n      function emitServices() public view returns (uint[] memory){\r\n         uint[] memory codes;\r\n         for(uint256 i = 0; i < serviseCreator[msg.sender].length; i++){\r\n            codes[i] = serviseCreator[msg.sender][i].code;\r\n         }\r\n         // emit EmitServices(msg.sender, codes);\r\n         return codes;\r\n      }\r\n\r\n      function emitAllServices() public view returns (uint[] memory){\r\n         // emit EmitServices(msg.sender, allServices);\r\n         return allServices;\r\n      }\r\n\r\n      function codesEqual (uint a, uint b) internal pure returns (bool) {\r\n         return a == b;\r\n      }\r\n\r\n      function nameEquals (string memory a, string memory b)  internal pure returns (bool){\r\n         return (keccak256(abi.encodePacked((a))) == keccak256(abi.encodePacked((b))));\r\n      }\r\n\r\n   }",
  "sourcePath": "C:/Users/prush/Documents/git/Dapp/contracts/ServiceProvider.sol",
  "compiler": {
    "name": "solc",
    "version": "0.5.16+commit.9c3226ce.Emscripten.clang"
  },
  "schemaVersion": "3.0.21",
  "updatedAt": "2020-02-03T12:23:08.776Z",
  "networkType": "ethereum",
  "devdoc": {
    "methods": {}
  },
  "userdoc": {
    "methods": {}
  }
}